{
  "_format": "hh-sol-artifact-1",
  "contractName": "PropertyEscrow",
  "sourceName": "contracts/PropertyEscrow.sol",
  "abi": [
    {
      "inputs": [],
      "stateMutability": "nonpayable",
      "type": "constructor"
    },
    {
      "inputs": [
        {
          "internalType": "uint256",
          "name": "_id",
          "type": "uint256"
        }
      ],
      "name": "cancelListing",
      "outputs": [
        {
          "internalType": "bool",
          "name": "",
          "type": "bool"
        }
      ],
      "stateMutability": "nonpayable",
      "type": "function"
    },
    {
      "inputs": [
        {
          "internalType": "string",
          "name": "address1",
          "type": "string"
        },
        {
          "internalType": "string",
          "name": "address2",
          "type": "string"
        },
        {
          "internalType": "string",
          "name": "city",
          "type": "string"
        },
        {
          "internalType": "string",
          "name": "province",
          "type": "string"
        },
        {
          "internalType": "string",
          "name": "postcode",
          "type": "string"
        },
        {
          "internalType": "string",
          "name": "country",
          "type": "string"
        },
        {
          "internalType": "string",
          "name": "name",
          "type": "string"
        },
        {
          "internalType": "string",
          "name": "description",
          "type": "string"
        },
        {
          "internalType": "uint256",
          "name": "price",
          "type": "uint256"
        }
      ],
      "name": "createListing",
      "outputs": [
        {
          "internalType": "uint256",
          "name": "",
          "type": "uint256"
        }
      ],
      "stateMutability": "nonpayable",
      "type": "function"
    },
    {
      "inputs": [
        {
          "internalType": "uint256",
          "name": "_id",
          "type": "uint256"
        }
      ],
      "name": "getPropertyDetail",
      "outputs": [
        {
          "components": [
            {
              "internalType": "uint256",
              "name": "id",
              "type": "uint256"
            },
            {
              "internalType": "string",
              "name": "name",
              "type": "string"
            },
            {
              "internalType": "string",
              "name": "description",
              "type": "string"
            },
            {
              "components": [
                {
                  "internalType": "string",
                  "name": "address1",
                  "type": "string"
                },
                {
                  "internalType": "string",
                  "name": "address2",
                  "type": "string"
                },
                {
                  "internalType": "string",
                  "name": "city",
                  "type": "string"
                },
                {
                  "internalType": "string",
                  "name": "province",
                  "type": "string"
                },
                {
                  "internalType": "string",
                  "name": "postcode",
                  "type": "string"
                },
                {
                  "internalType": "string",
                  "name": "country",
                  "type": "string"
                }
              ],
              "internalType": "struct PropertyEscrow.PropertyAddress",
              "name": "propertyAddress",
              "type": "tuple"
            },
            {
              "internalType": "uint256",
              "name": "price",
              "type": "uint256"
            },
            {
              "internalType": "address",
              "name": "owner",
              "type": "address"
            },
            {
              "internalType": "address",
              "name": "buyer",
              "type": "address"
            },
            {
              "internalType": "bool",
              "name": "isSold",
              "type": "bool"
            },
            {
              "internalType": "bool",
              "name": "onHold",
              "type": "bool"
            },
            {
              "internalType": "bool",
              "name": "isActive",
              "type": "bool"
            },
            {
              "internalType": "bool",
              "name": "isVerified",
              "type": "bool"
            }
          ],
          "internalType": "struct PropertyEscrow.Property",
          "name": "",
          "type": "tuple"
        }
      ],
      "stateMutability": "view",
      "type": "function"
    },
    {
      "inputs": [
        {
          "internalType": "uint256",
          "name": "_id",
          "type": "uint256"
        }
      ],
      "name": "getPropertyIsActive",
      "outputs": [
        {
          "internalType": "bool",
          "name": "",
          "type": "bool"
        }
      ],
      "stateMutability": "view",
      "type": "function"
    },
    {
      "inputs": [
        {
          "internalType": "uint256",
          "name": "_id",
          "type": "uint256"
        }
      ],
      "name": "getPropertyIsSold",
      "outputs": [
        {
          "internalType": "bool",
          "name": "",
          "type": "bool"
        }
      ],
      "stateMutability": "view",
      "type": "function"
    },
    {
      "inputs": [],
      "name": "getPropertyLength",
      "outputs": [
        {
          "internalType": "uint256",
          "name": "",
          "type": "uint256"
        }
      ],
      "stateMutability": "view",
      "type": "function"
    },
    {
      "inputs": [],
      "name": "getPropertyList",
      "outputs": [
        {
          "components": [
            {
              "internalType": "uint256",
              "name": "id",
              "type": "uint256"
            },
            {
              "internalType": "string",
              "name": "name",
              "type": "string"
            },
            {
              "internalType": "string",
              "name": "description",
              "type": "string"
            },
            {
              "components": [
                {
                  "internalType": "string",
                  "name": "address1",
                  "type": "string"
                },
                {
                  "internalType": "string",
                  "name": "address2",
                  "type": "string"
                },
                {
                  "internalType": "string",
                  "name": "city",
                  "type": "string"
                },
                {
                  "internalType": "string",
                  "name": "province",
                  "type": "string"
                },
                {
                  "internalType": "string",
                  "name": "postcode",
                  "type": "string"
                },
                {
                  "internalType": "string",
                  "name": "country",
                  "type": "string"
                }
              ],
              "internalType": "struct PropertyEscrow.PropertyAddress",
              "name": "propertyAddress",
              "type": "tuple"
            },
            {
              "internalType": "uint256",
              "name": "price",
              "type": "uint256"
            },
            {
              "internalType": "address",
              "name": "owner",
              "type": "address"
            },
            {
              "internalType": "address",
              "name": "buyer",
              "type": "address"
            },
            {
              "internalType": "bool",
              "name": "isSold",
              "type": "bool"
            },
            {
              "internalType": "bool",
              "name": "onHold",
              "type": "bool"
            },
            {
              "internalType": "bool",
              "name": "isActive",
              "type": "bool"
            },
            {
              "internalType": "bool",
              "name": "isVerified",
              "type": "bool"
            }
          ],
          "internalType": "struct PropertyEscrow.Property[]",
          "name": "",
          "type": "tuple[]"
        }
      ],
      "stateMutability": "view",
      "type": "function"
    },
    {
      "inputs": [
        {
          "internalType": "uint256",
          "name": "_id",
          "type": "uint256"
        }
      ],
      "name": "getPropertyPrice",
      "outputs": [
        {
          "internalType": "uint256",
          "name": "",
          "type": "uint256"
        }
      ],
      "stateMutability": "view",
      "type": "function"
    },
    {
      "inputs": [
        {
          "internalType": "address",
          "name": "manager",
          "type": "address"
        }
      ],
      "name": "isManager",
      "outputs": [
        {
          "internalType": "bool",
          "name": "",
          "type": "bool"
        }
      ],
      "stateMutability": "view",
      "type": "function"
    },
    {
      "inputs": [
        {
          "internalType": "uint256",
          "name": "_id",
          "type": "uint256"
        }
      ],
      "name": "payProperty",
      "outputs": [
        {
          "internalType": "bool",
          "name": "",
          "type": "bool"
        }
      ],
      "stateMutability": "payable",
      "type": "function"
    },
    {
      "inputs": [
        {
          "internalType": "address",
          "name": "manager",
          "type": "address"
        },
        {
          "internalType": "bool",
          "name": "state",
          "type": "bool"
        }
      ],
      "name": "setManager",
      "outputs": [
        {
          "internalType": "bool",
          "name": "",
          "type": "bool"
        }
      ],
      "stateMutability": "nonpayable",
      "type": "function"
    },
    {
      "inputs": [
        {
          "internalType": "uint256",
          "name": "_id",
          "type": "uint256"
        },
        {
          "internalType": "bool",
          "name": "_isVerified",
          "type": "bool"
        }
      ],
      "name": "setPropertyIsVerified",
      "outputs": [
        {
          "internalType": "bool",
          "name": "",
          "type": "bool"
        }
      ],
      "stateMutability": "nonpayable",
      "type": "function"
    }
  ],
  "bytecode": "0x608060405234801561001057600080fd5b50600180546001600160a01b0319163390811782556000908152602081905260409020805460ff191682179055600355611cd28061004f6000396000f3fe6080604052600436106100a75760003560e01c806391397585116100645780639139758514610184578063a5e90eee146101b1578063badf707b146101d1578063c1a82480146101e4578063f3ae241514610204578063f600f3081461022457600080fd5b80630789752c146100ac57806321977f6c146100df578063305a67a81461010f57806344c31fcd1461012f57806355fcff1b14610144578063686c50e014610164575b600080fd5b3480156100b857600080fd5b506100cc6100c7366004611998565b610246565b6040519081526020015b60405180910390f35b3480156100eb57600080fd5b506100ff6100fa366004611998565b61025d565b60405190151581526020016100d6565b34801561011b57600080fd5b506100ff61012a366004611998565b610274565b34801561013b57600080fd5b506002546100cc565b34801561015057600080fd5b506100cc61015f36600461184e565b6103c5565b34801561017057600080fd5b506100ff61017f3660046119b1565b61065a565b34801561019057600080fd5b506101a461019f366004611998565b61074c565b6040516100d69190611bfc565b3480156101bd57600080fd5b506100ff6101cc36600461181b565b610766565b6100ff6101df366004611998565b6107eb565b3480156101f057600080fd5b506100ff6101ff366004611998565b610a62565b34801561021057600080fd5b506100ff61021f366004611800565b610a7a565b34801561023057600080fd5b50610239610af8565b6040516100d69190611b9a565b6000806102528361107c565b608001519392505050565b6000806102698361107c565b60e001519392505050565b60008160006102828261107c565b90508060a001516001600160a01b0316336001600160a01b0316146102ee5760405162461bcd60e51b815260206004820152601f60248201527f4f6e6c792070726f7065727479206f776e65722063616e20657865637574650060448201526064015b60405180910390fd5b60005b60025481101561038057846002828154811061030f5761030f611c70565b90600052602060002090600c020160000154141561036e5760006002828154811061033c5761033c611c70565b90600052602060002090600c0201600b0160166101000a81548160ff02191690831515021790555060019350506103be565b610379816001611c0f565b90506102f1565b5060405162461bcd60e51b8152602060048201526012602482015271141c9bdc195c9d1e481b9bdd08199bdd5b9960721b60448201526064016102e5565b5050919050565b6040805160c080820183528b825260208083018c90528284018b905260608084018b905260808085018b905260a08086018b905286516101608101885260035481528085018b81529781018a90529283018690529082018790523390820152600092810183905260e081018390526101008101839052600161012082018190526101408201849052600280549182018155845281517f405787fa12a823e0f2b7631cc41b3ba8828b3321ca811111fa75cd3aa3bb5ace600c909202918201908155955180519496929485946104be937f405787fa12a823e0f2b7631cc41b3ba8828b3321ca811111fa75cd3aa3bb5acf01920190611622565b50604082015180516104da916002840191602090910190611622565b5060608201518051805160038401916104f891839160200190611622565b5060208281015180516105119260018501920190611622565b506040820151805161052d916002840191602090910190611622565b5060608201518051610549916003840191602090910190611622565b5060808201518051610565916004840191602090910190611622565b5060a08201518051610581916005840191602090910190611622565b5050506080820151600982015560a0820151600a820180546001600160a01b039283166001600160a01b031990911617905560c0830151600b909201805460e0850151610100860151610120870151610140909701511515600160b81b0260ff60b81b19971515600160b01b0260ff60b01b19921515600160a81b029290921661ffff60a81b19931515600160a01b026001600160a81b031990951697909616969096179290921716929092179190911792909216179055600354610647906001611c0f565b600355519b9a5050505050505050505050565b3360009081526020819052604081205460ff166106b55760405162461bcd60e51b81526020600482015260196024820152784f6e6c79206d616e61676572732063616e206578656375746560381b60448201526064016102e5565b60005b6002548110156103805783600282815481106106d6576106d6611c70565b90600052602060002090600c020160000154141561073457826002828154811061070257610702611c70565b90600052602060002090600c0201600b0160176101000a81548160ff0219169083151502179055506001915050610746565b61073f816001611c0f565b90506106b8565b92915050565b6107546116a6565b600061075f8361107c565b9392505050565b6001546000906001600160a01b031633146107bc5760405162461bcd60e51b81526020600482015260166024820152754f6e6c79206f776e65722063616e206578656375746560501b60448201526064016102e5565b506001600160a01b0382166000908152602081905260409020805482151560ff19909116179055600192915050565b6000805b60025481101561038057826002828154811061080d5761080d611c70565b90600052602060002090600c0201600001541415610a50576002818154811061083857610838611c70565b60009182526020909120600c90910201600a01546001600160a01b03163314156108a45760405162461bcd60e51b815260206004820152601c60248201527f43616e6e6f74207075726368617365206f776e2070726f70657274790000000060448201526064016102e5565b600281815481106108b7576108b7611c70565b90600052602060002090600c02016009015434146109325760405162461bcd60e51b815260206004820152603260248201527f5472616e73616374696f6e20616d6f756e7420646f6573206e6f7420657175616044820152711b081d1bc8185cdada5b99c8185b5bdd5b9d60721b60648201526084016102e5565b60016002828154811061094757610947611c70565b90600052602060002090600c0201600b0160146101000a81548160ff02191690831515021790555060006002828154811061098457610984611c70565b90600052602060002090600c0201600b0160166101000a81548160ff0219169083151502179055506000600282815481106109c1576109c1611c70565b90600052602060002090600c0201600a0160009054906101000a90046001600160a01b03169050806001600160a01b03166108fc60028481548110610a0857610a08611c70565b90600052602060002090600c0201600901549081150290604051600060405180830381858888f19350505050158015610a45573d6000803e3d6000fd5b506001949350505050565b610a5b816001611c0f565b90506107ef565b600080610a6e8361107c565b61012001519392505050565b3360009081526020819052604081205460ff16610ad55760405162461bcd60e51b81526020600482015260196024820152784f6e6c79206d616e61676572732063616e206578656375746560381b60448201526064016102e5565b506001600160a01b03811660009081526020819052604090205460ff165b919050565b60606002805480602002602001604051908101604052809291908181526020016000905b8282101561107357838290600052602060002090600c02016040518061016001604052908160008201548152602001600182018054610b5a90611c35565b80601f0160208091040260200160405190810160405280929190818152602001828054610b8690611c35565b8015610bd35780601f10610ba857610100808354040283529160200191610bd3565b820191906000526020600020905b815481529060010190602001808311610bb657829003601f168201915b50505050508152602001600282018054610bec90611c35565b80601f0160208091040260200160405190810160405280929190818152602001828054610c1890611c35565b8015610c655780601f10610c3a57610100808354040283529160200191610c65565b820191906000526020600020905b815481529060010190602001808311610c4857829003601f168201915b50505050508152602001600382016040518060c0016040529081600082018054610c8e90611c35565b80601f0160208091040260200160405190810160405280929190818152602001828054610cba90611c35565b8015610d075780601f10610cdc57610100808354040283529160200191610d07565b820191906000526020600020905b815481529060010190602001808311610cea57829003601f168201915b50505050508152602001600182018054610d2090611c35565b80601f0160208091040260200160405190810160405280929190818152602001828054610d4c90611c35565b8015610d995780601f10610d6e57610100808354040283529160200191610d99565b820191906000526020600020905b815481529060010190602001808311610d7c57829003601f168201915b50505050508152602001600282018054610db290611c35565b80601f0160208091040260200160405190810160405280929190818152602001828054610dde90611c35565b8015610e2b5780601f10610e0057610100808354040283529160200191610e2b565b820191906000526020600020905b815481529060010190602001808311610e0e57829003601f168201915b50505050508152602001600382018054610e4490611c35565b80601f0160208091040260200160405190810160405280929190818152602001828054610e7090611c35565b8015610ebd5780601f10610e9257610100808354040283529160200191610ebd565b820191906000526020600020905b815481529060010190602001808311610ea057829003601f168201915b50505050508152602001600482018054610ed690611c35565b80601f0160208091040260200160405190810160405280929190818152602001828054610f0290611c35565b8015610f4f5780601f10610f2457610100808354040283529160200191610f4f565b820191906000526020600020905b815481529060010190602001808311610f3257829003601f168201915b50505050508152602001600582018054610f6890611c35565b80601f0160208091040260200160405190810160405280929190818152602001828054610f9490611c35565b8015610fe15780601f10610fb657610100808354040283529160200191610fe1565b820191906000526020600020905b815481529060010190602001808311610fc457829003601f168201915b5050509190925250505081526009820154602080830191909152600a8301546001600160a01b039081166040840152600b90930154928316606083015260ff600160a01b8404811615156080840152600160a81b84048116151560a0840152600160b01b84048116151560c0840152600160b81b909304909216151560e0909101529082526001929092019101610b1c565b50505050905090565b6110846116a6565b60005b6002548110156103805782600282815481106110a5576110a5611c70565b90600052602060002090600c020160000154141561161057600281815481106110d0576110d0611c70565b90600052602060002090600c0201604051806101600160405290816000820154815260200160018201805461110490611c35565b80601f016020809104026020016040519081016040528092919081815260200182805461113090611c35565b801561117d5780601f106111525761010080835404028352916020019161117d565b820191906000526020600020905b81548152906001019060200180831161116057829003601f168201915b5050505050815260200160028201805461119690611c35565b80601f01602080910402602001604051908101604052809291908181526020018280546111c290611c35565b801561120f5780601f106111e45761010080835404028352916020019161120f565b820191906000526020600020905b8154815290600101906020018083116111f257829003601f168201915b50505050508152602001600382016040518060c001604052908160008201805461123890611c35565b80601f016020809104026020016040519081016040528092919081815260200182805461126490611c35565b80156112b15780601f10611286576101008083540402835291602001916112b1565b820191906000526020600020905b81548152906001019060200180831161129457829003601f168201915b505050505081526020016001820180546112ca90611c35565b80601f01602080910402602001604051908101604052809291908181526020018280546112f690611c35565b80156113435780601f1061131857610100808354040283529160200191611343565b820191906000526020600020905b81548152906001019060200180831161132657829003601f168201915b5050505050815260200160028201805461135c90611c35565b80601f016020809104026020016040519081016040528092919081815260200182805461138890611c35565b80156113d55780601f106113aa576101008083540402835291602001916113d5565b820191906000526020600020905b8154815290600101906020018083116113b857829003601f168201915b505050505081526020016003820180546113ee90611c35565b80601f016020809104026020016040519081016040528092919081815260200182805461141a90611c35565b80156114675780601f1061143c57610100808354040283529160200191611467565b820191906000526020600020905b81548152906001019060200180831161144a57829003601f168201915b5050505050815260200160048201805461148090611c35565b80601f01602080910402602001604051908101604052809291908181526020018280546114ac90611c35565b80156114f95780601f106114ce576101008083540402835291602001916114f9565b820191906000526020600020905b8154815290600101906020018083116114dc57829003601f168201915b5050505050815260200160058201805461151290611c35565b80601f016020809104026020016040519081016040528092919081815260200182805461153e90611c35565b801561158b5780601f106115605761010080835404028352916020019161158b565b820191906000526020600020905b81548152906001019060200180831161156e57829003601f168201915b50505091909252505050815260098201546020820152600a8201546001600160a01b039081166040830152600b90920154918216606082015260ff600160a01b8304811615156080830152600160a81b83048116151560a0830152600160b01b83048116151560c0830152600160b81b909204909116151560e0909101529392505050565b61161b816001611c0f565b9050611087565b82805461162e90611c35565b90600052602060002090601f0160209004810192826116505760008555611696565b82601f1061166957805160ff1916838001178555611696565b82800160010185558215611696579182015b8281111561169657825182559160200191906001019061167b565b506116a2929150611737565b5090565b6040518061016001604052806000815260200160608152602001606081526020016117006040518060c001604052806060815260200160608152602001606081526020016060815260200160608152602001606081525090565b815260006020820181905260408201819052606082018190526080820181905260a0820181905260c0820181905260e09091015290565b5b808211156116a25760008155600101611738565b80356001600160a01b0381168114610af357600080fd5b80358015158114610af357600080fd5b600082601f83011261178457600080fd5b813567ffffffffffffffff8082111561179f5761179f611c86565b604051601f8301601f19908116603f011681019082821181831017156117c7576117c7611c86565b816040528381528660208588010111156117e057600080fd5b836020870160208301376000602085830101528094505050505092915050565b60006020828403121561181257600080fd5b61075f8261174c565b6000806040838503121561182e57600080fd5b6118378361174c565b915061184560208401611763565b90509250929050565b60008060008060008060008060006101208a8c03121561186d57600080fd5b893567ffffffffffffffff8082111561188557600080fd5b6118918d838e01611773565b9a5060208c01359150808211156118a757600080fd5b6118b38d838e01611773565b995060408c01359150808211156118c957600080fd5b6118d58d838e01611773565b985060608c01359150808211156118eb57600080fd5b6118f78d838e01611773565b975060808c013591508082111561190d57600080fd5b6119198d838e01611773565b965060a08c013591508082111561192f57600080fd5b61193b8d838e01611773565b955060c08c013591508082111561195157600080fd5b61195d8d838e01611773565b945060e08c013591508082111561197357600080fd5b506119808c828d01611773565b9250506101008a013590509295985092959850929598565b6000602082840312156119aa57600080fd5b5035919050565b600080604083850312156119c457600080fd5b8235915061184560208401611763565b6000815180845260005b818110156119fa576020818501810151868301820152016119de565b81811115611a0c576000602083870101525b50601f01601f19169290920160200192915050565b6000815160c08452611a3660c08501826119d4565b905060208301518482036020860152611a4f82826119d4565b91505060408301518482036040860152611a6982826119d4565b91505060608301518482036060860152611a8382826119d4565b91505060808301518482036080860152611a9d82826119d4565b91505060a083015184820360a0860152611ab782826119d4565b95945050505050565b6000610160825184526020830151816020860152611ae0828601826119d4565b91505060408301518482036040860152611afa82826119d4565b91505060608301518482036060860152611b148282611a21565b9150506080830151608085015260a0830151611b3b60a08601826001600160a01b03169052565b5060c0830151611b5660c08601826001600160a01b03169052565b5060e0830151611b6a60e086018215159052565b50610100838101511515908501526101208084015115159085015261014092830151151592909301919091525090565b6000602080830181845280855180835260408601915060408160051b870101925083870160005b82811015611bef57603f19888603018452611bdd858351611ac0565b94509285019290850190600101611bc1565b5092979650505050505050565b60208152600061075f6020830184611ac0565b60008219821115611c3057634e487b7160e01b600052601160045260246000fd5b500190565b600181811c90821680611c4957607f821691505b60208210811415611c6a57634e487b7160e01b600052602260045260246000fd5b50919050565b634e487b7160e01b600052603260045260246000fd5b634e487b7160e01b600052604160045260246000fdfea2646970667358221220744dd61b74e647543d9e0b5e9c9442bb6c67175ebcd4a68c88d08e179ee0f84464736f6c63430008050033",
  "linkReferences": {},
  "deployedLinkReferences": {}
}