{
  "_format": "hh-sol-artifact-1",
  "contractName": "PropertyEscrow",
  "sourceName": "contracts/PropertyEscrow.sol",
  "abi": [
    {
      "inputs": [],
      "stateMutability": "nonpayable",
      "type": "constructor"
    },
    {
      "inputs": [
        {
          "internalType": "uint256",
          "name": "_id",
          "type": "uint256"
        }
      ],
      "name": "cancelListing",
      "outputs": [
        {
          "internalType": "bool",
          "name": "",
          "type": "bool"
        }
      ],
      "stateMutability": "nonpayable",
      "type": "function"
    },
    {
      "inputs": [
        {
          "internalType": "string",
          "name": "address1",
          "type": "string"
        },
        {
          "internalType": "string",
          "name": "address2",
          "type": "string"
        },
        {
          "internalType": "string",
          "name": "city",
          "type": "string"
        },
        {
          "internalType": "string",
          "name": "province",
          "type": "string"
        },
        {
          "internalType": "string",
          "name": "postcode",
          "type": "string"
        },
        {
          "internalType": "string",
          "name": "country",
          "type": "string"
        },
        {
          "internalType": "string",
          "name": "name",
          "type": "string"
        },
        {
          "internalType": "string",
          "name": "description",
          "type": "string"
        },
        {
          "internalType": "uint256",
          "name": "price",
          "type": "uint256"
        }
      ],
      "name": "createListing",
      "outputs": [
        {
          "internalType": "uint256",
          "name": "",
          "type": "uint256"
        }
      ],
      "stateMutability": "nonpayable",
      "type": "function"
    },
    {
      "inputs": [
        {
          "internalType": "uint256",
          "name": "_id",
          "type": "uint256"
        },
        {
          "internalType": "string",
          "name": "name",
          "type": "string"
        },
        {
          "internalType": "string",
          "name": "description",
          "type": "string"
        },
        {
          "internalType": "uint256",
          "name": "price",
          "type": "uint256"
        }
      ],
      "name": "editProperty",
      "outputs": [
        {
          "internalType": "bool",
          "name": "",
          "type": "bool"
        }
      ],
      "stateMutability": "nonpayable",
      "type": "function"
    },
    {
      "inputs": [
        {
          "internalType": "uint256",
          "name": "_id",
          "type": "uint256"
        }
      ],
      "name": "getPropertyDetail",
      "outputs": [
        {
          "components": [
            {
              "internalType": "uint256",
              "name": "id",
              "type": "uint256"
            },
            {
              "internalType": "string",
              "name": "name",
              "type": "string"
            },
            {
              "internalType": "string",
              "name": "description",
              "type": "string"
            },
            {
              "components": [
                {
                  "internalType": "string",
                  "name": "address1",
                  "type": "string"
                },
                {
                  "internalType": "string",
                  "name": "address2",
                  "type": "string"
                },
                {
                  "internalType": "string",
                  "name": "city",
                  "type": "string"
                },
                {
                  "internalType": "string",
                  "name": "province",
                  "type": "string"
                },
                {
                  "internalType": "string",
                  "name": "postcode",
                  "type": "string"
                },
                {
                  "internalType": "string",
                  "name": "country",
                  "type": "string"
                }
              ],
              "internalType": "struct PropertyEscrow.PropertyAddress",
              "name": "propertyAddress",
              "type": "tuple"
            },
            {
              "internalType": "uint256",
              "name": "price",
              "type": "uint256"
            },
            {
              "internalType": "address",
              "name": "owner",
              "type": "address"
            },
            {
              "internalType": "address",
              "name": "buyer",
              "type": "address"
            },
            {
              "internalType": "bool",
              "name": "isSold",
              "type": "bool"
            },
            {
              "internalType": "bool",
              "name": "onHold",
              "type": "bool"
            },
            {
              "internalType": "bool",
              "name": "isActive",
              "type": "bool"
            },
            {
              "internalType": "bool",
              "name": "isVerified",
              "type": "bool"
            }
          ],
          "internalType": "struct PropertyEscrow.Property",
          "name": "",
          "type": "tuple"
        }
      ],
      "stateMutability": "view",
      "type": "function"
    },
    {
      "inputs": [
        {
          "internalType": "uint256",
          "name": "_id",
          "type": "uint256"
        }
      ],
      "name": "getPropertyIsActive",
      "outputs": [
        {
          "internalType": "bool",
          "name": "",
          "type": "bool"
        }
      ],
      "stateMutability": "view",
      "type": "function"
    },
    {
      "inputs": [
        {
          "internalType": "uint256",
          "name": "_id",
          "type": "uint256"
        }
      ],
      "name": "getPropertyIsSold",
      "outputs": [
        {
          "internalType": "bool",
          "name": "",
          "type": "bool"
        }
      ],
      "stateMutability": "view",
      "type": "function"
    },
    {
      "inputs": [],
      "name": "getPropertyLength",
      "outputs": [
        {
          "internalType": "uint256",
          "name": "",
          "type": "uint256"
        }
      ],
      "stateMutability": "view",
      "type": "function"
    },
    {
      "inputs": [],
      "name": "getPropertyList",
      "outputs": [
        {
          "components": [
            {
              "internalType": "uint256",
              "name": "id",
              "type": "uint256"
            },
            {
              "internalType": "string",
              "name": "name",
              "type": "string"
            },
            {
              "internalType": "string",
              "name": "description",
              "type": "string"
            },
            {
              "components": [
                {
                  "internalType": "string",
                  "name": "address1",
                  "type": "string"
                },
                {
                  "internalType": "string",
                  "name": "address2",
                  "type": "string"
                },
                {
                  "internalType": "string",
                  "name": "city",
                  "type": "string"
                },
                {
                  "internalType": "string",
                  "name": "province",
                  "type": "string"
                },
                {
                  "internalType": "string",
                  "name": "postcode",
                  "type": "string"
                },
                {
                  "internalType": "string",
                  "name": "country",
                  "type": "string"
                }
              ],
              "internalType": "struct PropertyEscrow.PropertyAddress",
              "name": "propertyAddress",
              "type": "tuple"
            },
            {
              "internalType": "uint256",
              "name": "price",
              "type": "uint256"
            },
            {
              "internalType": "address",
              "name": "owner",
              "type": "address"
            },
            {
              "internalType": "address",
              "name": "buyer",
              "type": "address"
            },
            {
              "internalType": "bool",
              "name": "isSold",
              "type": "bool"
            },
            {
              "internalType": "bool",
              "name": "onHold",
              "type": "bool"
            },
            {
              "internalType": "bool",
              "name": "isActive",
              "type": "bool"
            },
            {
              "internalType": "bool",
              "name": "isVerified",
              "type": "bool"
            }
          ],
          "internalType": "struct PropertyEscrow.Property[]",
          "name": "",
          "type": "tuple[]"
        }
      ],
      "stateMutability": "view",
      "type": "function"
    },
    {
      "inputs": [
        {
          "internalType": "address",
          "name": "_address",
          "type": "address"
        }
      ],
      "name": "getPropertyListByAddressIsBuyer",
      "outputs": [
        {
          "components": [
            {
              "internalType": "uint256",
              "name": "id",
              "type": "uint256"
            },
            {
              "internalType": "string",
              "name": "name",
              "type": "string"
            },
            {
              "internalType": "string",
              "name": "description",
              "type": "string"
            },
            {
              "components": [
                {
                  "internalType": "string",
                  "name": "address1",
                  "type": "string"
                },
                {
                  "internalType": "string",
                  "name": "address2",
                  "type": "string"
                },
                {
                  "internalType": "string",
                  "name": "city",
                  "type": "string"
                },
                {
                  "internalType": "string",
                  "name": "province",
                  "type": "string"
                },
                {
                  "internalType": "string",
                  "name": "postcode",
                  "type": "string"
                },
                {
                  "internalType": "string",
                  "name": "country",
                  "type": "string"
                }
              ],
              "internalType": "struct PropertyEscrow.PropertyAddress",
              "name": "propertyAddress",
              "type": "tuple"
            },
            {
              "internalType": "uint256",
              "name": "price",
              "type": "uint256"
            },
            {
              "internalType": "address",
              "name": "owner",
              "type": "address"
            },
            {
              "internalType": "address",
              "name": "buyer",
              "type": "address"
            },
            {
              "internalType": "bool",
              "name": "isSold",
              "type": "bool"
            },
            {
              "internalType": "bool",
              "name": "onHold",
              "type": "bool"
            },
            {
              "internalType": "bool",
              "name": "isActive",
              "type": "bool"
            },
            {
              "internalType": "bool",
              "name": "isVerified",
              "type": "bool"
            }
          ],
          "internalType": "struct PropertyEscrow.Property[]",
          "name": "",
          "type": "tuple[]"
        }
      ],
      "stateMutability": "view",
      "type": "function"
    },
    {
      "inputs": [
        {
          "internalType": "address",
          "name": "_address",
          "type": "address"
        }
      ],
      "name": "getPropertyListByAddressIsOwner",
      "outputs": [
        {
          "components": [
            {
              "internalType": "uint256",
              "name": "id",
              "type": "uint256"
            },
            {
              "internalType": "string",
              "name": "name",
              "type": "string"
            },
            {
              "internalType": "string",
              "name": "description",
              "type": "string"
            },
            {
              "components": [
                {
                  "internalType": "string",
                  "name": "address1",
                  "type": "string"
                },
                {
                  "internalType": "string",
                  "name": "address2",
                  "type": "string"
                },
                {
                  "internalType": "string",
                  "name": "city",
                  "type": "string"
                },
                {
                  "internalType": "string",
                  "name": "province",
                  "type": "string"
                },
                {
                  "internalType": "string",
                  "name": "postcode",
                  "type": "string"
                },
                {
                  "internalType": "string",
                  "name": "country",
                  "type": "string"
                }
              ],
              "internalType": "struct PropertyEscrow.PropertyAddress",
              "name": "propertyAddress",
              "type": "tuple"
            },
            {
              "internalType": "uint256",
              "name": "price",
              "type": "uint256"
            },
            {
              "internalType": "address",
              "name": "owner",
              "type": "address"
            },
            {
              "internalType": "address",
              "name": "buyer",
              "type": "address"
            },
            {
              "internalType": "bool",
              "name": "isSold",
              "type": "bool"
            },
            {
              "internalType": "bool",
              "name": "onHold",
              "type": "bool"
            },
            {
              "internalType": "bool",
              "name": "isActive",
              "type": "bool"
            },
            {
              "internalType": "bool",
              "name": "isVerified",
              "type": "bool"
            }
          ],
          "internalType": "struct PropertyEscrow.Property[]",
          "name": "",
          "type": "tuple[]"
        }
      ],
      "stateMutability": "view",
      "type": "function"
    },
    {
      "inputs": [
        {
          "internalType": "uint256",
          "name": "_id",
          "type": "uint256"
        }
      ],
      "name": "getPropertyPrice",
      "outputs": [
        {
          "internalType": "uint256",
          "name": "",
          "type": "uint256"
        }
      ],
      "stateMutability": "view",
      "type": "function"
    },
    {
      "inputs": [],
      "name": "getTotalAmountTransacted",
      "outputs": [
        {
          "internalType": "uint256",
          "name": "",
          "type": "uint256"
        }
      ],
      "stateMutability": "view",
      "type": "function"
    },
    {
      "inputs": [
        {
          "internalType": "address",
          "name": "manager",
          "type": "address"
        }
      ],
      "name": "isManager",
      "outputs": [
        {
          "internalType": "bool",
          "name": "",
          "type": "bool"
        }
      ],
      "stateMutability": "view",
      "type": "function"
    },
    {
      "inputs": [
        {
          "internalType": "uint256",
          "name": "_id",
          "type": "uint256"
        }
      ],
      "name": "payProperty",
      "outputs": [
        {
          "internalType": "bool",
          "name": "",
          "type": "bool"
        }
      ],
      "stateMutability": "payable",
      "type": "function"
    },
    {
      "inputs": [
        {
          "internalType": "address",
          "name": "manager",
          "type": "address"
        },
        {
          "internalType": "bool",
          "name": "state",
          "type": "bool"
        }
      ],
      "name": "setManager",
      "outputs": [
        {
          "internalType": "bool",
          "name": "",
          "type": "bool"
        }
      ],
      "stateMutability": "nonpayable",
      "type": "function"
    },
    {
      "inputs": [
        {
          "internalType": "uint256",
          "name": "_id",
          "type": "uint256"
        },
        {
          "internalType": "bool",
          "name": "_isVerified",
          "type": "bool"
        }
      ],
      "name": "setPropertyIsVerified",
      "outputs": [
        {
          "internalType": "bool",
          "name": "",
          "type": "bool"
        }
      ],
      "stateMutability": "nonpayable",
      "type": "function"
    }
  ],
  "bytecode": "0x608060405234801561001057600080fd5b50600180546001600160a01b0319163390811782556000908152602081905260409020805460ff191682179055600355612ee28061004f6000396000f3fe6080604052600436106100f35760003560e01c80636d2f69fa1161008a578063c1a8248011610059578063c1a8248014610292578063cb6341ce146102b2578063f3ae2415146102d2578063f600f308146102f257600080fd5b80636d2f69fa146102055780639139758514610232578063a5e90eee1461025f578063badf707b1461027f57600080fd5b8063305a67a8116100c6578063305a67a81461019057806344c31fcd146101b057806355fcff1b146101c5578063686c50e0146101e557600080fd5b80630789752c146100f85780630b4a348c1461012b57806321977f6c1461014057806325db3afa14610170575b600080fd5b34801561010457600080fd5b50610118610113366004612b39565b610307565b6040519081526020015b60405180910390f35b34801561013757600080fd5b5061011861031e565b34801561014c57600080fd5b5061016061015b366004612b39565b6103b6565b6040519015158152602001610122565b34801561017c57600080fd5b5061016061018b366004612b75565b6103cd565b34801561019c57600080fd5b506101606101ab366004612b39565b61066e565b3480156101bc57600080fd5b50600254610118565b3480156101d157600080fd5b506101186101e03660046129ef565b61077c565b3480156101f157600080fd5b50610160610200366004612b52565b610a11565b34801561021157600080fd5b506102256102203660046129a1565b610b03565b6040516101229190612db0565b34801561023e57600080fd5b5061025261024d366004612b39565b6111d4565b6040516101229190612e12565b34801561026b57600080fd5b5061016061027a3660046129bc565b6111ee565b61016061028d366004612b39565b611273565b34801561029e57600080fd5b506101606102ad366004612b39565b611533565b3480156102be57600080fd5b506102256102cd3660046129a1565b61154b565b3480156102de57600080fd5b506101606102ed3660046129a1565b611c1b565b3480156102fe57600080fd5b50610225611c99565b6000806103138361221d565b608001519392505050565b600080805b6002548110156103b0576002818154811061034057610340612e80565b90600052602060002090600c0201600b0160149054906101000a900460ff16151560011515141561039e576002818154811061037e5761037e612e80565b90600052602060002090600c0201600901548261039b9190612e25565b91505b6103a9816001612e25565b9050610323565b50919050565b6000806103c28361221d565b60e001519392505050565b60008460006103db8261221d565b90508060a001516001600160a01b0316336001600160a01b0316146104475760405162461bcd60e51b815260206004820152601f60248201527f4f6e6c792070726f7065727479206f776e65722063616e20657865637574650060448201526064015b60405180910390fd5b60005b60025481101561062657876002828154811061046857610468612e80565b90600052602060002090600c0201600001541415610614576002818154811061049357610493612e80565b90600052602060002090600c0201600b0160169054906101000a900460ff16151560011515146104fe5760405162461bcd60e51b815260206004820152601660248201527550726f7065727479206973206e6f742061637469766560501b604482015260640161043e565b6002818154811061051157610511612e80565b60009182526020909120600c90910201600b0154600160a01b900460ff161561056f5760405162461bcd60e51b815260206004820152601060248201526f141c9bdc195c9d1e481a5cc81cdbdb1960821b604482015260640161043e565b866002828154811061058357610583612e80565b90600052602060002090600c020160010190805190602001906105a79291906127c3565b5085600282815481106105bc576105bc612e80565b90600052602060002090600c020160020190805190602001906105e09291906127c3565b5084600282815481106105f5576105f5612e80565b90600052602060002090600c0201600901819055506001935050610664565b61061f816001612e25565b905061044a565b5060405162461bcd60e51b8152602060048201526012602482015271141c9bdc195c9d1e481b9bdd08199bdd5b9960721b604482015260640161043e565b5050949350505050565b600081600061067c8261221d565b90508060a001516001600160a01b0316336001600160a01b0316146106e35760405162461bcd60e51b815260206004820152601f60248201527f4f6e6c792070726f7065727479206f776e65722063616e206578656375746500604482015260640161043e565b60005b60025481101561062657846002828154811061070457610704612e80565b90600052602060002090600c02016000015414156107635760006002828154811061073157610731612e80565b90600052602060002090600c0201600b0160166101000a81548160ff0219169083151502179055506001935050610775565b61076e816001612e25565b90506106e6565b5050919050565b6040805160c080820183528b825260208083018c90528284018b905260608084018b905260808085018b905260a08086018b905286516101608101885260035481528085018b81529781018a90529283018690529082018790523390820152600092810183905260e081018390526101008101839052600161012082018190526101408201849052600280549182018155845281517f405787fa12a823e0f2b7631cc41b3ba8828b3321ca811111fa75cd3aa3bb5ace600c90920291820190815595518051949692948594610875937f405787fa12a823e0f2b7631cc41b3ba8828b3321ca811111fa75cd3aa3bb5acf019201906127c3565b50604082015180516108919160028401916020909101906127c3565b5060608201518051805160038401916108af918391602001906127c3565b5060208281015180516108c892600185019201906127c3565b50604082015180516108e49160028401916020909101906127c3565b50606082015180516109009160038401916020909101906127c3565b506080820151805161091c9160048401916020909101906127c3565b5060a082015180516109389160058401916020909101906127c3565b5050506080820151600982015560a0820151600a820180546001600160a01b039283166001600160a01b031990911617905560c0830151600b909201805460e0850151610100860151610120870151610140909701511515600160b81b0260ff60b81b19971515600160b01b0260ff60b01b19921515600160a81b029290921661ffff60a81b19931515600160a01b026001600160a81b0319909516979096169690961792909217169290921791909117929092161790556003546109fe906001612e25565b600355519b9a5050505050505050505050565b3360009081526020819052604081205460ff16610a6c5760405162461bcd60e51b81526020600482015260196024820152784f6e6c79206d616e61676572732063616e206578656375746560381b604482015260640161043e565b60005b600254811015610626578360028281548110610a8d57610a8d612e80565b90600052602060002090600c0201600001541415610aeb578260028281548110610ab957610ab9612e80565b90600052602060002090600c0201600b0160176101000a81548160ff0219169083151502179055506001915050610afd565b610af6816001612e25565b9050610a6f565b92915050565b60606000805b600254811015610b7357836001600160a01b031660028281548110610b3057610b30612e80565b60009182526020909120600a600c9092020101546001600160a01b03161415610b6157610b5e826001612e25565b91505b610b6c816001612e25565b9050610b09565b5080610bb2576040805160008082526020820190925290610baa565b610b97612847565b815260200190600190039081610b8f5790505b509392505050565b60008167ffffffffffffffff811115610bcd57610bcd612e96565b604051908082528060200260200182016040528015610c0657816020015b610bf3612847565b815260200190600190039081610beb5790505b50905060005b600254811015610baa57846001600160a01b031660028281548110610c3357610c33612e80565b60009182526020909120600a600c9092020101546001600160a01b031614156111c25760028181548110610c6957610c69612e80565b90600052602060002090600c02016040518061016001604052908160008201548152602001600182018054610c9d90612e4b565b80601f0160208091040260200160405190810160405280929190818152602001828054610cc990612e4b565b8015610d165780601f10610ceb57610100808354040283529160200191610d16565b820191906000526020600020905b815481529060010190602001808311610cf957829003601f168201915b50505050508152602001600282018054610d2f90612e4b565b80601f0160208091040260200160405190810160405280929190818152602001828054610d5b90612e4b565b8015610da85780601f10610d7d57610100808354040283529160200191610da8565b820191906000526020600020905b815481529060010190602001808311610d8b57829003601f168201915b50505050508152602001600382016040518060c0016040529081600082018054610dd190612e4b565b80601f0160208091040260200160405190810160405280929190818152602001828054610dfd90612e4b565b8015610e4a5780601f10610e1f57610100808354040283529160200191610e4a565b820191906000526020600020905b815481529060010190602001808311610e2d57829003601f168201915b50505050508152602001600182018054610e6390612e4b565b80601f0160208091040260200160405190810160405280929190818152602001828054610e8f90612e4b565b8015610edc5780601f10610eb157610100808354040283529160200191610edc565b820191906000526020600020905b815481529060010190602001808311610ebf57829003601f168201915b50505050508152602001600282018054610ef590612e4b565b80601f0160208091040260200160405190810160405280929190818152602001828054610f2190612e4b565b8015610f6e5780601f10610f4357610100808354040283529160200191610f6e565b820191906000526020600020905b815481529060010190602001808311610f5157829003601f168201915b50505050508152602001600382018054610f8790612e4b565b80601f0160208091040260200160405190810160405280929190818152602001828054610fb390612e4b565b80156110005780601f10610fd557610100808354040283529160200191611000565b820191906000526020600020905b815481529060010190602001808311610fe357829003601f168201915b5050505050815260200160048201805461101990612e4b565b80601f016020809104026020016040519081016040528092919081815260200182805461104590612e4b565b80156110925780601f1061106757610100808354040283529160200191611092565b820191906000526020600020905b81548152906001019060200180831161107557829003601f168201915b505050505081526020016005820180546110ab90612e4b565b80601f01602080910402602001604051908101604052809291908181526020018280546110d790612e4b565b80156111245780601f106110f957610100808354040283529160200191611124565b820191906000526020600020905b81548152906001019060200180831161110757829003601f168201915b50505091909252505050815260098201546020820152600a8201546001600160a01b039081166040830152600b90920154918216606082015260ff600160a01b8304811615156080830152600160a81b83048116151560a0830152600160b01b83048116151560c0830152600160b81b909204909116151560e09091015282518390839081106111b6576111b6612e80565b60200260200101819052505b6111cd816001612e25565b9050610c0c565b6111dc612847565b60006111e78361221d565b9392505050565b6001546000906001600160a01b031633146112445760405162461bcd60e51b81526020600482015260166024820152754f6e6c79206f776e65722063616e206578656375746560501b604482015260640161043e565b506001600160a01b0382166000908152602081905260409020805482151560ff19909116179055600192915050565b6000805b60025481101561062657826002828154811061129557611295612e80565b90600052602060002090600c020160000154141561152157600281815481106112c0576112c0612e80565b60009182526020909120600c90910201600a01546001600160a01b031633141561132c5760405162461bcd60e51b815260206004820152601c60248201527f43616e6e6f74207075726368617365206f776e2070726f706572747900000000604482015260640161043e565b6002818154811061133f5761133f612e80565b90600052602060002090600c02016009015434146113ba5760405162461bcd60e51b815260206004820152603260248201527f5472616e73616374696f6e20616d6f756e7420646f6573206e6f7420657175616044820152711b081d1bc8185cdada5b99c8185b5bdd5b9d60721b606482015260840161043e565b6001600282815481106113cf576113cf612e80565b90600052602060002090600c0201600b0160146101000a81548160ff02191690831515021790555060006002828154811061140c5761140c612e80565b90600052602060002090600c0201600b0160166101000a81548160ff021916908315150217905550336002828154811061144857611448612e80565b90600052602060002090600c0201600b0160006101000a8154816001600160a01b0302191690836001600160a01b0316021790555060006002828154811061149257611492612e80565b90600052602060002090600c0201600a0160009054906101000a90046001600160a01b03169050806001600160a01b03166108fc600284815481106114d9576114d9612e80565b90600052602060002090600c0201600901549081150290604051600060405180830381858888f19350505050158015611516573d6000803e3d6000fd5b506001949350505050565b61152c816001612e25565b9050611277565b60008061153f8361221d565b61012001519392505050565b60606000805b6002548110156115bb57836001600160a01b03166002828154811061157857611578612e80565b60009182526020909120600b600c9092020101546001600160a01b031614156115a9576115a6826001612e25565b91505b6115b4816001612e25565b9050611551565b50806115f9576040805160008082526020820190925290610baa565b6115df612847565b8152602001906001900390816115d7579050509392505050565b60008167ffffffffffffffff81111561161457611614612e96565b60405190808252806020026020018201604052801561164d57816020015b61163a612847565b8152602001906001900390816116325790505b50905060005b600254811015610baa57846001600160a01b03166002828154811061167a5761167a612e80565b60009182526020909120600b600c9092020101546001600160a01b03161415611c0957600281815481106116b0576116b0612e80565b90600052602060002090600c020160405180610160016040529081600082015481526020016001820180546116e490612e4b565b80601f016020809104026020016040519081016040528092919081815260200182805461171090612e4b565b801561175d5780601f106117325761010080835404028352916020019161175d565b820191906000526020600020905b81548152906001019060200180831161174057829003601f168201915b5050505050815260200160028201805461177690612e4b565b80601f01602080910402602001604051908101604052809291908181526020018280546117a290612e4b565b80156117ef5780601f106117c4576101008083540402835291602001916117ef565b820191906000526020600020905b8154815290600101906020018083116117d257829003601f168201915b50505050508152602001600382016040518060c001604052908160008201805461181890612e4b565b80601f016020809104026020016040519081016040528092919081815260200182805461184490612e4b565b80156118915780601f1061186657610100808354040283529160200191611891565b820191906000526020600020905b81548152906001019060200180831161187457829003601f168201915b505050505081526020016001820180546118aa90612e4b565b80601f01602080910402602001604051908101604052809291908181526020018280546118d690612e4b565b80156119235780601f106118f857610100808354040283529160200191611923565b820191906000526020600020905b81548152906001019060200180831161190657829003601f168201915b5050505050815260200160028201805461193c90612e4b565b80601f016020809104026020016040519081016040528092919081815260200182805461196890612e4b565b80156119b55780601f1061198a576101008083540402835291602001916119b5565b820191906000526020600020905b81548152906001019060200180831161199857829003601f168201915b505050505081526020016003820180546119ce90612e4b565b80601f01602080910402602001604051908101604052809291908181526020018280546119fa90612e4b565b8015611a475780601f10611a1c57610100808354040283529160200191611a47565b820191906000526020600020905b815481529060010190602001808311611a2a57829003601f168201915b50505050508152602001600482018054611a6090612e4b565b80601f0160208091040260200160405190810160405280929190818152602001828054611a8c90612e4b565b8015611ad95780601f10611aae57610100808354040283529160200191611ad9565b820191906000526020600020905b815481529060010190602001808311611abc57829003601f168201915b50505050508152602001600582018054611af290612e4b565b80601f0160208091040260200160405190810160405280929190818152602001828054611b1e90612e4b565b8015611b6b5780601f10611b4057610100808354040283529160200191611b6b565b820191906000526020600020905b815481529060010190602001808311611b4e57829003601f168201915b50505091909252505050815260098201546020820152600a8201546001600160a01b039081166040830152600b90920154918216606082015260ff600160a01b8304811615156080830152600160a81b83048116151560a0830152600160b01b83048116151560c0830152600160b81b909204909116151560e0909101528251839083908110611bfd57611bfd612e80565b60200260200101819052505b611c14816001612e25565b9050611653565b3360009081526020819052604081205460ff16611c765760405162461bcd60e51b81526020600482015260196024820152784f6e6c79206d616e61676572732063616e206578656375746560381b604482015260640161043e565b506001600160a01b03811660009081526020819052604090205460ff165b919050565b60606002805480602002602001604051908101604052809291908181526020016000905b8282101561221457838290600052602060002090600c02016040518061016001604052908160008201548152602001600182018054611cfb90612e4b565b80601f0160208091040260200160405190810160405280929190818152602001828054611d2790612e4b565b8015611d745780601f10611d4957610100808354040283529160200191611d74565b820191906000526020600020905b815481529060010190602001808311611d5757829003601f168201915b50505050508152602001600282018054611d8d90612e4b565b80601f0160208091040260200160405190810160405280929190818152602001828054611db990612e4b565b8015611e065780601f10611ddb57610100808354040283529160200191611e06565b820191906000526020600020905b815481529060010190602001808311611de957829003601f168201915b50505050508152602001600382016040518060c0016040529081600082018054611e2f90612e4b565b80601f0160208091040260200160405190810160405280929190818152602001828054611e5b90612e4b565b8015611ea85780601f10611e7d57610100808354040283529160200191611ea8565b820191906000526020600020905b815481529060010190602001808311611e8b57829003601f168201915b50505050508152602001600182018054611ec190612e4b565b80601f0160208091040260200160405190810160405280929190818152602001828054611eed90612e4b565b8015611f3a5780601f10611f0f57610100808354040283529160200191611f3a565b820191906000526020600020905b815481529060010190602001808311611f1d57829003601f168201915b50505050508152602001600282018054611f5390612e4b565b80601f0160208091040260200160405190810160405280929190818152602001828054611f7f90612e4b565b8015611fcc5780601f10611fa157610100808354040283529160200191611fcc565b820191906000526020600020905b815481529060010190602001808311611faf57829003601f168201915b50505050508152602001600382018054611fe590612e4b565b80601f016020809104026020016040519081016040528092919081815260200182805461201190612e4b565b801561205e5780601f106120335761010080835404028352916020019161205e565b820191906000526020600020905b81548152906001019060200180831161204157829003601f168201915b5050505050815260200160048201805461207790612e4b565b80601f01602080910402602001604051908101604052809291908181526020018280546120a390612e4b565b80156120f05780601f106120c5576101008083540402835291602001916120f0565b820191906000526020600020905b8154815290600101906020018083116120d357829003601f168201915b5050505050815260200160058201805461210990612e4b565b80601f016020809104026020016040519081016040528092919081815260200182805461213590612e4b565b80156121825780601f1061215757610100808354040283529160200191612182565b820191906000526020600020905b81548152906001019060200180831161216557829003601f168201915b5050509190925250505081526009820154602080830191909152600a8301546001600160a01b039081166040840152600b90930154928316606083015260ff600160a01b8404811615156080840152600160a81b84048116151560a0840152600160b01b84048116151560c0840152600160b81b909304909216151560e0909101529082526001929092019101611cbd565b50505050905090565b612225612847565b60005b60025481101561062657826002828154811061224657612246612e80565b90600052602060002090600c02016000015414156127b1576002818154811061227157612271612e80565b90600052602060002090600c020160405180610160016040529081600082015481526020016001820180546122a590612e4b565b80601f01602080910402602001604051908101604052809291908181526020018280546122d190612e4b565b801561231e5780601f106122f35761010080835404028352916020019161231e565b820191906000526020600020905b81548152906001019060200180831161230157829003601f168201915b5050505050815260200160028201805461233790612e4b565b80601f016020809104026020016040519081016040528092919081815260200182805461236390612e4b565b80156123b05780601f10612385576101008083540402835291602001916123b0565b820191906000526020600020905b81548152906001019060200180831161239357829003601f168201915b50505050508152602001600382016040518060c00160405290816000820180546123d990612e4b565b80601f016020809104026020016040519081016040528092919081815260200182805461240590612e4b565b80156124525780601f1061242757610100808354040283529160200191612452565b820191906000526020600020905b81548152906001019060200180831161243557829003601f168201915b5050505050815260200160018201805461246b90612e4b565b80601f016020809104026020016040519081016040528092919081815260200182805461249790612e4b565b80156124e45780601f106124b9576101008083540402835291602001916124e4565b820191906000526020600020905b8154815290600101906020018083116124c757829003601f168201915b505050505081526020016002820180546124fd90612e4b565b80601f016020809104026020016040519081016040528092919081815260200182805461252990612e4b565b80156125765780601f1061254b57610100808354040283529160200191612576565b820191906000526020600020905b81548152906001019060200180831161255957829003601f168201915b5050505050815260200160038201805461258f90612e4b565b80601f01602080910402602001604051908101604052809291908181526020018280546125bb90612e4b565b80156126085780601f106125dd57610100808354040283529160200191612608565b820191906000526020600020905b8154815290600101906020018083116125eb57829003601f168201915b5050505050815260200160048201805461262190612e4b565b80601f016020809104026020016040519081016040528092919081815260200182805461264d90612e4b565b801561269a5780601f1061266f5761010080835404028352916020019161269a565b820191906000526020600020905b81548152906001019060200180831161267d57829003601f168201915b505050505081526020016005820180546126b390612e4b565b80601f01602080910402602001604051908101604052809291908181526020018280546126df90612e4b565b801561272c5780601f106127015761010080835404028352916020019161272c565b820191906000526020600020905b81548152906001019060200180831161270f57829003601f168201915b50505091909252505050815260098201546020820152600a8201546001600160a01b039081166040830152600b90920154918216606082015260ff600160a01b8304811615156080830152600160a81b83048116151560a0830152600160b01b83048116151560c0830152600160b81b909204909116151560e0909101529392505050565b6127bc816001612e25565b9050612228565b8280546127cf90612e4b565b90600052602060002090601f0160209004810192826127f15760008555612837565b82601f1061280a57805160ff1916838001178555612837565b82800160010185558215612837579182015b8281111561283757825182559160200191906001019061281c565b506128439291506128d8565b5090565b6040518061016001604052806000815260200160608152602001606081526020016128a16040518060c001604052806060815260200160608152602001606081526020016060815260200160608152602001606081525090565b815260006020820181905260408201819052606082018190526080820181905260a0820181905260c0820181905260e09091015290565b5b8082111561284357600081556001016128d9565b80356001600160a01b0381168114611c9457600080fd5b80358015158114611c9457600080fd5b600082601f83011261292557600080fd5b813567ffffffffffffffff8082111561294057612940612e96565b604051601f8301601f19908116603f0116810190828211818310171561296857612968612e96565b8160405283815286602085880101111561298157600080fd5b836020870160208301376000602085830101528094505050505092915050565b6000602082840312156129b357600080fd5b6111e7826128ed565b600080604083850312156129cf57600080fd5b6129d8836128ed565b91506129e660208401612904565b90509250929050565b60008060008060008060008060006101208a8c031215612a0e57600080fd5b893567ffffffffffffffff80821115612a2657600080fd5b612a328d838e01612914565b9a5060208c0135915080821115612a4857600080fd5b612a548d838e01612914565b995060408c0135915080821115612a6a57600080fd5b612a768d838e01612914565b985060608c0135915080821115612a8c57600080fd5b612a988d838e01612914565b975060808c0135915080821115612aae57600080fd5b612aba8d838e01612914565b965060a08c0135915080821115612ad057600080fd5b612adc8d838e01612914565b955060c08c0135915080821115612af257600080fd5b612afe8d838e01612914565b945060e08c0135915080821115612b1457600080fd5b50612b218c828d01612914565b9250506101008a013590509295985092959850929598565b600060208284031215612b4b57600080fd5b5035919050565b60008060408385031215612b6557600080fd5b823591506129e660208401612904565b60008060008060808587031215612b8b57600080fd5b84359350602085013567ffffffffffffffff80821115612baa57600080fd5b612bb688838901612914565b94506040870135915080821115612bcc57600080fd5b50612bd987828801612914565b949793965093946060013593505050565b6000815180845260005b81811015612c1057602081850181015186830182015201612bf4565b81811115612c22576000602083870101525b50601f01601f19169290920160200192915050565b6000815160c08452612c4c60c0850182612bea565b905060208301518482036020860152612c658282612bea565b91505060408301518482036040860152612c7f8282612bea565b91505060608301518482036060860152612c998282612bea565b91505060808301518482036080860152612cb38282612bea565b91505060a083015184820360a0860152612ccd8282612bea565b95945050505050565b6000610160825184526020830151816020860152612cf682860182612bea565b91505060408301518482036040860152612d108282612bea565b91505060608301518482036060860152612d2a8282612c37565b9150506080830151608085015260a0830151612d5160a08601826001600160a01b03169052565b5060c0830151612d6c60c08601826001600160a01b03169052565b5060e0830151612d8060e086018215159052565b50610100838101511515908501526101208084015115159085015261014092830151151592909301919091525090565b6000602080830181845280855180835260408601915060408160051b870101925083870160005b82811015612e0557603f19888603018452612df3858351612cd6565b94509285019290850190600101612dd7565b5092979650505050505050565b6020815260006111e76020830184612cd6565b60008219821115612e4657634e487b7160e01b600052601160045260246000fd5b500190565b600181811c90821680612e5f57607f821691505b602082108114156103b057634e487b7160e01b600052602260045260246000fd5b634e487b7160e01b600052603260045260246000fd5b634e487b7160e01b600052604160045260246000fdfea264697066735822122009bc37b7bd2cc3f570c91c19f28a2ae33ab6f1a7f381f45bd4dbd43bb00280bf64736f6c63430008050033",
  "linkReferences": {},
  "deployedLinkReferences": {}
}