{
  "_format": "hh-sol-artifact-1",
  "contractName": "PropertyEscrow",
  "sourceName": "contracts/PropertyEscrow.sol",
  "abi": [
    {
      "inputs": [],
      "stateMutability": "nonpayable",
      "type": "constructor"
    },
    {
      "inputs": [
        {
          "internalType": "uint256",
          "name": "_id",
          "type": "uint256"
        }
      ],
      "name": "cancelListing",
      "outputs": [
        {
          "internalType": "bool",
          "name": "",
          "type": "bool"
        }
      ],
      "stateMutability": "nonpayable",
      "type": "function"
    },
    {
      "inputs": [
        {
          "internalType": "string",
          "name": "address1",
          "type": "string"
        },
        {
          "internalType": "string",
          "name": "address2",
          "type": "string"
        },
        {
          "internalType": "string",
          "name": "city",
          "type": "string"
        },
        {
          "internalType": "string",
          "name": "province",
          "type": "string"
        },
        {
          "internalType": "string",
          "name": "postcode",
          "type": "string"
        },
        {
          "internalType": "string",
          "name": "country",
          "type": "string"
        },
        {
          "internalType": "string",
          "name": "name",
          "type": "string"
        },
        {
          "internalType": "string",
          "name": "description",
          "type": "string"
        },
        {
          "internalType": "uint256",
          "name": "price",
          "type": "uint256"
        }
      ],
      "name": "createListing",
      "outputs": [
        {
          "internalType": "uint256",
          "name": "",
          "type": "uint256"
        }
      ],
      "stateMutability": "nonpayable",
      "type": "function"
    },
    {
      "inputs": [
        {
          "internalType": "uint256",
          "name": "_id",
          "type": "uint256"
        },
        {
          "internalType": "string",
          "name": "name",
          "type": "string"
        },
        {
          "internalType": "string",
          "name": "description",
          "type": "string"
        },
        {
          "internalType": "uint256",
          "name": "price",
          "type": "uint256"
        }
      ],
      "name": "editProperty",
      "outputs": [
        {
          "internalType": "bool",
          "name": "",
          "type": "bool"
        }
      ],
      "stateMutability": "nonpayable",
      "type": "function"
    },
    {
      "inputs": [
        {
          "internalType": "uint256",
          "name": "_id",
          "type": "uint256"
        }
      ],
      "name": "getPropertyDetail",
      "outputs": [
        {
          "components": [
            {
              "internalType": "uint256",
              "name": "id",
              "type": "uint256"
            },
            {
              "internalType": "string",
              "name": "name",
              "type": "string"
            },
            {
              "internalType": "string",
              "name": "description",
              "type": "string"
            },
            {
              "components": [
                {
                  "internalType": "string",
                  "name": "address1",
                  "type": "string"
                },
                {
                  "internalType": "string",
                  "name": "address2",
                  "type": "string"
                },
                {
                  "internalType": "string",
                  "name": "city",
                  "type": "string"
                },
                {
                  "internalType": "string",
                  "name": "province",
                  "type": "string"
                },
                {
                  "internalType": "string",
                  "name": "postcode",
                  "type": "string"
                },
                {
                  "internalType": "string",
                  "name": "country",
                  "type": "string"
                }
              ],
              "internalType": "struct PropertyEscrow.PropertyAddress",
              "name": "propertyAddress",
              "type": "tuple"
            },
            {
              "internalType": "uint256",
              "name": "price",
              "type": "uint256"
            },
            {
              "internalType": "address",
              "name": "owner",
              "type": "address"
            },
            {
              "internalType": "address",
              "name": "buyer",
              "type": "address"
            },
            {
              "internalType": "bool",
              "name": "isSold",
              "type": "bool"
            },
            {
              "internalType": "bool",
              "name": "onHold",
              "type": "bool"
            },
            {
              "internalType": "bool",
              "name": "isActive",
              "type": "bool"
            },
            {
              "internalType": "bool",
              "name": "isVerified",
              "type": "bool"
            }
          ],
          "internalType": "struct PropertyEscrow.Property",
          "name": "",
          "type": "tuple"
        }
      ],
      "stateMutability": "view",
      "type": "function"
    },
    {
      "inputs": [
        {
          "internalType": "uint256",
          "name": "_id",
          "type": "uint256"
        }
      ],
      "name": "getPropertyIsActive",
      "outputs": [
        {
          "internalType": "bool",
          "name": "",
          "type": "bool"
        }
      ],
      "stateMutability": "view",
      "type": "function"
    },
    {
      "inputs": [
        {
          "internalType": "uint256",
          "name": "_id",
          "type": "uint256"
        }
      ],
      "name": "getPropertyIsSold",
      "outputs": [
        {
          "internalType": "bool",
          "name": "",
          "type": "bool"
        }
      ],
      "stateMutability": "view",
      "type": "function"
    },
    {
      "inputs": [],
      "name": "getPropertyLength",
      "outputs": [
        {
          "internalType": "uint256",
          "name": "",
          "type": "uint256"
        }
      ],
      "stateMutability": "view",
      "type": "function"
    },
    {
      "inputs": [],
      "name": "getPropertyList",
      "outputs": [
        {
          "components": [
            {
              "internalType": "uint256",
              "name": "id",
              "type": "uint256"
            },
            {
              "internalType": "string",
              "name": "name",
              "type": "string"
            },
            {
              "internalType": "string",
              "name": "description",
              "type": "string"
            },
            {
              "components": [
                {
                  "internalType": "string",
                  "name": "address1",
                  "type": "string"
                },
                {
                  "internalType": "string",
                  "name": "address2",
                  "type": "string"
                },
                {
                  "internalType": "string",
                  "name": "city",
                  "type": "string"
                },
                {
                  "internalType": "string",
                  "name": "province",
                  "type": "string"
                },
                {
                  "internalType": "string",
                  "name": "postcode",
                  "type": "string"
                },
                {
                  "internalType": "string",
                  "name": "country",
                  "type": "string"
                }
              ],
              "internalType": "struct PropertyEscrow.PropertyAddress",
              "name": "propertyAddress",
              "type": "tuple"
            },
            {
              "internalType": "uint256",
              "name": "price",
              "type": "uint256"
            },
            {
              "internalType": "address",
              "name": "owner",
              "type": "address"
            },
            {
              "internalType": "address",
              "name": "buyer",
              "type": "address"
            },
            {
              "internalType": "bool",
              "name": "isSold",
              "type": "bool"
            },
            {
              "internalType": "bool",
              "name": "onHold",
              "type": "bool"
            },
            {
              "internalType": "bool",
              "name": "isActive",
              "type": "bool"
            },
            {
              "internalType": "bool",
              "name": "isVerified",
              "type": "bool"
            }
          ],
          "internalType": "struct PropertyEscrow.Property[]",
          "name": "",
          "type": "tuple[]"
        }
      ],
      "stateMutability": "view",
      "type": "function"
    },
    {
      "inputs": [
        {
          "internalType": "uint256",
          "name": "_id",
          "type": "uint256"
        }
      ],
      "name": "getPropertyPrice",
      "outputs": [
        {
          "internalType": "uint256",
          "name": "",
          "type": "uint256"
        }
      ],
      "stateMutability": "view",
      "type": "function"
    },
    {
      "inputs": [],
      "name": "getTotalAmountTransacted",
      "outputs": [
        {
          "internalType": "uint256",
          "name": "",
          "type": "uint256"
        }
      ],
      "stateMutability": "view",
      "type": "function"
    },
    {
      "inputs": [
        {
          "internalType": "address",
          "name": "manager",
          "type": "address"
        }
      ],
      "name": "isManager",
      "outputs": [
        {
          "internalType": "bool",
          "name": "",
          "type": "bool"
        }
      ],
      "stateMutability": "view",
      "type": "function"
    },
    {
      "inputs": [
        {
          "internalType": "uint256",
          "name": "_id",
          "type": "uint256"
        }
      ],
      "name": "payProperty",
      "outputs": [
        {
          "internalType": "bool",
          "name": "",
          "type": "bool"
        }
      ],
      "stateMutability": "payable",
      "type": "function"
    },
    {
      "inputs": [
        {
          "internalType": "address",
          "name": "manager",
          "type": "address"
        },
        {
          "internalType": "bool",
          "name": "state",
          "type": "bool"
        }
      ],
      "name": "setManager",
      "outputs": [
        {
          "internalType": "bool",
          "name": "",
          "type": "bool"
        }
      ],
      "stateMutability": "nonpayable",
      "type": "function"
    },
    {
      "inputs": [
        {
          "internalType": "uint256",
          "name": "_id",
          "type": "uint256"
        },
        {
          "internalType": "bool",
          "name": "_isVerified",
          "type": "bool"
        }
      ],
      "name": "setPropertyIsVerified",
      "outputs": [
        {
          "internalType": "bool",
          "name": "",
          "type": "bool"
        }
      ],
      "stateMutability": "nonpayable",
      "type": "function"
    }
  ],
  "bytecode": "0x608060405234801561001057600080fd5b50600180546001600160a01b0319163390811782556000908152602081905260409020805460ff1916821790556003556120eb8061004f6000396000f3fe6080604052600436106100dd5760003560e01c8063686c50e01161007f578063badf707b11610059578063badf707b1461023c578063c1a824801461024f578063f3ae24151461026f578063f600f3081461028f57600080fd5b8063686c50e0146101cf57806391397585146101ef578063a5e90eee1461021c57600080fd5b806325db3afa116100bb57806325db3afa1461015a578063305a67a81461017a57806344c31fcd1461019a57806355fcff1b146101af57600080fd5b80630789752c146100e25780630b4a348c1461011557806321977f6c1461012a575b600080fd5b3480156100ee57600080fd5b506101026100fd366004611d42565b6102b1565b6040519081526020015b60405180910390f35b34801561012157600080fd5b506101026102c8565b34801561013657600080fd5b5061014a610145366004611d42565b610360565b604051901515815260200161010c565b34801561016657600080fd5b5061014a610175366004611d7e565b610377565b34801561018657600080fd5b5061014a610195366004611d42565b610618565b3480156101a657600080fd5b50600254610102565b3480156101bb57600080fd5b506101026101ca366004611bf8565b610726565b3480156101db57600080fd5b5061014a6101ea366004611d5b565b6109bb565b3480156101fb57600080fd5b5061020f61020a366004611d42565b610aad565b60405161010c919061201b565b34801561022857600080fd5b5061014a610237366004611bc5565b610ac7565b61014a61024a366004611d42565b610b4c565b34801561025b57600080fd5b5061014a61026a366004611d42565b610e0c565b34801561027b57600080fd5b5061014a61028a366004611baa565b610e24565b34801561029b57600080fd5b506102a4610ea2565b60405161010c9190611fb9565b6000806102bd83611426565b608001519392505050565b600080805b60025481101561035a57600281815481106102ea576102ea612089565b90600052602060002090600c0201600b0160149054906101000a900460ff161515600115151415610348576002818154811061032857610328612089565b90600052602060002090600c02016009015482610345919061202e565b91505b61035381600161202e565b90506102cd565b50919050565b60008061036c83611426565b60e001519392505050565b600084600061038582611426565b90508060a001516001600160a01b0316336001600160a01b0316146103f15760405162461bcd60e51b815260206004820152601f60248201527f4f6e6c792070726f7065727479206f776e65722063616e20657865637574650060448201526064015b60405180910390fd5b60005b6002548110156105d057876002828154811061041257610412612089565b90600052602060002090600c02016000015414156105be576002818154811061043d5761043d612089565b90600052602060002090600c0201600b0160169054906101000a900460ff16151560011515146104a85760405162461bcd60e51b815260206004820152601660248201527550726f7065727479206973206e6f742061637469766560501b60448201526064016103e8565b600281815481106104bb576104bb612089565b60009182526020909120600c90910201600b0154600160a01b900460ff16156105195760405162461bcd60e51b815260206004820152601060248201526f141c9bdc195c9d1e481a5cc81cdbdb1960821b60448201526064016103e8565b866002828154811061052d5761052d612089565b90600052602060002090600c020160010190805190602001906105519291906119cc565b50856002828154811061056657610566612089565b90600052602060002090600c0201600201908051906020019061058a9291906119cc565b50846002828154811061059f5761059f612089565b90600052602060002090600c020160090181905550600193505061060e565b6105c981600161202e565b90506103f4565b5060405162461bcd60e51b8152602060048201526012602482015271141c9bdc195c9d1e481b9bdd08199bdd5b9960721b60448201526064016103e8565b5050949350505050565b600081600061062682611426565b90508060a001516001600160a01b0316336001600160a01b03161461068d5760405162461bcd60e51b815260206004820152601f60248201527f4f6e6c792070726f7065727479206f776e65722063616e20657865637574650060448201526064016103e8565b60005b6002548110156105d05784600282815481106106ae576106ae612089565b90600052602060002090600c020160000154141561070d576000600282815481106106db576106db612089565b90600052602060002090600c0201600b0160166101000a81548160ff021916908315150217905550600193505061071f565b61071881600161202e565b9050610690565b5050919050565b6040805160c080820183528b825260208083018c90528284018b905260608084018b905260808085018b905260a08086018b905286516101608101885260035481528085018b81529781018a90529283018690529082018790523390820152600092810183905260e081018390526101008101839052600161012082018190526101408201849052600280549182018155845281517f405787fa12a823e0f2b7631cc41b3ba8828b3321ca811111fa75cd3aa3bb5ace600c9092029182019081559551805194969294859461081f937f405787fa12a823e0f2b7631cc41b3ba8828b3321ca811111fa75cd3aa3bb5acf019201906119cc565b506040820151805161083b9160028401916020909101906119cc565b506060820151805180516003840191610859918391602001906119cc565b50602082810151805161087292600185019201906119cc565b506040820151805161088e9160028401916020909101906119cc565b50606082015180516108aa9160038401916020909101906119cc565b50608082015180516108c69160048401916020909101906119cc565b5060a082015180516108e29160058401916020909101906119cc565b5050506080820151600982015560a0820151600a820180546001600160a01b039283166001600160a01b031990911617905560c0830151600b909201805460e0850151610100860151610120870151610140909701511515600160b81b0260ff60b81b19971515600160b01b0260ff60b01b19921515600160a81b029290921661ffff60a81b19931515600160a01b026001600160a81b0319909516979096169690961792909217169290921791909117929092161790556003546109a890600161202e565b600355519b9a5050505050505050505050565b3360009081526020819052604081205460ff16610a165760405162461bcd60e51b81526020600482015260196024820152784f6e6c79206d616e61676572732063616e206578656375746560381b60448201526064016103e8565b60005b6002548110156105d0578360028281548110610a3757610a37612089565b90600052602060002090600c0201600001541415610a95578260028281548110610a6357610a63612089565b90600052602060002090600c0201600b0160176101000a81548160ff0219169083151502179055506001915050610aa7565b610aa081600161202e565b9050610a19565b92915050565b610ab5611a50565b6000610ac083611426565b9392505050565b6001546000906001600160a01b03163314610b1d5760405162461bcd60e51b81526020600482015260166024820152754f6e6c79206f776e65722063616e206578656375746560501b60448201526064016103e8565b506001600160a01b0382166000908152602081905260409020805482151560ff19909116179055600192915050565b6000805b6002548110156105d0578260028281548110610b6e57610b6e612089565b90600052602060002090600c0201600001541415610dfa5760028181548110610b9957610b99612089565b60009182526020909120600c90910201600a01546001600160a01b0316331415610c055760405162461bcd60e51b815260206004820152601c60248201527f43616e6e6f74207075726368617365206f776e2070726f70657274790000000060448201526064016103e8565b60028181548110610c1857610c18612089565b90600052602060002090600c0201600901543414610c935760405162461bcd60e51b815260206004820152603260248201527f5472616e73616374696f6e20616d6f756e7420646f6573206e6f7420657175616044820152711b081d1bc8185cdada5b99c8185b5bdd5b9d60721b60648201526084016103e8565b600160028281548110610ca857610ca8612089565b90600052602060002090600c0201600b0160146101000a81548160ff021916908315150217905550600060028281548110610ce557610ce5612089565b90600052602060002090600c0201600b0160166101000a81548160ff0219169083151502179055503360028281548110610d2157610d21612089565b90600052602060002090600c0201600b0160006101000a8154816001600160a01b0302191690836001600160a01b03160217905550600060028281548110610d6b57610d6b612089565b90600052602060002090600c0201600a0160009054906101000a90046001600160a01b03169050806001600160a01b03166108fc60028481548110610db257610db2612089565b90600052602060002090600c0201600901549081150290604051600060405180830381858888f19350505050158015610def573d6000803e3d6000fd5b506001949350505050565b610e0581600161202e565b9050610b50565b600080610e1883611426565b61012001519392505050565b3360009081526020819052604081205460ff16610e7f5760405162461bcd60e51b81526020600482015260196024820152784f6e6c79206d616e61676572732063616e206578656375746560381b60448201526064016103e8565b506001600160a01b03811660009081526020819052604090205460ff165b919050565b60606002805480602002602001604051908101604052809291908181526020016000905b8282101561141d57838290600052602060002090600c02016040518061016001604052908160008201548152602001600182018054610f0490612054565b80601f0160208091040260200160405190810160405280929190818152602001828054610f3090612054565b8015610f7d5780601f10610f5257610100808354040283529160200191610f7d565b820191906000526020600020905b815481529060010190602001808311610f6057829003601f168201915b50505050508152602001600282018054610f9690612054565b80601f0160208091040260200160405190810160405280929190818152602001828054610fc290612054565b801561100f5780601f10610fe45761010080835404028352916020019161100f565b820191906000526020600020905b815481529060010190602001808311610ff257829003601f168201915b50505050508152602001600382016040518060c001604052908160008201805461103890612054565b80601f016020809104026020016040519081016040528092919081815260200182805461106490612054565b80156110b15780601f10611086576101008083540402835291602001916110b1565b820191906000526020600020905b81548152906001019060200180831161109457829003601f168201915b505050505081526020016001820180546110ca90612054565b80601f01602080910402602001604051908101604052809291908181526020018280546110f690612054565b80156111435780601f1061111857610100808354040283529160200191611143565b820191906000526020600020905b81548152906001019060200180831161112657829003601f168201915b5050505050815260200160028201805461115c90612054565b80601f016020809104026020016040519081016040528092919081815260200182805461118890612054565b80156111d55780601f106111aa576101008083540402835291602001916111d5565b820191906000526020600020905b8154815290600101906020018083116111b857829003601f168201915b505050505081526020016003820180546111ee90612054565b80601f016020809104026020016040519081016040528092919081815260200182805461121a90612054565b80156112675780601f1061123c57610100808354040283529160200191611267565b820191906000526020600020905b81548152906001019060200180831161124a57829003601f168201915b5050505050815260200160048201805461128090612054565b80601f01602080910402602001604051908101604052809291908181526020018280546112ac90612054565b80156112f95780601f106112ce576101008083540402835291602001916112f9565b820191906000526020600020905b8154815290600101906020018083116112dc57829003601f168201915b5050505050815260200160058201805461131290612054565b80601f016020809104026020016040519081016040528092919081815260200182805461133e90612054565b801561138b5780601f106113605761010080835404028352916020019161138b565b820191906000526020600020905b81548152906001019060200180831161136e57829003601f168201915b5050509190925250505081526009820154602080830191909152600a8301546001600160a01b039081166040840152600b90930154928316606083015260ff600160a01b8404811615156080840152600160a81b84048116151560a0840152600160b01b84048116151560c0840152600160b81b909304909216151560e0909101529082526001929092019101610ec6565b50505050905090565b61142e611a50565b60005b6002548110156105d057826002828154811061144f5761144f612089565b90600052602060002090600c02016000015414156119ba576002818154811061147a5761147a612089565b90600052602060002090600c020160405180610160016040529081600082015481526020016001820180546114ae90612054565b80601f01602080910402602001604051908101604052809291908181526020018280546114da90612054565b80156115275780601f106114fc57610100808354040283529160200191611527565b820191906000526020600020905b81548152906001019060200180831161150a57829003601f168201915b5050505050815260200160028201805461154090612054565b80601f016020809104026020016040519081016040528092919081815260200182805461156c90612054565b80156115b95780601f1061158e576101008083540402835291602001916115b9565b820191906000526020600020905b81548152906001019060200180831161159c57829003601f168201915b50505050508152602001600382016040518060c00160405290816000820180546115e290612054565b80601f016020809104026020016040519081016040528092919081815260200182805461160e90612054565b801561165b5780601f106116305761010080835404028352916020019161165b565b820191906000526020600020905b81548152906001019060200180831161163e57829003601f168201915b5050505050815260200160018201805461167490612054565b80601f01602080910402602001604051908101604052809291908181526020018280546116a090612054565b80156116ed5780601f106116c2576101008083540402835291602001916116ed565b820191906000526020600020905b8154815290600101906020018083116116d057829003601f168201915b5050505050815260200160028201805461170690612054565b80601f016020809104026020016040519081016040528092919081815260200182805461173290612054565b801561177f5780601f106117545761010080835404028352916020019161177f565b820191906000526020600020905b81548152906001019060200180831161176257829003601f168201915b5050505050815260200160038201805461179890612054565b80601f01602080910402602001604051908101604052809291908181526020018280546117c490612054565b80156118115780601f106117e657610100808354040283529160200191611811565b820191906000526020600020905b8154815290600101906020018083116117f457829003601f168201915b5050505050815260200160048201805461182a90612054565b80601f016020809104026020016040519081016040528092919081815260200182805461185690612054565b80156118a35780601f10611878576101008083540402835291602001916118a3565b820191906000526020600020905b81548152906001019060200180831161188657829003601f168201915b505050505081526020016005820180546118bc90612054565b80601f01602080910402602001604051908101604052809291908181526020018280546118e890612054565b80156119355780601f1061190a57610100808354040283529160200191611935565b820191906000526020600020905b81548152906001019060200180831161191857829003601f168201915b50505091909252505050815260098201546020820152600a8201546001600160a01b039081166040830152600b90920154918216606082015260ff600160a01b8304811615156080830152600160a81b83048116151560a0830152600160b01b83048116151560c0830152600160b81b909204909116151560e0909101529392505050565b6119c581600161202e565b9050611431565b8280546119d890612054565b90600052602060002090601f0160209004810192826119fa5760008555611a40565b82601f10611a1357805160ff1916838001178555611a40565b82800160010185558215611a40579182015b82811115611a40578251825591602001919060010190611a25565b50611a4c929150611ae1565b5090565b604051806101600160405280600081526020016060815260200160608152602001611aaa6040518060c001604052806060815260200160608152602001606081526020016060815260200160608152602001606081525090565b815260006020820181905260408201819052606082018190526080820181905260a0820181905260c0820181905260e09091015290565b5b80821115611a4c5760008155600101611ae2565b80356001600160a01b0381168114610e9d57600080fd5b80358015158114610e9d57600080fd5b600082601f830112611b2e57600080fd5b813567ffffffffffffffff80821115611b4957611b4961209f565b604051601f8301601f19908116603f01168101908282118183101715611b7157611b7161209f565b81604052838152866020858801011115611b8a57600080fd5b836020870160208301376000602085830101528094505050505092915050565b600060208284031215611bbc57600080fd5b610ac082611af6565b60008060408385031215611bd857600080fd5b611be183611af6565b9150611bef60208401611b0d565b90509250929050565b60008060008060008060008060006101208a8c031215611c1757600080fd5b893567ffffffffffffffff80821115611c2f57600080fd5b611c3b8d838e01611b1d565b9a5060208c0135915080821115611c5157600080fd5b611c5d8d838e01611b1d565b995060408c0135915080821115611c7357600080fd5b611c7f8d838e01611b1d565b985060608c0135915080821115611c9557600080fd5b611ca18d838e01611b1d565b975060808c0135915080821115611cb757600080fd5b611cc38d838e01611b1d565b965060a08c0135915080821115611cd957600080fd5b611ce58d838e01611b1d565b955060c08c0135915080821115611cfb57600080fd5b611d078d838e01611b1d565b945060e08c0135915080821115611d1d57600080fd5b50611d2a8c828d01611b1d565b9250506101008a013590509295985092959850929598565b600060208284031215611d5457600080fd5b5035919050565b60008060408385031215611d6e57600080fd5b82359150611bef60208401611b0d565b60008060008060808587031215611d9457600080fd5b84359350602085013567ffffffffffffffff80821115611db357600080fd5b611dbf88838901611b1d565b94506040870135915080821115611dd557600080fd5b50611de287828801611b1d565b949793965093946060013593505050565b6000815180845260005b81811015611e1957602081850181015186830182015201611dfd565b81811115611e2b576000602083870101525b50601f01601f19169290920160200192915050565b6000815160c08452611e5560c0850182611df3565b905060208301518482036020860152611e6e8282611df3565b91505060408301518482036040860152611e888282611df3565b91505060608301518482036060860152611ea28282611df3565b91505060808301518482036080860152611ebc8282611df3565b91505060a083015184820360a0860152611ed68282611df3565b95945050505050565b6000610160825184526020830151816020860152611eff82860182611df3565b91505060408301518482036040860152611f198282611df3565b91505060608301518482036060860152611f338282611e40565b9150506080830151608085015260a0830151611f5a60a08601826001600160a01b03169052565b5060c0830151611f7560c08601826001600160a01b03169052565b5060e0830151611f8960e086018215159052565b50610100838101511515908501526101208084015115159085015261014092830151151592909301919091525090565b6000602080830181845280855180835260408601915060408160051b870101925083870160005b8281101561200e57603f19888603018452611ffc858351611edf565b94509285019290850190600101611fe0565b5092979650505050505050565b602081526000610ac06020830184611edf565b6000821982111561204f57634e487b7160e01b600052601160045260246000fd5b500190565b600181811c9082168061206857607f821691505b6020821081141561035a57634e487b7160e01b600052602260045260246000fd5b634e487b7160e01b600052603260045260246000fd5b634e487b7160e01b600052604160045260246000fdfea264697066735822122085da23d950fcea3ce1ea6f295778c8c06ce38bdd338d462c3dd032252a6e072164736f6c63430008050033",
  "linkReferences": {},
  "deployedLinkReferences": {}
}