{
  "_format": "hh-sol-artifact-1",
  "contractName": "PropertyEscrow",
  "sourceName": "contracts/PropertyEscrow.sol",
  "abi": [
    {
      "inputs": [],
      "stateMutability": "nonpayable",
      "type": "constructor"
    },
    {
      "inputs": [
        {
          "internalType": "uint256",
          "name": "_id",
          "type": "uint256"
        }
      ],
      "name": "cancelListing",
      "outputs": [
        {
          "internalType": "bool",
          "name": "",
          "type": "bool"
        }
      ],
      "stateMutability": "nonpayable",
      "type": "function"
    },
    {
      "inputs": [
        {
          "internalType": "string",
          "name": "address1",
          "type": "string"
        },
        {
          "internalType": "string",
          "name": "address2",
          "type": "string"
        },
        {
          "internalType": "string",
          "name": "city",
          "type": "string"
        },
        {
          "internalType": "string",
          "name": "province",
          "type": "string"
        },
        {
          "internalType": "string",
          "name": "postcode",
          "type": "string"
        },
        {
          "internalType": "string",
          "name": "country",
          "type": "string"
        },
        {
          "internalType": "string",
          "name": "name",
          "type": "string"
        },
        {
          "internalType": "string",
          "name": "description",
          "type": "string"
        },
        {
          "internalType": "uint256",
          "name": "price",
          "type": "uint256"
        }
      ],
      "name": "createListing",
      "outputs": [
        {
          "internalType": "uint256",
          "name": "",
          "type": "uint256"
        }
      ],
      "stateMutability": "nonpayable",
      "type": "function"
    },
    {
      "inputs": [
        {
          "internalType": "uint256",
          "name": "_id",
          "type": "uint256"
        }
      ],
      "name": "getPropertyDetail",
      "outputs": [
        {
          "components": [
            {
              "internalType": "uint256",
              "name": "id",
              "type": "uint256"
            },
            {
              "internalType": "string",
              "name": "name",
              "type": "string"
            },
            {
              "internalType": "string",
              "name": "description",
              "type": "string"
            },
            {
              "components": [
                {
                  "internalType": "string",
                  "name": "address1",
                  "type": "string"
                },
                {
                  "internalType": "string",
                  "name": "address2",
                  "type": "string"
                },
                {
                  "internalType": "string",
                  "name": "city",
                  "type": "string"
                },
                {
                  "internalType": "string",
                  "name": "province",
                  "type": "string"
                },
                {
                  "internalType": "string",
                  "name": "postcode",
                  "type": "string"
                },
                {
                  "internalType": "string",
                  "name": "country",
                  "type": "string"
                }
              ],
              "internalType": "struct PropertyEscrow.PropertyAddress",
              "name": "propertyAddress",
              "type": "tuple"
            },
            {
              "internalType": "uint256",
              "name": "price",
              "type": "uint256"
            },
            {
              "internalType": "address",
              "name": "owner",
              "type": "address"
            },
            {
              "internalType": "address",
              "name": "buyer",
              "type": "address"
            },
            {
              "internalType": "bool",
              "name": "isSold",
              "type": "bool"
            },
            {
              "internalType": "bool",
              "name": "onHold",
              "type": "bool"
            },
            {
              "internalType": "bool",
              "name": "isActive",
              "type": "bool"
            },
            {
              "internalType": "bool",
              "name": "isVerified",
              "type": "bool"
            }
          ],
          "internalType": "struct PropertyEscrow.Property",
          "name": "",
          "type": "tuple"
        }
      ],
      "stateMutability": "view",
      "type": "function"
    },
    {
      "inputs": [
        {
          "internalType": "uint256",
          "name": "_id",
          "type": "uint256"
        }
      ],
      "name": "getPropertyIsActive",
      "outputs": [
        {
          "internalType": "bool",
          "name": "",
          "type": "bool"
        }
      ],
      "stateMutability": "view",
      "type": "function"
    },
    {
      "inputs": [
        {
          "internalType": "uint256",
          "name": "_id",
          "type": "uint256"
        }
      ],
      "name": "getPropertyIsSold",
      "outputs": [
        {
          "internalType": "bool",
          "name": "",
          "type": "bool"
        }
      ],
      "stateMutability": "view",
      "type": "function"
    },
    {
      "inputs": [],
      "name": "getPropertyLength",
      "outputs": [
        {
          "internalType": "uint256",
          "name": "",
          "type": "uint256"
        }
      ],
      "stateMutability": "view",
      "type": "function"
    },
    {
      "inputs": [],
      "name": "getPropertyList",
      "outputs": [
        {
          "components": [
            {
              "internalType": "uint256",
              "name": "id",
              "type": "uint256"
            },
            {
              "internalType": "string",
              "name": "name",
              "type": "string"
            },
            {
              "internalType": "string",
              "name": "description",
              "type": "string"
            },
            {
              "components": [
                {
                  "internalType": "string",
                  "name": "address1",
                  "type": "string"
                },
                {
                  "internalType": "string",
                  "name": "address2",
                  "type": "string"
                },
                {
                  "internalType": "string",
                  "name": "city",
                  "type": "string"
                },
                {
                  "internalType": "string",
                  "name": "province",
                  "type": "string"
                },
                {
                  "internalType": "string",
                  "name": "postcode",
                  "type": "string"
                },
                {
                  "internalType": "string",
                  "name": "country",
                  "type": "string"
                }
              ],
              "internalType": "struct PropertyEscrow.PropertyAddress",
              "name": "propertyAddress",
              "type": "tuple"
            },
            {
              "internalType": "uint256",
              "name": "price",
              "type": "uint256"
            },
            {
              "internalType": "address",
              "name": "owner",
              "type": "address"
            },
            {
              "internalType": "address",
              "name": "buyer",
              "type": "address"
            },
            {
              "internalType": "bool",
              "name": "isSold",
              "type": "bool"
            },
            {
              "internalType": "bool",
              "name": "onHold",
              "type": "bool"
            },
            {
              "internalType": "bool",
              "name": "isActive",
              "type": "bool"
            },
            {
              "internalType": "bool",
              "name": "isVerified",
              "type": "bool"
            }
          ],
          "internalType": "struct PropertyEscrow.Property[]",
          "name": "",
          "type": "tuple[]"
        }
      ],
      "stateMutability": "view",
      "type": "function"
    },
    {
      "inputs": [
        {
          "internalType": "uint256",
          "name": "_id",
          "type": "uint256"
        }
      ],
      "name": "getPropertyPrice",
      "outputs": [
        {
          "internalType": "uint256",
          "name": "",
          "type": "uint256"
        }
      ],
      "stateMutability": "view",
      "type": "function"
    },
    {
      "inputs": [
        {
          "internalType": "address",
          "name": "manager",
          "type": "address"
        }
      ],
      "name": "isManager",
      "outputs": [
        {
          "internalType": "bool",
          "name": "",
          "type": "bool"
        }
      ],
      "stateMutability": "view",
      "type": "function"
    },
    {
      "inputs": [
        {
          "internalType": "uint256",
          "name": "_id",
          "type": "uint256"
        }
      ],
      "name": "payProperty",
      "outputs": [
        {
          "internalType": "bool",
          "name": "",
          "type": "bool"
        }
      ],
      "stateMutability": "payable",
      "type": "function"
    },
    {
      "inputs": [
        {
          "internalType": "address",
          "name": "manager",
          "type": "address"
        },
        {
          "internalType": "bool",
          "name": "state",
          "type": "bool"
        }
      ],
      "name": "setManager",
      "outputs": [
        {
          "internalType": "bool",
          "name": "",
          "type": "bool"
        }
      ],
      "stateMutability": "nonpayable",
      "type": "function"
    },
    {
      "inputs": [
        {
          "internalType": "uint256",
          "name": "_id",
          "type": "uint256"
        },
        {
          "internalType": "bool",
          "name": "_isVerified",
          "type": "bool"
        }
      ],
      "name": "setPropertyIsVerified",
      "outputs": [
        {
          "internalType": "bool",
          "name": "",
          "type": "bool"
        }
      ],
      "stateMutability": "nonpayable",
      "type": "function"
    }
  ],
  "bytecode": "0x608060405234801561001057600080fd5b50600180546001600160a01b0319163390811782556000908152602081905260409020805460ff191682179055600355611d1b8061004f6000396000f3fe6080604052600436106100a75760003560e01c806391397585116100645780639139758514610184578063a5e90eee146101b1578063badf707b146101d1578063c1a82480146101e4578063f3ae241514610204578063f600f3081461022457600080fd5b80630789752c146100ac57806321977f6c146100df578063305a67a81461010f57806344c31fcd1461012f57806355fcff1b14610144578063686c50e014610164575b600080fd5b3480156100b857600080fd5b506100cc6100c73660046119e1565b610246565b6040519081526020015b60405180910390f35b3480156100eb57600080fd5b506100ff6100fa3660046119e1565b61025d565b60405190151581526020016100d6565b34801561011b57600080fd5b506100ff61012a3660046119e1565b610274565b34801561013b57600080fd5b506002546100cc565b34801561015057600080fd5b506100cc61015f366004611897565b6103c5565b34801561017057600080fd5b506100ff61017f3660046119fa565b61065a565b34801561019057600080fd5b506101a461019f3660046119e1565b61074c565b6040516100d69190611c45565b3480156101bd57600080fd5b506100ff6101cc366004611864565b610766565b6100ff6101df3660046119e1565b6107eb565b3480156101f057600080fd5b506100ff6101ff3660046119e1565b610aab565b34801561021057600080fd5b506100ff61021f366004611849565b610ac3565b34801561023057600080fd5b50610239610b41565b6040516100d69190611be3565b600080610252836110c5565b608001519392505050565b600080610269836110c5565b60e001519392505050565b6000816000610282826110c5565b90508060a001516001600160a01b0316336001600160a01b0316146102ee5760405162461bcd60e51b815260206004820152601f60248201527f4f6e6c792070726f7065727479206f776e65722063616e20657865637574650060448201526064015b60405180910390fd5b60005b60025481101561038057846002828154811061030f5761030f611cb9565b90600052602060002090600c020160000154141561036e5760006002828154811061033c5761033c611cb9565b90600052602060002090600c0201600b0160166101000a81548160ff02191690831515021790555060019350506103be565b610379816001611c58565b90506102f1565b5060405162461bcd60e51b8152602060048201526012602482015271141c9bdc195c9d1e481b9bdd08199bdd5b9960721b60448201526064016102e5565b5050919050565b6040805160c080820183528b825260208083018c90528284018b905260608084018b905260808085018b905260a08086018b905286516101608101885260035481528085018b81529781018a90529283018690529082018790523390820152600092810183905260e081018390526101008101839052600161012082018190526101408201849052600280549182018155845281517f405787fa12a823e0f2b7631cc41b3ba8828b3321ca811111fa75cd3aa3bb5ace600c909202918201908155955180519496929485946104be937f405787fa12a823e0f2b7631cc41b3ba8828b3321ca811111fa75cd3aa3bb5acf0192019061166b565b50604082015180516104da91600284019160209091019061166b565b5060608201518051805160038401916104f89183916020019061166b565b506020828101518051610511926001850192019061166b565b506040820151805161052d91600284019160209091019061166b565b506060820151805161054991600384019160209091019061166b565b506080820151805161056591600484019160209091019061166b565b5060a0820151805161058191600584019160209091019061166b565b5050506080820151600982015560a0820151600a820180546001600160a01b039283166001600160a01b031990911617905560c0830151600b909201805460e0850151610100860151610120870151610140909701511515600160b81b0260ff60b81b19971515600160b01b0260ff60b01b19921515600160a81b029290921661ffff60a81b19931515600160a01b026001600160a81b031990951697909616969096179290921716929092179190911792909216179055600354610647906001611c58565b600355519b9a5050505050505050505050565b3360009081526020819052604081205460ff166106b55760405162461bcd60e51b81526020600482015260196024820152784f6e6c79206d616e61676572732063616e206578656375746560381b60448201526064016102e5565b60005b6002548110156103805783600282815481106106d6576106d6611cb9565b90600052602060002090600c020160000154141561073457826002828154811061070257610702611cb9565b90600052602060002090600c0201600b0160176101000a81548160ff0219169083151502179055506001915050610746565b61073f816001611c58565b90506106b8565b92915050565b6107546116ef565b600061075f836110c5565b9392505050565b6001546000906001600160a01b031633146107bc5760405162461bcd60e51b81526020600482015260166024820152754f6e6c79206f776e65722063616e206578656375746560501b60448201526064016102e5565b506001600160a01b0382166000908152602081905260409020805482151560ff19909116179055600192915050565b6000805b60025481101561038057826002828154811061080d5761080d611cb9565b90600052602060002090600c0201600001541415610a99576002818154811061083857610838611cb9565b60009182526020909120600c90910201600a01546001600160a01b03163314156108a45760405162461bcd60e51b815260206004820152601c60248201527f43616e6e6f74207075726368617365206f776e2070726f70657274790000000060448201526064016102e5565b600281815481106108b7576108b7611cb9565b90600052602060002090600c02016009015434146109325760405162461bcd60e51b815260206004820152603260248201527f5472616e73616374696f6e20616d6f756e7420646f6573206e6f7420657175616044820152711b081d1bc8185cdada5b99c8185b5bdd5b9d60721b60648201526084016102e5565b60016002828154811061094757610947611cb9565b90600052602060002090600c0201600b0160146101000a81548160ff02191690831515021790555060006002828154811061098457610984611cb9565b90600052602060002090600c0201600b0160166101000a81548160ff02191690831515021790555033600282815481106109c0576109c0611cb9565b90600052602060002090600c0201600b0160006101000a8154816001600160a01b0302191690836001600160a01b03160217905550600060028281548110610a0a57610a0a611cb9565b90600052602060002090600c0201600a0160009054906101000a90046001600160a01b03169050806001600160a01b03166108fc60028481548110610a5157610a51611cb9565b90600052602060002090600c0201600901549081150290604051600060405180830381858888f19350505050158015610a8e573d6000803e3d6000fd5b506001949350505050565b610aa4816001611c58565b90506107ef565b600080610ab7836110c5565b61012001519392505050565b3360009081526020819052604081205460ff16610b1e5760405162461bcd60e51b81526020600482015260196024820152784f6e6c79206d616e61676572732063616e206578656375746560381b60448201526064016102e5565b506001600160a01b03811660009081526020819052604090205460ff165b919050565b60606002805480602002602001604051908101604052809291908181526020016000905b828210156110bc57838290600052602060002090600c02016040518061016001604052908160008201548152602001600182018054610ba390611c7e565b80601f0160208091040260200160405190810160405280929190818152602001828054610bcf90611c7e565b8015610c1c5780601f10610bf157610100808354040283529160200191610c1c565b820191906000526020600020905b815481529060010190602001808311610bff57829003601f168201915b50505050508152602001600282018054610c3590611c7e565b80601f0160208091040260200160405190810160405280929190818152602001828054610c6190611c7e565b8015610cae5780601f10610c8357610100808354040283529160200191610cae565b820191906000526020600020905b815481529060010190602001808311610c9157829003601f168201915b50505050508152602001600382016040518060c0016040529081600082018054610cd790611c7e565b80601f0160208091040260200160405190810160405280929190818152602001828054610d0390611c7e565b8015610d505780601f10610d2557610100808354040283529160200191610d50565b820191906000526020600020905b815481529060010190602001808311610d3357829003601f168201915b50505050508152602001600182018054610d6990611c7e565b80601f0160208091040260200160405190810160405280929190818152602001828054610d9590611c7e565b8015610de25780601f10610db757610100808354040283529160200191610de2565b820191906000526020600020905b815481529060010190602001808311610dc557829003601f168201915b50505050508152602001600282018054610dfb90611c7e565b80601f0160208091040260200160405190810160405280929190818152602001828054610e2790611c7e565b8015610e745780601f10610e4957610100808354040283529160200191610e74565b820191906000526020600020905b815481529060010190602001808311610e5757829003601f168201915b50505050508152602001600382018054610e8d90611c7e565b80601f0160208091040260200160405190810160405280929190818152602001828054610eb990611c7e565b8015610f065780601f10610edb57610100808354040283529160200191610f06565b820191906000526020600020905b815481529060010190602001808311610ee957829003601f168201915b50505050508152602001600482018054610f1f90611c7e565b80601f0160208091040260200160405190810160405280929190818152602001828054610f4b90611c7e565b8015610f985780601f10610f6d57610100808354040283529160200191610f98565b820191906000526020600020905b815481529060010190602001808311610f7b57829003601f168201915b50505050508152602001600582018054610fb190611c7e565b80601f0160208091040260200160405190810160405280929190818152602001828054610fdd90611c7e565b801561102a5780601f10610fff5761010080835404028352916020019161102a565b820191906000526020600020905b81548152906001019060200180831161100d57829003601f168201915b5050509190925250505081526009820154602080830191909152600a8301546001600160a01b039081166040840152600b90930154928316606083015260ff600160a01b8404811615156080840152600160a81b84048116151560a0840152600160b01b84048116151560c0840152600160b81b909304909216151560e0909101529082526001929092019101610b65565b50505050905090565b6110cd6116ef565b60005b6002548110156103805782600282815481106110ee576110ee611cb9565b90600052602060002090600c0201600001541415611659576002818154811061111957611119611cb9565b90600052602060002090600c0201604051806101600160405290816000820154815260200160018201805461114d90611c7e565b80601f016020809104026020016040519081016040528092919081815260200182805461117990611c7e565b80156111c65780601f1061119b576101008083540402835291602001916111c6565b820191906000526020600020905b8154815290600101906020018083116111a957829003601f168201915b505050505081526020016002820180546111df90611c7e565b80601f016020809104026020016040519081016040528092919081815260200182805461120b90611c7e565b80156112585780601f1061122d57610100808354040283529160200191611258565b820191906000526020600020905b81548152906001019060200180831161123b57829003601f168201915b50505050508152602001600382016040518060c001604052908160008201805461128190611c7e565b80601f01602080910402602001604051908101604052809291908181526020018280546112ad90611c7e565b80156112fa5780601f106112cf576101008083540402835291602001916112fa565b820191906000526020600020905b8154815290600101906020018083116112dd57829003601f168201915b5050505050815260200160018201805461131390611c7e565b80601f016020809104026020016040519081016040528092919081815260200182805461133f90611c7e565b801561138c5780601f106113615761010080835404028352916020019161138c565b820191906000526020600020905b81548152906001019060200180831161136f57829003601f168201915b505050505081526020016002820180546113a590611c7e565b80601f01602080910402602001604051908101604052809291908181526020018280546113d190611c7e565b801561141e5780601f106113f35761010080835404028352916020019161141e565b820191906000526020600020905b81548152906001019060200180831161140157829003601f168201915b5050505050815260200160038201805461143790611c7e565b80601f016020809104026020016040519081016040528092919081815260200182805461146390611c7e565b80156114b05780601f10611485576101008083540402835291602001916114b0565b820191906000526020600020905b81548152906001019060200180831161149357829003601f168201915b505050505081526020016004820180546114c990611c7e565b80601f01602080910402602001604051908101604052809291908181526020018280546114f590611c7e565b80156115425780601f1061151757610100808354040283529160200191611542565b820191906000526020600020905b81548152906001019060200180831161152557829003601f168201915b5050505050815260200160058201805461155b90611c7e565b80601f016020809104026020016040519081016040528092919081815260200182805461158790611c7e565b80156115d45780601f106115a9576101008083540402835291602001916115d4565b820191906000526020600020905b8154815290600101906020018083116115b757829003601f168201915b50505091909252505050815260098201546020820152600a8201546001600160a01b039081166040830152600b90920154918216606082015260ff600160a01b8304811615156080830152600160a81b83048116151560a0830152600160b01b83048116151560c0830152600160b81b909204909116151560e0909101529392505050565b611664816001611c58565b90506110d0565b82805461167790611c7e565b90600052602060002090601f01602090048101928261169957600085556116df565b82601f106116b257805160ff19168380011785556116df565b828001600101855582156116df579182015b828111156116df5782518255916020019190600101906116c4565b506116eb929150611780565b5090565b6040518061016001604052806000815260200160608152602001606081526020016117496040518060c001604052806060815260200160608152602001606081526020016060815260200160608152602001606081525090565b815260006020820181905260408201819052606082018190526080820181905260a0820181905260c0820181905260e09091015290565b5b808211156116eb5760008155600101611781565b80356001600160a01b0381168114610b3c57600080fd5b80358015158114610b3c57600080fd5b600082601f8301126117cd57600080fd5b813567ffffffffffffffff808211156117e8576117e8611ccf565b604051601f8301601f19908116603f0116810190828211818310171561181057611810611ccf565b8160405283815286602085880101111561182957600080fd5b836020870160208301376000602085830101528094505050505092915050565b60006020828403121561185b57600080fd5b61075f82611795565b6000806040838503121561187757600080fd5b61188083611795565b915061188e602084016117ac565b90509250929050565b60008060008060008060008060006101208a8c0312156118b657600080fd5b893567ffffffffffffffff808211156118ce57600080fd5b6118da8d838e016117bc565b9a5060208c01359150808211156118f057600080fd5b6118fc8d838e016117bc565b995060408c013591508082111561191257600080fd5b61191e8d838e016117bc565b985060608c013591508082111561193457600080fd5b6119408d838e016117bc565b975060808c013591508082111561195657600080fd5b6119628d838e016117bc565b965060a08c013591508082111561197857600080fd5b6119848d838e016117bc565b955060c08c013591508082111561199a57600080fd5b6119a68d838e016117bc565b945060e08c01359150808211156119bc57600080fd5b506119c98c828d016117bc565b9250506101008a013590509295985092959850929598565b6000602082840312156119f357600080fd5b5035919050565b60008060408385031215611a0d57600080fd5b8235915061188e602084016117ac565b6000815180845260005b81811015611a4357602081850181015186830182015201611a27565b81811115611a55576000602083870101525b50601f01601f19169290920160200192915050565b6000815160c08452611a7f60c0850182611a1d565b905060208301518482036020860152611a988282611a1d565b91505060408301518482036040860152611ab28282611a1d565b91505060608301518482036060860152611acc8282611a1d565b91505060808301518482036080860152611ae68282611a1d565b91505060a083015184820360a0860152611b008282611a1d565b95945050505050565b6000610160825184526020830151816020860152611b2982860182611a1d565b91505060408301518482036040860152611b438282611a1d565b91505060608301518482036060860152611b5d8282611a6a565b9150506080830151608085015260a0830151611b8460a08601826001600160a01b03169052565b5060c0830151611b9f60c08601826001600160a01b03169052565b5060e0830151611bb360e086018215159052565b50610100838101511515908501526101208084015115159085015261014092830151151592909301919091525090565b6000602080830181845280855180835260408601915060408160051b870101925083870160005b82811015611c3857603f19888603018452611c26858351611b09565b94509285019290850190600101611c0a565b5092979650505050505050565b60208152600061075f6020830184611b09565b60008219821115611c7957634e487b7160e01b600052601160045260246000fd5b500190565b600181811c90821680611c9257607f821691505b60208210811415611cb357634e487b7160e01b600052602260045260246000fd5b50919050565b634e487b7160e01b600052603260045260246000fd5b634e487b7160e01b600052604160045260246000fdfea2646970667358221220d23cd323a53fd5569c6b5650156e95b7487bfd3528a7a81c02d49ed51d48309464736f6c63430008050033",
  "linkReferences": {},
  "deployedLinkReferences": {}
}