{
  "_format": "hh-sol-artifact-1",
  "contractName": "PropertyEscrow",
  "sourceName": "contracts/PropertyEscrow.sol",
  "abi": [
    {
      "inputs": [],
      "stateMutability": "nonpayable",
      "type": "constructor"
    },
    {
      "inputs": [
        {
          "internalType": "uint256",
          "name": "_id",
          "type": "uint256"
        }
      ],
      "name": "cancelListing",
      "outputs": [
        {
          "internalType": "bool",
          "name": "",
          "type": "bool"
        }
      ],
      "stateMutability": "nonpayable",
      "type": "function"
    },
    {
      "inputs": [
        {
          "internalType": "string",
          "name": "address1",
          "type": "string"
        },
        {
          "internalType": "string",
          "name": "address2",
          "type": "string"
        },
        {
          "internalType": "string",
          "name": "city",
          "type": "string"
        },
        {
          "internalType": "string",
          "name": "province",
          "type": "string"
        },
        {
          "internalType": "string",
          "name": "postcode",
          "type": "string"
        },
        {
          "internalType": "string",
          "name": "country",
          "type": "string"
        },
        {
          "internalType": "string",
          "name": "name",
          "type": "string"
        },
        {
          "internalType": "string",
          "name": "description",
          "type": "string"
        },
        {
          "internalType": "uint256",
          "name": "price",
          "type": "uint256"
        }
      ],
      "name": "createListing",
      "outputs": [
        {
          "internalType": "uint256",
          "name": "",
          "type": "uint256"
        }
      ],
      "stateMutability": "nonpayable",
      "type": "function"
    },
    {
      "inputs": [
        {
          "internalType": "uint256",
          "name": "_id",
          "type": "uint256"
        },
        {
          "internalType": "string",
          "name": "name",
          "type": "string"
        },
        {
          "internalType": "string",
          "name": "description",
          "type": "string"
        },
        {
          "internalType": "uint256",
          "name": "price",
          "type": "uint256"
        }
      ],
      "name": "editProperty",
      "outputs": [
        {
          "internalType": "bool",
          "name": "",
          "type": "bool"
        }
      ],
      "stateMutability": "nonpayable",
      "type": "function"
    },
    {
      "inputs": [
        {
          "internalType": "uint256",
          "name": "_id",
          "type": "uint256"
        }
      ],
      "name": "getPropertyDetail",
      "outputs": [
        {
          "components": [
            {
              "internalType": "uint256",
              "name": "id",
              "type": "uint256"
            },
            {
              "internalType": "string",
              "name": "name",
              "type": "string"
            },
            {
              "internalType": "string",
              "name": "description",
              "type": "string"
            },
            {
              "components": [
                {
                  "internalType": "string",
                  "name": "address1",
                  "type": "string"
                },
                {
                  "internalType": "string",
                  "name": "address2",
                  "type": "string"
                },
                {
                  "internalType": "string",
                  "name": "city",
                  "type": "string"
                },
                {
                  "internalType": "string",
                  "name": "province",
                  "type": "string"
                },
                {
                  "internalType": "string",
                  "name": "postcode",
                  "type": "string"
                },
                {
                  "internalType": "string",
                  "name": "country",
                  "type": "string"
                }
              ],
              "internalType": "struct PropertyEscrow.PropertyAddress",
              "name": "propertyAddress",
              "type": "tuple"
            },
            {
              "internalType": "uint256",
              "name": "price",
              "type": "uint256"
            },
            {
              "internalType": "address",
              "name": "owner",
              "type": "address"
            },
            {
              "internalType": "address",
              "name": "buyer",
              "type": "address"
            },
            {
              "internalType": "bool",
              "name": "isSold",
              "type": "bool"
            },
            {
              "internalType": "bool",
              "name": "onHold",
              "type": "bool"
            },
            {
              "internalType": "bool",
              "name": "isActive",
              "type": "bool"
            },
            {
              "internalType": "bool",
              "name": "isVerified",
              "type": "bool"
            }
          ],
          "internalType": "struct PropertyEscrow.Property",
          "name": "",
          "type": "tuple"
        }
      ],
      "stateMutability": "view",
      "type": "function"
    },
    {
      "inputs": [
        {
          "internalType": "uint256",
          "name": "_id",
          "type": "uint256"
        }
      ],
      "name": "getPropertyIsActive",
      "outputs": [
        {
          "internalType": "bool",
          "name": "",
          "type": "bool"
        }
      ],
      "stateMutability": "view",
      "type": "function"
    },
    {
      "inputs": [
        {
          "internalType": "uint256",
          "name": "_id",
          "type": "uint256"
        }
      ],
      "name": "getPropertyIsSold",
      "outputs": [
        {
          "internalType": "bool",
          "name": "",
          "type": "bool"
        }
      ],
      "stateMutability": "view",
      "type": "function"
    },
    {
      "inputs": [],
      "name": "getPropertyLength",
      "outputs": [
        {
          "internalType": "uint256",
          "name": "",
          "type": "uint256"
        }
      ],
      "stateMutability": "view",
      "type": "function"
    },
    {
      "inputs": [],
      "name": "getPropertyList",
      "outputs": [
        {
          "components": [
            {
              "internalType": "uint256",
              "name": "id",
              "type": "uint256"
            },
            {
              "internalType": "string",
              "name": "name",
              "type": "string"
            },
            {
              "internalType": "string",
              "name": "description",
              "type": "string"
            },
            {
              "components": [
                {
                  "internalType": "string",
                  "name": "address1",
                  "type": "string"
                },
                {
                  "internalType": "string",
                  "name": "address2",
                  "type": "string"
                },
                {
                  "internalType": "string",
                  "name": "city",
                  "type": "string"
                },
                {
                  "internalType": "string",
                  "name": "province",
                  "type": "string"
                },
                {
                  "internalType": "string",
                  "name": "postcode",
                  "type": "string"
                },
                {
                  "internalType": "string",
                  "name": "country",
                  "type": "string"
                }
              ],
              "internalType": "struct PropertyEscrow.PropertyAddress",
              "name": "propertyAddress",
              "type": "tuple"
            },
            {
              "internalType": "uint256",
              "name": "price",
              "type": "uint256"
            },
            {
              "internalType": "address",
              "name": "owner",
              "type": "address"
            },
            {
              "internalType": "address",
              "name": "buyer",
              "type": "address"
            },
            {
              "internalType": "bool",
              "name": "isSold",
              "type": "bool"
            },
            {
              "internalType": "bool",
              "name": "onHold",
              "type": "bool"
            },
            {
              "internalType": "bool",
              "name": "isActive",
              "type": "bool"
            },
            {
              "internalType": "bool",
              "name": "isVerified",
              "type": "bool"
            }
          ],
          "internalType": "struct PropertyEscrow.Property[]",
          "name": "",
          "type": "tuple[]"
        }
      ],
      "stateMutability": "view",
      "type": "function"
    },
    {
      "inputs": [
        {
          "internalType": "uint256",
          "name": "_id",
          "type": "uint256"
        }
      ],
      "name": "getPropertyPrice",
      "outputs": [
        {
          "internalType": "uint256",
          "name": "",
          "type": "uint256"
        }
      ],
      "stateMutability": "view",
      "type": "function"
    },
    {
      "inputs": [
        {
          "internalType": "address",
          "name": "manager",
          "type": "address"
        }
      ],
      "name": "isManager",
      "outputs": [
        {
          "internalType": "bool",
          "name": "",
          "type": "bool"
        }
      ],
      "stateMutability": "view",
      "type": "function"
    },
    {
      "inputs": [
        {
          "internalType": "uint256",
          "name": "_id",
          "type": "uint256"
        }
      ],
      "name": "payProperty",
      "outputs": [
        {
          "internalType": "bool",
          "name": "",
          "type": "bool"
        }
      ],
      "stateMutability": "payable",
      "type": "function"
    },
    {
      "inputs": [
        {
          "internalType": "address",
          "name": "manager",
          "type": "address"
        },
        {
          "internalType": "bool",
          "name": "state",
          "type": "bool"
        }
      ],
      "name": "setManager",
      "outputs": [
        {
          "internalType": "bool",
          "name": "",
          "type": "bool"
        }
      ],
      "stateMutability": "nonpayable",
      "type": "function"
    },
    {
      "inputs": [
        {
          "internalType": "uint256",
          "name": "_id",
          "type": "uint256"
        },
        {
          "internalType": "bool",
          "name": "_isVerified",
          "type": "bool"
        }
      ],
      "name": "setPropertyIsVerified",
      "outputs": [
        {
          "internalType": "bool",
          "name": "",
          "type": "bool"
        }
      ],
      "stateMutability": "nonpayable",
      "type": "function"
    }
  ],
  "bytecode": "0x608060405234801561001057600080fd5b50600180546001600160a01b0319163390811782556000908152602081905260409020805460ff1916821790556003556120298061004f6000396000f3fe6080604052600436106100c25760003560e01c8063686c50e01161007f578063badf707b11610059578063badf707b1461020c578063c1a824801461021f578063f3ae24151461023f578063f600f3081461025f57600080fd5b8063686c50e01461019f57806391397585146101bf578063a5e90eee146101ec57600080fd5b80630789752c146100c757806321977f6c146100fa57806325db3afa1461012a578063305a67a81461014a57806344c31fcd1461016a57806355fcff1b1461017f575b600080fd5b3480156100d357600080fd5b506100e76100e2366004611c7a565b610281565b6040519081526020015b60405180910390f35b34801561010657600080fd5b5061011a610115366004611c7a565b610298565b60405190151581526020016100f1565b34801561013657600080fd5b5061011a610145366004611cb6565b6102af565b34801561015657600080fd5b5061011a610165366004611c7a565b610550565b34801561017657600080fd5b506002546100e7565b34801561018b57600080fd5b506100e761019a366004611b30565b61065e565b3480156101ab57600080fd5b5061011a6101ba366004611c93565b6108f3565b3480156101cb57600080fd5b506101df6101da366004611c7a565b6109e5565b6040516100f19190611f53565b3480156101f857600080fd5b5061011a610207366004611afd565b6109ff565b61011a61021a366004611c7a565b610a84565b34801561022b57600080fd5b5061011a61023a366004611c7a565b610d44565b34801561024b57600080fd5b5061011a61025a366004611ae2565b610d5c565b34801561026b57600080fd5b50610274610dda565b6040516100f19190611ef1565b60008061028d8361135e565b608001519392505050565b6000806102a48361135e565b60e001519392505050565b60008460006102bd8261135e565b90508060a001516001600160a01b0316336001600160a01b0316146103295760405162461bcd60e51b815260206004820152601f60248201527f4f6e6c792070726f7065727479206f776e65722063616e20657865637574650060448201526064015b60405180910390fd5b60005b60025481101561050857876002828154811061034a5761034a611fc7565b90600052602060002090600c02016000015414156104f6576002818154811061037557610375611fc7565b90600052602060002090600c0201600b0160169054906101000a900460ff16151560011515146103e05760405162461bcd60e51b815260206004820152601660248201527550726f7065727479206973206e6f742061637469766560501b6044820152606401610320565b600281815481106103f3576103f3611fc7565b60009182526020909120600c90910201600b0154600160a01b900460ff16156104515760405162461bcd60e51b815260206004820152601060248201526f141c9bdc195c9d1e481a5cc81cdbdb1960821b6044820152606401610320565b866002828154811061046557610465611fc7565b90600052602060002090600c02016001019080519060200190610489929190611904565b50856002828154811061049e5761049e611fc7565b90600052602060002090600c020160020190805190602001906104c2929190611904565b5084600282815481106104d7576104d7611fc7565b90600052602060002090600c0201600901819055506001935050610546565b610501816001611f66565b905061032c565b5060405162461bcd60e51b8152602060048201526012602482015271141c9bdc195c9d1e481b9bdd08199bdd5b9960721b6044820152606401610320565b5050949350505050565b600081600061055e8261135e565b90508060a001516001600160a01b0316336001600160a01b0316146105c55760405162461bcd60e51b815260206004820152601f60248201527f4f6e6c792070726f7065727479206f776e65722063616e2065786563757465006044820152606401610320565b60005b6002548110156105085784600282815481106105e6576105e6611fc7565b90600052602060002090600c02016000015414156106455760006002828154811061061357610613611fc7565b90600052602060002090600c0201600b0160166101000a81548160ff0219169083151502179055506001935050610657565b610650816001611f66565b90506105c8565b5050919050565b6040805160c080820183528b825260208083018c90528284018b905260608084018b905260808085018b905260a08086018b905286516101608101885260035481528085018b81529781018a90529283018690529082018790523390820152600092810183905260e081018390526101008101839052600161012082018190526101408201849052600280549182018155845281517f405787fa12a823e0f2b7631cc41b3ba8828b3321ca811111fa75cd3aa3bb5ace600c90920291820190815595518051949692948594610757937f405787fa12a823e0f2b7631cc41b3ba8828b3321ca811111fa75cd3aa3bb5acf01920190611904565b5060408201518051610773916002840191602090910190611904565b50606082015180518051600384019161079191839160200190611904565b5060208281015180516107aa9260018501920190611904565b50604082015180516107c6916002840191602090910190611904565b50606082015180516107e2916003840191602090910190611904565b50608082015180516107fe916004840191602090910190611904565b5060a0820151805161081a916005840191602090910190611904565b5050506080820151600982015560a0820151600a820180546001600160a01b039283166001600160a01b031990911617905560c0830151600b909201805460e0850151610100860151610120870151610140909701511515600160b81b0260ff60b81b19971515600160b01b0260ff60b01b19921515600160a81b029290921661ffff60a81b19931515600160a01b026001600160a81b0319909516979096169690961792909217169290921791909117929092161790556003546108e0906001611f66565b600355519b9a5050505050505050505050565b3360009081526020819052604081205460ff1661094e5760405162461bcd60e51b81526020600482015260196024820152784f6e6c79206d616e61676572732063616e206578656375746560381b6044820152606401610320565b60005b60025481101561050857836002828154811061096f5761096f611fc7565b90600052602060002090600c02016000015414156109cd57826002828154811061099b5761099b611fc7565b90600052602060002090600c0201600b0160176101000a81548160ff02191690831515021790555060019150506109df565b6109d8816001611f66565b9050610951565b92915050565b6109ed611988565b60006109f88361135e565b9392505050565b6001546000906001600160a01b03163314610a555760405162461bcd60e51b81526020600482015260166024820152754f6e6c79206f776e65722063616e206578656375746560501b6044820152606401610320565b506001600160a01b0382166000908152602081905260409020805482151560ff19909116179055600192915050565b6000805b600254811015610508578260028281548110610aa657610aa6611fc7565b90600052602060002090600c0201600001541415610d325760028181548110610ad157610ad1611fc7565b60009182526020909120600c90910201600a01546001600160a01b0316331415610b3d5760405162461bcd60e51b815260206004820152601c60248201527f43616e6e6f74207075726368617365206f776e2070726f7065727479000000006044820152606401610320565b60028181548110610b5057610b50611fc7565b90600052602060002090600c0201600901543414610bcb5760405162461bcd60e51b815260206004820152603260248201527f5472616e73616374696f6e20616d6f756e7420646f6573206e6f7420657175616044820152711b081d1bc8185cdada5b99c8185b5bdd5b9d60721b6064820152608401610320565b600160028281548110610be057610be0611fc7565b90600052602060002090600c0201600b0160146101000a81548160ff021916908315150217905550600060028281548110610c1d57610c1d611fc7565b90600052602060002090600c0201600b0160166101000a81548160ff0219169083151502179055503360028281548110610c5957610c59611fc7565b90600052602060002090600c0201600b0160006101000a8154816001600160a01b0302191690836001600160a01b03160217905550600060028281548110610ca357610ca3611fc7565b90600052602060002090600c0201600a0160009054906101000a90046001600160a01b03169050806001600160a01b03166108fc60028481548110610cea57610cea611fc7565b90600052602060002090600c0201600901549081150290604051600060405180830381858888f19350505050158015610d27573d6000803e3d6000fd5b506001949350505050565b610d3d816001611f66565b9050610a88565b600080610d508361135e565b61012001519392505050565b3360009081526020819052604081205460ff16610db75760405162461bcd60e51b81526020600482015260196024820152784f6e6c79206d616e61676572732063616e206578656375746560381b6044820152606401610320565b506001600160a01b03811660009081526020819052604090205460ff165b919050565b60606002805480602002602001604051908101604052809291908181526020016000905b8282101561135557838290600052602060002090600c02016040518061016001604052908160008201548152602001600182018054610e3c90611f8c565b80601f0160208091040260200160405190810160405280929190818152602001828054610e6890611f8c565b8015610eb55780601f10610e8a57610100808354040283529160200191610eb5565b820191906000526020600020905b815481529060010190602001808311610e9857829003601f168201915b50505050508152602001600282018054610ece90611f8c565b80601f0160208091040260200160405190810160405280929190818152602001828054610efa90611f8c565b8015610f475780601f10610f1c57610100808354040283529160200191610f47565b820191906000526020600020905b815481529060010190602001808311610f2a57829003601f168201915b50505050508152602001600382016040518060c0016040529081600082018054610f7090611f8c565b80601f0160208091040260200160405190810160405280929190818152602001828054610f9c90611f8c565b8015610fe95780601f10610fbe57610100808354040283529160200191610fe9565b820191906000526020600020905b815481529060010190602001808311610fcc57829003601f168201915b5050505050815260200160018201805461100290611f8c565b80601f016020809104026020016040519081016040528092919081815260200182805461102e90611f8c565b801561107b5780601f106110505761010080835404028352916020019161107b565b820191906000526020600020905b81548152906001019060200180831161105e57829003601f168201915b5050505050815260200160028201805461109490611f8c565b80601f01602080910402602001604051908101604052809291908181526020018280546110c090611f8c565b801561110d5780601f106110e25761010080835404028352916020019161110d565b820191906000526020600020905b8154815290600101906020018083116110f057829003601f168201915b5050505050815260200160038201805461112690611f8c565b80601f016020809104026020016040519081016040528092919081815260200182805461115290611f8c565b801561119f5780601f106111745761010080835404028352916020019161119f565b820191906000526020600020905b81548152906001019060200180831161118257829003601f168201915b505050505081526020016004820180546111b890611f8c565b80601f01602080910402602001604051908101604052809291908181526020018280546111e490611f8c565b80156112315780601f1061120657610100808354040283529160200191611231565b820191906000526020600020905b81548152906001019060200180831161121457829003601f168201915b5050505050815260200160058201805461124a90611f8c565b80601f016020809104026020016040519081016040528092919081815260200182805461127690611f8c565b80156112c35780601f10611298576101008083540402835291602001916112c3565b820191906000526020600020905b8154815290600101906020018083116112a657829003601f168201915b5050509190925250505081526009820154602080830191909152600a8301546001600160a01b039081166040840152600b90930154928316606083015260ff600160a01b8404811615156080840152600160a81b84048116151560a0840152600160b01b84048116151560c0840152600160b81b909304909216151560e0909101529082526001929092019101610dfe565b50505050905090565b611366611988565b60005b60025481101561050857826002828154811061138757611387611fc7565b90600052602060002090600c02016000015414156118f257600281815481106113b2576113b2611fc7565b90600052602060002090600c020160405180610160016040529081600082015481526020016001820180546113e690611f8c565b80601f016020809104026020016040519081016040528092919081815260200182805461141290611f8c565b801561145f5780601f106114345761010080835404028352916020019161145f565b820191906000526020600020905b81548152906001019060200180831161144257829003601f168201915b5050505050815260200160028201805461147890611f8c565b80601f01602080910402602001604051908101604052809291908181526020018280546114a490611f8c565b80156114f15780601f106114c6576101008083540402835291602001916114f1565b820191906000526020600020905b8154815290600101906020018083116114d457829003601f168201915b50505050508152602001600382016040518060c001604052908160008201805461151a90611f8c565b80601f016020809104026020016040519081016040528092919081815260200182805461154690611f8c565b80156115935780601f1061156857610100808354040283529160200191611593565b820191906000526020600020905b81548152906001019060200180831161157657829003601f168201915b505050505081526020016001820180546115ac90611f8c565b80601f01602080910402602001604051908101604052809291908181526020018280546115d890611f8c565b80156116255780601f106115fa57610100808354040283529160200191611625565b820191906000526020600020905b81548152906001019060200180831161160857829003601f168201915b5050505050815260200160028201805461163e90611f8c565b80601f016020809104026020016040519081016040528092919081815260200182805461166a90611f8c565b80156116b75780601f1061168c576101008083540402835291602001916116b7565b820191906000526020600020905b81548152906001019060200180831161169a57829003601f168201915b505050505081526020016003820180546116d090611f8c565b80601f01602080910402602001604051908101604052809291908181526020018280546116fc90611f8c565b80156117495780601f1061171e57610100808354040283529160200191611749565b820191906000526020600020905b81548152906001019060200180831161172c57829003601f168201915b5050505050815260200160048201805461176290611f8c565b80601f016020809104026020016040519081016040528092919081815260200182805461178e90611f8c565b80156117db5780601f106117b0576101008083540402835291602001916117db565b820191906000526020600020905b8154815290600101906020018083116117be57829003601f168201915b505050505081526020016005820180546117f490611f8c565b80601f016020809104026020016040519081016040528092919081815260200182805461182090611f8c565b801561186d5780601f106118425761010080835404028352916020019161186d565b820191906000526020600020905b81548152906001019060200180831161185057829003601f168201915b50505091909252505050815260098201546020820152600a8201546001600160a01b039081166040830152600b90920154918216606082015260ff600160a01b8304811615156080830152600160a81b83048116151560a0830152600160b01b83048116151560c0830152600160b81b909204909116151560e0909101529392505050565b6118fd816001611f66565b9050611369565b82805461191090611f8c565b90600052602060002090601f0160209004810192826119325760008555611978565b82601f1061194b57805160ff1916838001178555611978565b82800160010185558215611978579182015b8281111561197857825182559160200191906001019061195d565b50611984929150611a19565b5090565b6040518061016001604052806000815260200160608152602001606081526020016119e26040518060c001604052806060815260200160608152602001606081526020016060815260200160608152602001606081525090565b815260006020820181905260408201819052606082018190526080820181905260a0820181905260c0820181905260e09091015290565b5b808211156119845760008155600101611a1a565b80356001600160a01b0381168114610dd557600080fd5b80358015158114610dd557600080fd5b600082601f830112611a6657600080fd5b813567ffffffffffffffff80821115611a8157611a81611fdd565b604051601f8301601f19908116603f01168101908282118183101715611aa957611aa9611fdd565b81604052838152866020858801011115611ac257600080fd5b836020870160208301376000602085830101528094505050505092915050565b600060208284031215611af457600080fd5b6109f882611a2e565b60008060408385031215611b1057600080fd5b611b1983611a2e565b9150611b2760208401611a45565b90509250929050565b60008060008060008060008060006101208a8c031215611b4f57600080fd5b893567ffffffffffffffff80821115611b6757600080fd5b611b738d838e01611a55565b9a5060208c0135915080821115611b8957600080fd5b611b958d838e01611a55565b995060408c0135915080821115611bab57600080fd5b611bb78d838e01611a55565b985060608c0135915080821115611bcd57600080fd5b611bd98d838e01611a55565b975060808c0135915080821115611bef57600080fd5b611bfb8d838e01611a55565b965060a08c0135915080821115611c1157600080fd5b611c1d8d838e01611a55565b955060c08c0135915080821115611c3357600080fd5b611c3f8d838e01611a55565b945060e08c0135915080821115611c5557600080fd5b50611c628c828d01611a55565b9250506101008a013590509295985092959850929598565b600060208284031215611c8c57600080fd5b5035919050565b60008060408385031215611ca657600080fd5b82359150611b2760208401611a45565b60008060008060808587031215611ccc57600080fd5b84359350602085013567ffffffffffffffff80821115611ceb57600080fd5b611cf788838901611a55565b94506040870135915080821115611d0d57600080fd5b50611d1a87828801611a55565b949793965093946060013593505050565b6000815180845260005b81811015611d5157602081850181015186830182015201611d35565b81811115611d63576000602083870101525b50601f01601f19169290920160200192915050565b6000815160c08452611d8d60c0850182611d2b565b905060208301518482036020860152611da68282611d2b565b91505060408301518482036040860152611dc08282611d2b565b91505060608301518482036060860152611dda8282611d2b565b91505060808301518482036080860152611df48282611d2b565b91505060a083015184820360a0860152611e0e8282611d2b565b95945050505050565b6000610160825184526020830151816020860152611e3782860182611d2b565b91505060408301518482036040860152611e518282611d2b565b91505060608301518482036060860152611e6b8282611d78565b9150506080830151608085015260a0830151611e9260a08601826001600160a01b03169052565b5060c0830151611ead60c08601826001600160a01b03169052565b5060e0830151611ec160e086018215159052565b50610100838101511515908501526101208084015115159085015261014092830151151592909301919091525090565b6000602080830181845280855180835260408601915060408160051b870101925083870160005b82811015611f4657603f19888603018452611f34858351611e17565b94509285019290850190600101611f18565b5092979650505050505050565b6020815260006109f86020830184611e17565b60008219821115611f8757634e487b7160e01b600052601160045260246000fd5b500190565b600181811c90821680611fa057607f821691505b60208210811415611fc157634e487b7160e01b600052602260045260246000fd5b50919050565b634e487b7160e01b600052603260045260246000fd5b634e487b7160e01b600052604160045260246000fdfea2646970667358221220d7b791651e7474fe15284601b9bf0d2d2fd5bc332c86bd8fa899698ea885681864736f6c63430008050033",
  "linkReferences": {},
  "deployedLinkReferences": {}
}