{
  "_format": "hh-sol-artifact-1",
  "contractName": "PropertyEscrow",
  "sourceName": "contracts/PropertyEscrow.sol",
  "abi": [
    {
      "inputs": [],
      "stateMutability": "nonpayable",
      "type": "constructor"
    },
    {
      "inputs": [
        {
          "internalType": "uint256",
          "name": "_id",
          "type": "uint256"
        }
      ],
      "name": "cancelListing",
      "outputs": [
        {
          "internalType": "bool",
          "name": "",
          "type": "bool"
        }
      ],
      "stateMutability": "nonpayable",
      "type": "function"
    },
    {
      "inputs": [
        {
          "internalType": "string",
          "name": "address1",
          "type": "string"
        },
        {
          "internalType": "string",
          "name": "address2",
          "type": "string"
        },
        {
          "internalType": "string",
          "name": "city",
          "type": "string"
        },
        {
          "internalType": "string",
          "name": "province",
          "type": "string"
        },
        {
          "internalType": "string",
          "name": "postcode",
          "type": "string"
        },
        {
          "internalType": "string",
          "name": "country",
          "type": "string"
        },
        {
          "internalType": "string",
          "name": "name",
          "type": "string"
        },
        {
          "internalType": "string",
          "name": "description",
          "type": "string"
        },
        {
          "internalType": "uint256",
          "name": "price",
          "type": "uint256"
        }
      ],
      "name": "createListing",
      "outputs": [
        {
          "internalType": "uint256",
          "name": "",
          "type": "uint256"
        }
      ],
      "stateMutability": "nonpayable",
      "type": "function"
    },
    {
      "inputs": [
        {
          "internalType": "uint256",
          "name": "_id",
          "type": "uint256"
        }
      ],
      "name": "getPropertyDetail",
      "outputs": [
        {
          "components": [
            {
              "internalType": "uint256",
              "name": "id",
              "type": "uint256"
            },
            {
              "internalType": "string",
              "name": "name",
              "type": "string"
            },
            {
              "internalType": "string",
              "name": "description",
              "type": "string"
            },
            {
              "components": [
                {
                  "internalType": "string",
                  "name": "address1",
                  "type": "string"
                },
                {
                  "internalType": "string",
                  "name": "address2",
                  "type": "string"
                },
                {
                  "internalType": "string",
                  "name": "city",
                  "type": "string"
                },
                {
                  "internalType": "string",
                  "name": "province",
                  "type": "string"
                },
                {
                  "internalType": "string",
                  "name": "postcode",
                  "type": "string"
                },
                {
                  "internalType": "string",
                  "name": "country",
                  "type": "string"
                }
              ],
              "internalType": "struct PropertyEscrow.PropertyAddress",
              "name": "propertyAddress",
              "type": "tuple"
            },
            {
              "internalType": "uint256",
              "name": "price",
              "type": "uint256"
            },
            {
              "internalType": "address",
              "name": "owner",
              "type": "address"
            },
            {
              "internalType": "address",
              "name": "buyer",
              "type": "address"
            },
            {
              "internalType": "bool",
              "name": "isSold",
              "type": "bool"
            },
            {
              "internalType": "bool",
              "name": "onHold",
              "type": "bool"
            },
            {
              "internalType": "bool",
              "name": "isActive",
              "type": "bool"
            },
            {
              "internalType": "bool",
              "name": "isVerified",
              "type": "bool"
            }
          ],
          "internalType": "struct PropertyEscrow.Property",
          "name": "",
          "type": "tuple"
        }
      ],
      "stateMutability": "view",
      "type": "function"
    },
    {
      "inputs": [
        {
          "internalType": "uint256",
          "name": "_id",
          "type": "uint256"
        }
      ],
      "name": "getPropertyIsActive",
      "outputs": [
        {
          "internalType": "bool",
          "name": "",
          "type": "bool"
        }
      ],
      "stateMutability": "view",
      "type": "function"
    },
    {
      "inputs": [
        {
          "internalType": "uint256",
          "name": "_id",
          "type": "uint256"
        }
      ],
      "name": "getPropertyIsSold",
      "outputs": [
        {
          "internalType": "bool",
          "name": "",
          "type": "bool"
        }
      ],
      "stateMutability": "view",
      "type": "function"
    },
    {
      "inputs": [],
      "name": "getPropertyLength",
      "outputs": [
        {
          "internalType": "uint256",
          "name": "",
          "type": "uint256"
        }
      ],
      "stateMutability": "view",
      "type": "function"
    },
    {
      "inputs": [
        {
          "internalType": "uint256",
          "name": "_id",
          "type": "uint256"
        }
      ],
      "name": "getPropertyPrice",
      "outputs": [
        {
          "internalType": "uint256",
          "name": "",
          "type": "uint256"
        }
      ],
      "stateMutability": "view",
      "type": "function"
    },
    {
      "inputs": [
        {
          "internalType": "address",
          "name": "manager",
          "type": "address"
        }
      ],
      "name": "isManager",
      "outputs": [
        {
          "internalType": "bool",
          "name": "",
          "type": "bool"
        }
      ],
      "stateMutability": "view",
      "type": "function"
    },
    {
      "inputs": [
        {
          "internalType": "uint256",
          "name": "_id",
          "type": "uint256"
        }
      ],
      "name": "payProperty",
      "outputs": [
        {
          "internalType": "bool",
          "name": "",
          "type": "bool"
        }
      ],
      "stateMutability": "payable",
      "type": "function"
    },
    {
      "inputs": [
        {
          "internalType": "address",
          "name": "manager",
          "type": "address"
        },
        {
          "internalType": "bool",
          "name": "state",
          "type": "bool"
        }
      ],
      "name": "setManager",
      "outputs": [
        {
          "internalType": "bool",
          "name": "",
          "type": "bool"
        }
      ],
      "stateMutability": "nonpayable",
      "type": "function"
    },
    {
      "inputs": [
        {
          "internalType": "uint256",
          "name": "_id",
          "type": "uint256"
        },
        {
          "internalType": "bool",
          "name": "_isVerified",
          "type": "bool"
        }
      ],
      "name": "setPropertyIsVerified",
      "outputs": [
        {
          "internalType": "bool",
          "name": "",
          "type": "bool"
        }
      ],
      "stateMutability": "nonpayable",
      "type": "function"
    }
  ],
  "bytecode": "0x608060405234801561001057600080fd5b5033600160006101000a81548173ffffffffffffffffffffffffffffffffffffffff021916908373ffffffffffffffffffffffffffffffffffffffff1602179055506001600080600160009054906101000a900473ffffffffffffffffffffffffffffffffffffffff1673ffffffffffffffffffffffffffffffffffffffff1673ffffffffffffffffffffffffffffffffffffffff16815260200190815260200160002060006101000a81548160ff02191690831515021790555060016003819055506121e7806100e26000396000f3fe60806040526004361061009c5760003560e01c8063686c50e011610064578063686c50e0146101c057806391397585146101fd578063a5e90eee1461023a578063badf707b14610277578063c1a82480146102a7578063f3ae2415146102e45761009c565b80630789752c146100a157806321977f6c146100de578063305a67a81461011b57806344c31fcd1461015857806355fcff1b14610183575b600080fd5b3480156100ad57600080fd5b506100c860048036038101906100c39190611925565b610321565b6040516100d59190611d8e565b60405180910390f35b3480156100ea57600080fd5b5061010560048036038101906101009190611925565b61033c565b6040516101129190611c91565b60405180910390f35b34801561012757600080fd5b50610142600480360381019061013d9190611925565b610357565b60405161014f9190611c91565b60405180910390f35b34801561016457600080fd5b5061016d6104b5565b60405161017a9190611d8e565b60405180910390f35b34801561018f57600080fd5b506101aa60048036038101906101a5919061177b565b6104c2565b6040516101b79190611d8e565b60405180910390f35b3480156101cc57600080fd5b506101e760048036038101906101e29190611952565b6107f0565b6040516101f49190611c91565b60405180910390f35b34801561020957600080fd5b50610224600480360381019061021f9190611925565b610957565b6040516102319190611d6c565b60405180910390f35b34801561024657600080fd5b50610261600480360381019061025c919061173b565b610975565b60405161026e9190611c91565b60405180910390f35b610291600480360381019061028c9190611925565b610a67565b60405161029e9190611c91565b60405180910390f35b3480156102b357600080fd5b506102ce60048036038101906102c99190611925565b610d56565b6040516102db9190611c91565b60405180910390f35b3480156102f057600080fd5b5061030b6004803603810190610306919061170e565b610d72565b6040516103189190611c91565b60405180910390f35b60008061032d83610e52565b90508060800151915050919050565b60008061034883610e52565b90508060e00151915050919050565b600081600061036582610e52565b90508060a0015173ffffffffffffffffffffffffffffffffffffffff163373ffffffffffffffffffffffffffffffffffffffff16146103d9576040517f08c379a00000000000000000000000000000000000000000000000000000000081526004016103d090611d0c565b60405180910390fd5b60005b6002805490508110156104725784600282815481106103fe576103fd611fcd565b5b90600052602060002090600c020160000154141561045e5760006002828154811061042c5761042b611fcd565b5b90600052602060002090600c0201600b0160166101000a81548160ff02191690831515021790555060019350506104ae565b60018161046b9190611e2c565b90506103dc565b506040517f08c379a00000000000000000000000000000000000000000000000000000000081526004016104a590611d4c565b60405180910390fd5b5050919050565b6000600280549050905090565b6000806040518060c001604052808c81526020018b81526020018a8152602001898152602001888152602001878152509050600060405180610160016040528060035481526020018781526020018681526020018381526020018581526020013373ffffffffffffffffffffffffffffffffffffffff168152602001600073ffffffffffffffffffffffffffffffffffffffff16815260200160001515815260200160001515815260200160011515815260200160001515815250905060028190806001815401808255809150506001900390600052602060002090600c02016000909190919091506000820151816000015560208201518160010190805190602001906105d19291906114f2565b5060408201518160020190805190602001906105ee9291906114f2565b5060608201518160030160008201518160000190805190602001906106149291906114f2565b5060208201518160010190805190602001906106319291906114f2565b50604082015181600201908051906020019061064e9291906114f2565b50606082015181600301908051906020019061066b9291906114f2565b5060808201518160040190805190602001906106889291906114f2565b5060a08201518160050190805190602001906106a59291906114f2565b5050506080820151816009015560a082015181600a0160006101000a81548173ffffffffffffffffffffffffffffffffffffffff021916908373ffffffffffffffffffffffffffffffffffffffff16021790555060c082015181600b0160006101000a81548173ffffffffffffffffffffffffffffffffffffffff021916908373ffffffffffffffffffffffffffffffffffffffff16021790555060e082015181600b0160146101000a81548160ff02191690831515021790555061010082015181600b0160156101000a81548160ff02191690831515021790555061012082015181600b0160166101000a81548160ff02191690831515021790555061014082015181600b0160176101000a81548160ff021916908315150217905550505060016003546107d49190611e2c565b6003819055508060000151925050509998505050505050505050565b60008060003373ffffffffffffffffffffffffffffffffffffffff1673ffffffffffffffffffffffffffffffffffffffff16815260200190815260200160002060009054906101000a900460ff1661087d576040517f08c379a000000000000000000000000000000000000000000000000000000000815260040161087490611d2c565b60405180910390fd5b60005b6002805490508110156109155783600282815481106108a2576108a1611fcd565b5b90600052602060002090600c02016000015414156109015782600282815481106108cf576108ce611fcd565b5b90600052602060002090600c0201600b0160176101000a81548160ff0219169083151502179055506001915050610951565b60018161090e9190611e2c565b9050610880565b506040517f08c379a000000000000000000000000000000000000000000000000000000000815260040161094890611d4c565b60405180910390fd5b92915050565b61095f611578565b600061096a83610e52565b905080915050919050565b6000600160009054906101000a900473ffffffffffffffffffffffffffffffffffffffff1673ffffffffffffffffffffffffffffffffffffffff163373ffffffffffffffffffffffffffffffffffffffff1614610a07576040517f08c379a00000000000000000000000000000000000000000000000000000000081526004016109fe90611cec565b60405180910390fd5b816000808573ffffffffffffffffffffffffffffffffffffffff1673ffffffffffffffffffffffffffffffffffffffff16815260200190815260200160002060006101000a81548160ff0219169083151502179055506001905092915050565b600080600090505b600280549050811015610d15578260028281548110610a9157610a90611fcd565b5b90600052602060002090600c0201600001541415610d015760028181548110610abd57610abc611fcd565b5b90600052602060002090600c0201600a0160009054906101000a900473ffffffffffffffffffffffffffffffffffffffff1673ffffffffffffffffffffffffffffffffffffffff163373ffffffffffffffffffffffffffffffffffffffff161415610b5d576040517f08c379a0000000000000000000000000000000000000000000000000000000008152600401610b5490611ccc565b60405180910390fd5b60028181548110610b7157610b70611fcd565b5b90600052602060002090600c0201600901543414610bc4576040517f08c379a0000000000000000000000000000000000000000000000000000000008152600401610bbb90611cac565b60405180910390fd5b600160028281548110610bda57610bd9611fcd565b5b90600052602060002090600c0201600b0160146101000a81548160ff021916908315150217905550600060028281548110610c1857610c17611fcd565b5b90600052602060002090600c0201600b0160166101000a81548160ff021916908315150217905550600060028281548110610c5657610c55611fcd565b5b90600052602060002090600c0201600a0160009054906101000a900473ffffffffffffffffffffffffffffffffffffffff1690508073ffffffffffffffffffffffffffffffffffffffff166108fc60028481548110610cb857610cb7611fcd565b5b90600052602060002090600c0201600901549081150290604051600060405180830381858888f19350505050158015610cf5573d6000803e3d6000fd5b50600192505050610d51565b600181610d0e9190611e2c565b9050610a6f565b506040517f08c379a0000000000000000000000000000000000000000000000000000000008152600401610d4890611d4c565b60405180910390fd5b919050565b600080610d6283610e52565b9050806101200151915050919050565b60008060003373ffffffffffffffffffffffffffffffffffffffff1673ffffffffffffffffffffffffffffffffffffffff16815260200190815260200160002060009054906101000a900460ff16610dff576040517f08c379a0000000000000000000000000000000000000000000000000000000008152600401610df690611d2c565b60405180910390fd5b6000808373ffffffffffffffffffffffffffffffffffffffff1673ffffffffffffffffffffffffffffffffffffffff16815260200190815260200160002060009054906101000a900460ff169050919050565b610e5a611578565b60005b6002805490508110156114b1578260028281548110610e7f57610e7e611fcd565b5b90600052602060002090600c020160000154141561149d5760028181548110610eab57610eaa611fcd565b5b90600052602060002090600c02016040518061016001604052908160008201548152602001600182018054610edf90611f0c565b80601f0160208091040260200160405190810160405280929190818152602001828054610f0b90611f0c565b8015610f585780601f10610f2d57610100808354040283529160200191610f58565b820191906000526020600020905b815481529060010190602001808311610f3b57829003601f168201915b50505050508152602001600282018054610f7190611f0c565b80601f0160208091040260200160405190810160405280929190818152602001828054610f9d90611f0c565b8015610fea5780601f10610fbf57610100808354040283529160200191610fea565b820191906000526020600020905b815481529060010190602001808311610fcd57829003601f168201915b50505050508152602001600382016040518060c001604052908160008201805461101390611f0c565b80601f016020809104026020016040519081016040528092919081815260200182805461103f90611f0c565b801561108c5780601f106110615761010080835404028352916020019161108c565b820191906000526020600020905b81548152906001019060200180831161106f57829003601f168201915b505050505081526020016001820180546110a590611f0c565b80601f01602080910402602001604051908101604052809291908181526020018280546110d190611f0c565b801561111e5780601f106110f35761010080835404028352916020019161111e565b820191906000526020600020905b81548152906001019060200180831161110157829003601f168201915b5050505050815260200160028201805461113790611f0c565b80601f016020809104026020016040519081016040528092919081815260200182805461116390611f0c565b80156111b05780601f10611185576101008083540402835291602001916111b0565b820191906000526020600020905b81548152906001019060200180831161119357829003601f168201915b505050505081526020016003820180546111c990611f0c565b80601f01602080910402602001604051908101604052809291908181526020018280546111f590611f0c565b80156112425780601f1061121757610100808354040283529160200191611242565b820191906000526020600020905b81548152906001019060200180831161122557829003601f168201915b5050505050815260200160048201805461125b90611f0c565b80601f016020809104026020016040519081016040528092919081815260200182805461128790611f0c565b80156112d45780601f106112a9576101008083540402835291602001916112d4565b820191906000526020600020905b8154815290600101906020018083116112b757829003601f168201915b505050505081526020016005820180546112ed90611f0c565b80601f016020809104026020016040519081016040528092919081815260200182805461131990611f0c565b80156113665780601f1061133b57610100808354040283529160200191611366565b820191906000526020600020905b81548152906001019060200180831161134957829003601f168201915b505050505081525050815260200160098201548152602001600a820160009054906101000a900473ffffffffffffffffffffffffffffffffffffffff1673ffffffffffffffffffffffffffffffffffffffff1673ffffffffffffffffffffffffffffffffffffffff168152602001600b820160009054906101000a900473ffffffffffffffffffffffffffffffffffffffff1673ffffffffffffffffffffffffffffffffffffffff1673ffffffffffffffffffffffffffffffffffffffff168152602001600b820160149054906101000a900460ff16151515158152602001600b820160159054906101000a900460ff16151515158152602001600b820160169054906101000a900460ff16151515158152602001600b820160179054906101000a900460ff1615151515815250509150506114ed565b6001816114aa9190611e2c565b9050610e5d565b506040517f08c379a00000000000000000000000000000000000000000000000000000000081526004016114e490611d4c565b60405180910390fd5b919050565b8280546114fe90611f0c565b90600052602060002090601f0160209004810192826115205760008555611567565b82601f1061153957805160ff1916838001178555611567565b82800160010185558215611567579182015b8281111561156657825182559160200191906001019061154b565b5b509050611574919061160c565b5090565b6040518061016001604052806000815260200160608152602001606081526020016115a1611629565b815260200160008152602001600073ffffffffffffffffffffffffffffffffffffffff168152602001600073ffffffffffffffffffffffffffffffffffffffff1681526020016000151581526020016000151581526020016000151581526020016000151581525090565b5b8082111561162557600081600090555060010161160d565b5090565b6040518060c001604052806060815260200160608152602001606081526020016060815260200160608152602001606081525090565b600061167261166d84611dce565b611da9565b90508281526020810184848401111561168e5761168d612030565b5b611699848285611eca565b509392505050565b6000813590506116b08161216c565b92915050565b6000813590506116c581612183565b92915050565b600082601f8301126116e0576116df61202b565b5b81356116f084826020860161165f565b91505092915050565b6000813590506117088161219a565b92915050565b6000602082840312156117245761172361203a565b5b6000611732848285016116a1565b91505092915050565b600080604083850312156117525761175161203a565b5b6000611760858286016116a1565b9250506020611771858286016116b6565b9150509250929050565b60008060008060008060008060006101208a8c03121561179e5761179d61203a565b5b60008a013567ffffffffffffffff8111156117bc576117bb612035565b5b6117c88c828d016116cb565b99505060208a013567ffffffffffffffff8111156117e9576117e8612035565b5b6117f58c828d016116cb565b98505060408a013567ffffffffffffffff81111561181657611815612035565b5b6118228c828d016116cb565b97505060608a013567ffffffffffffffff81111561184357611842612035565b5b61184f8c828d016116cb565b96505060808a013567ffffffffffffffff8111156118705761186f612035565b5b61187c8c828d016116cb565b95505060a08a013567ffffffffffffffff81111561189d5761189c612035565b5b6118a98c828d016116cb565b94505060c08a013567ffffffffffffffff8111156118ca576118c9612035565b5b6118d68c828d016116cb565b93505060e08a013567ffffffffffffffff8111156118f7576118f6612035565b5b6119038c828d016116cb565b9250506101006119158c828d016116f9565b9150509295985092959850929598565b60006020828403121561193b5761193a61203a565b5b6000611949848285016116f9565b91505092915050565b600080604083850312156119695761196861203a565b5b6000611977858286016116f9565b9250506020611988858286016116b6565b9150509250929050565b61199b81611e82565b82525050565b6119aa81611e94565b82525050565b6119b981611e94565b82525050565b60006119ca82611dff565b6119d48185611e0a565b93506119e4818560208601611ed9565b6119ed8161203f565b840191505092915050565b6000611a05603283611e1b565b9150611a1082612050565b604082019050919050565b6000611a28601c83611e1b565b9150611a338261209f565b602082019050919050565b6000611a4b601683611e1b565b9150611a56826120c8565b602082019050919050565b6000611a6e601f83611e1b565b9150611a79826120f1565b602082019050919050565b6000611a91601983611e1b565b9150611a9c8261211a565b602082019050919050565b6000611ab4601283611e1b565b9150611abf82612143565b602082019050919050565b600060c0830160008301518482036000860152611ae782826119bf565b91505060208301518482036020860152611b0182826119bf565b91505060408301518482036040860152611b1b82826119bf565b91505060608301518482036060860152611b3582826119bf565b91505060808301518482036080860152611b4f82826119bf565b91505060a083015184820360a0860152611b6982826119bf565b9150508091505092915050565b600061016083016000830151611b8f6000860182611c73565b5060208301518482036020860152611ba782826119bf565b91505060408301518482036040860152611bc182826119bf565b91505060608301518482036060860152611bdb8282611aca565b9150506080830151611bf06080860182611c73565b5060a0830151611c0360a0860182611992565b5060c0830151611c1660c0860182611992565b5060e0830151611c2960e08601826119a1565b50610100830151611c3e6101008601826119a1565b50610120830151611c536101208601826119a1565b50610140830151611c686101408601826119a1565b508091505092915050565b611c7c81611ec0565b82525050565b611c8b81611ec0565b82525050565b6000602082019050611ca660008301846119b0565b92915050565b60006020820190508181036000830152611cc5816119f8565b9050919050565b60006020820190508181036000830152611ce581611a1b565b9050919050565b60006020820190508181036000830152611d0581611a3e565b9050919050565b60006020820190508181036000830152611d2581611a61565b9050919050565b60006020820190508181036000830152611d4581611a84565b9050919050565b60006020820190508181036000830152611d6581611aa7565b9050919050565b60006020820190508181036000830152611d868184611b76565b905092915050565b6000602082019050611da36000830184611c82565b92915050565b6000611db3611dc4565b9050611dbf8282611f3e565b919050565b6000604051905090565b600067ffffffffffffffff821115611de957611de8611ffc565b5b611df28261203f565b9050602081019050919050565b600081519050919050565b600082825260208201905092915050565b600082825260208201905092915050565b6000611e3782611ec0565b9150611e4283611ec0565b9250827fffffffffffffffffffffffffffffffffffffffffffffffffffffffffffffffff03821115611e7757611e76611f6f565b5b828201905092915050565b6000611e8d82611ea0565b9050919050565b60008115159050919050565b600073ffffffffffffffffffffffffffffffffffffffff82169050919050565b6000819050919050565b82818337600083830152505050565b60005b83811015611ef7578082015181840152602081019050611edc565b83811115611f06576000848401525b50505050565b60006002820490506001821680611f2457607f821691505b60208210811415611f3857611f37611f9e565b5b50919050565b611f478261203f565b810181811067ffffffffffffffff82111715611f6657611f65611ffc565b5b80604052505050565b7f4e487b7100000000000000000000000000000000000000000000000000000000600052601160045260246000fd5b7f4e487b7100000000000000000000000000000000000000000000000000000000600052602260045260246000fd5b7f4e487b7100000000000000000000000000000000000000000000000000000000600052603260045260246000fd5b7f4e487b7100000000000000000000000000000000000000000000000000000000600052604160045260246000fd5b600080fd5b600080fd5b600080fd5b600080fd5b6000601f19601f8301169050919050565b7f5472616e73616374696f6e20616d6f756e7420646f6573206e6f74206571756160008201527f6c20746f2061736b696e6720616d6f756e740000000000000000000000000000602082015250565b7f43616e6e6f74207075726368617365206f776e2070726f706572747900000000600082015250565b7f4f6e6c79206f776e65722063616e206578656375746500000000000000000000600082015250565b7f4f6e6c792070726f7065727479206f776e65722063616e206578656375746500600082015250565b7f4f6e6c79206d616e61676572732063616e206578656375746500000000000000600082015250565b7f50726f7065727479206e6f7420666f756e640000000000000000000000000000600082015250565b61217581611e82565b811461218057600080fd5b50565b61218c81611e94565b811461219757600080fd5b50565b6121a381611ec0565b81146121ae57600080fd5b5056fea264697066735822122028f489323a50390bbbce1f7c5b95af49d831e4ae7eeddcd5e16240a6599509b464736f6c63430008050033",
  "linkReferences": {},
  "deployedLinkReferences": {}
}