{
  "contracts/PropertyEscrow.sol": {
    "PropertyEscrow": {
      "abi": [
        {
          "inputs": [],
          "stateMutability": "nonpayable",
          "type": "constructor"
        },
        {
          "inputs": [
            {
              "internalType": "uint256",
              "name": "_id",
              "type": "uint256"
            }
          ],
          "name": "cancelListing",
          "outputs": [
            {
              "internalType": "bool",
              "name": "",
              "type": "bool"
            }
          ],
          "stateMutability": "nonpayable",
          "type": "function"
        },
        {
          "inputs": [
            {
              "internalType": "string",
              "name": "address1",
              "type": "string"
            },
            {
              "internalType": "string",
              "name": "address2",
              "type": "string"
            },
            {
              "internalType": "string",
              "name": "city",
              "type": "string"
            },
            {
              "internalType": "string",
              "name": "province",
              "type": "string"
            },
            {
              "internalType": "string",
              "name": "postcode",
              "type": "string"
            },
            {
              "internalType": "string",
              "name": "country",
              "type": "string"
            },
            {
              "internalType": "string",
              "name": "name",
              "type": "string"
            },
            {
              "internalType": "string",
              "name": "description",
              "type": "string"
            },
            {
              "internalType": "uint256",
              "name": "price",
              "type": "uint256"
            }
          ],
          "name": "createListing",
          "outputs": [
            {
              "internalType": "uint256",
              "name": "",
              "type": "uint256"
            }
          ],
          "stateMutability": "nonpayable",
          "type": "function"
        },
        {
          "inputs": [
            {
              "internalType": "uint256",
              "name": "_id",
              "type": "uint256"
            }
          ],
          "name": "getPropertyDetail",
          "outputs": [
            {
              "components": [
                {
                  "internalType": "uint256",
                  "name": "id",
                  "type": "uint256"
                },
                {
                  "internalType": "string",
                  "name": "name",
                  "type": "string"
                },
                {
                  "internalType": "string",
                  "name": "description",
                  "type": "string"
                },
                {
                  "components": [
                    {
                      "internalType": "string",
                      "name": "address1",
                      "type": "string"
                    },
                    {
                      "internalType": "string",
                      "name": "address2",
                      "type": "string"
                    },
                    {
                      "internalType": "string",
                      "name": "city",
                      "type": "string"
                    },
                    {
                      "internalType": "string",
                      "name": "province",
                      "type": "string"
                    },
                    {
                      "internalType": "string",
                      "name": "postcode",
                      "type": "string"
                    },
                    {
                      "internalType": "string",
                      "name": "country",
                      "type": "string"
                    }
                  ],
                  "internalType": "struct PropertyEscrow.PropertyAddress",
                  "name": "propertyAddress",
                  "type": "tuple"
                },
                {
                  "internalType": "uint256",
                  "name": "price",
                  "type": "uint256"
                },
                {
                  "internalType": "address",
                  "name": "owner",
                  "type": "address"
                },
                {
                  "internalType": "address",
                  "name": "buyer",
                  "type": "address"
                },
                {
                  "internalType": "bool",
                  "name": "isSold",
                  "type": "bool"
                },
                {
                  "internalType": "bool",
                  "name": "onHold",
                  "type": "bool"
                },
                {
                  "internalType": "bool",
                  "name": "isActive",
                  "type": "bool"
                },
                {
                  "internalType": "bool",
                  "name": "isVerified",
                  "type": "bool"
                }
              ],
              "internalType": "struct PropertyEscrow.Property",
              "name": "",
              "type": "tuple"
            }
          ],
          "stateMutability": "view",
          "type": "function"
        },
        {
          "inputs": [
            {
              "internalType": "uint256",
              "name": "_id",
              "type": "uint256"
            }
          ],
          "name": "getPropertyIsActive",
          "outputs": [
            {
              "internalType": "bool",
              "name": "",
              "type": "bool"
            }
          ],
          "stateMutability": "view",
          "type": "function"
        },
        {
          "inputs": [
            {
              "internalType": "uint256",
              "name": "_id",
              "type": "uint256"
            }
          ],
          "name": "getPropertyIsSold",
          "outputs": [
            {
              "internalType": "bool",
              "name": "",
              "type": "bool"
            }
          ],
          "stateMutability": "view",
          "type": "function"
        },
        {
          "inputs": [],
          "name": "getPropertyLength",
          "outputs": [
            {
              "internalType": "uint256",
              "name": "",
              "type": "uint256"
            }
          ],
          "stateMutability": "view",
          "type": "function"
        },
        {
          "inputs": [
            {
              "internalType": "uint256",
              "name": "_id",
              "type": "uint256"
            }
          ],
          "name": "getPropertyPrice",
          "outputs": [
            {
              "internalType": "uint256",
              "name": "",
              "type": "uint256"
            }
          ],
          "stateMutability": "view",
          "type": "function"
        },
        {
          "inputs": [
            {
              "internalType": "address",
              "name": "manager",
              "type": "address"
            }
          ],
          "name": "isManager",
          "outputs": [
            {
              "internalType": "bool",
              "name": "",
              "type": "bool"
            }
          ],
          "stateMutability": "view",
          "type": "function"
        },
        {
          "inputs": [
            {
              "internalType": "uint256",
              "name": "_id",
              "type": "uint256"
            }
          ],
          "name": "payProperty",
          "outputs": [
            {
              "internalType": "bool",
              "name": "",
              "type": "bool"
            }
          ],
          "stateMutability": "payable",
          "type": "function"
        },
        {
          "inputs": [
            {
              "internalType": "address",
              "name": "manager",
              "type": "address"
            },
            {
              "internalType": "bool",
              "name": "state",
              "type": "bool"
            }
          ],
          "name": "setManager",
          "outputs": [
            {
              "internalType": "bool",
              "name": "",
              "type": "bool"
            }
          ],
          "stateMutability": "nonpayable",
          "type": "function"
        },
        {
          "inputs": [
            {
              "internalType": "uint256",
              "name": "_id",
              "type": "uint256"
            },
            {
              "internalType": "bool",
              "name": "_isVerified",
              "type": "bool"
            }
          ],
          "name": "setPropertyIsVerified",
          "outputs": [
            {
              "internalType": "bool",
              "name": "",
              "type": "bool"
            }
          ],
          "stateMutability": "nonpayable",
          "type": "function"
        }
      ],
      "evm": {
        "bytecode": {
          "linkReferences": {},
          "object": "608060405234801561001057600080fd5b50600180546001600160a01b0319163390811782556000908152602081905260409020805460ff1916821790556003556116c58061004f6000396000f3fe60806040526004361061009c5760003560e01c8063686c50e011610064578063686c50e0146101595780639139758514610179578063a5e90eee146101a6578063badf707b146101c6578063c1a82480146101d9578063f3ae2415146101f957600080fd5b80630789752c146100a157806321977f6c146100d4578063305a67a81461010457806344c31fcd1461012457806355fcff1b14610139575b600080fd5b3480156100ad57600080fd5b506100c16100bc3660046113e7565b610219565b6040519081526020015b60405180910390f35b3480156100e057600080fd5b506100f46100ef3660046113e7565b610230565b60405190151581526020016100cb565b34801561011057600080fd5b506100f461011f3660046113e7565b610247565b34801561013057600080fd5b506002546100c1565b34801561014557600080fd5b506100c161015436600461129d565b610398565b34801561016557600080fd5b506100f4610174366004611400565b61062d565b34801561018557600080fd5b506101996101943660046113e7565b61071f565b6040516100cb919061150f565b3480156101b257600080fd5b506100f46101c136600461126a565b610739565b6100f46101d43660046113e7565b6107be565b3480156101e557600080fd5b506100f46101f43660046113e7565b610a35565b34801561020557600080fd5b506100f461021436600461124f565b610a4d565b60008061022583610acb565b608001519392505050565b60008061023c83610acb565b60e001519392505050565b600081600061025582610acb565b90508060a001516001600160a01b0316336001600160a01b0316146102c15760405162461bcd60e51b815260206004820152601f60248201527f4f6e6c792070726f7065727479206f776e65722063616e20657865637574650060448201526064015b60405180910390fd5b60005b6002548110156103535784600282815481106102e2576102e2611663565b90600052602060002090600c02016000015414156103415760006002828154811061030f5761030f611663565b90600052602060002090600c0201600b0160166101000a81548160ff0219169083151502179055506001935050610391565b61034c816001611602565b90506102c4565b5060405162461bcd60e51b8152602060048201526012602482015271141c9bdc195c9d1e481b9bdd08199bdd5b9960721b60448201526064016102b8565b5050919050565b6040805160c080820183528b825260208083018c90528284018b905260608084018b905260808085018b905260a08086018b905286516101608101885260035481528085018b81529781018a90529283018690529082018790523390820152600092810183905260e081018390526101008101839052600161012082018190526101408201849052600280549182018155845281517f405787fa12a823e0f2b7631cc41b3ba8828b3321ca811111fa75cd3aa3bb5ace600c90920291820190815595518051949692948594610491937f405787fa12a823e0f2b7631cc41b3ba8828b3321ca811111fa75cd3aa3bb5acf01920190611071565b50604082015180516104ad916002840191602090910190611071565b5060608201518051805160038401916104cb91839160200190611071565b5060208281015180516104e49260018501920190611071565b5060408201518051610500916002840191602090910190611071565b506060820151805161051c916003840191602090910190611071565b5060808201518051610538916004840191602090910190611071565b5060a08201518051610554916005840191602090910190611071565b5050506080820151600982015560a0820151600a820180546001600160a01b039283166001600160a01b031990911617905560c0830151600b909201805460e0850151610100860151610120870151610140909701511515600160b81b0260ff60b81b19971515600160b01b0260ff60b01b19921515600160a81b029290921661ffff60a81b19931515600160a01b026001600160a81b03199095169790961696909617929092171692909217919091179290921617905560035461061a906001611602565b600355519b9a5050505050505050505050565b3360009081526020819052604081205460ff166106885760405162461bcd60e51b81526020600482015260196024820152784f6e6c79206d616e61676572732063616e206578656375746560381b60448201526064016102b8565b60005b6002548110156103535783600282815481106106a9576106a9611663565b90600052602060002090600c02016000015414156107075782600282815481106106d5576106d5611663565b90600052602060002090600c0201600b0160176101000a81548160ff0219169083151502179055506001915050610719565b610712816001611602565b905061068b565b92915050565b6107276110f5565b600061073283610acb565b9392505050565b6001546000906001600160a01b0316331461078f5760405162461bcd60e51b81526020600482015260166024820152754f6e6c79206f776e65722063616e206578656375746560501b60448201526064016102b8565b506001600160a01b0382166000908152602081905260409020805482151560ff19909116179055600192915050565b6000805b6002548110156103535782600282815481106107e0576107e0611663565b90600052602060002090600c0201600001541415610a23576002818154811061080b5761080b611663565b60009182526020909120600c90910201600a01546001600160a01b03163314156108775760405162461bcd60e51b815260206004820152601c60248201527f43616e6e6f74207075726368617365206f776e2070726f70657274790000000060448201526064016102b8565b6002818154811061088a5761088a611663565b90600052602060002090600c02016009015434146109055760405162461bcd60e51b815260206004820152603260248201527f5472616e73616374696f6e20616d6f756e7420646f6573206e6f7420657175616044820152711b081d1bc8185cdada5b99c8185b5bdd5b9d60721b60648201526084016102b8565b60016002828154811061091a5761091a611663565b90600052602060002090600c0201600b0160146101000a81548160ff02191690831515021790555060006002828154811061095757610957611663565b90600052602060002090600c0201600b0160166101000a81548160ff02191690831515021790555060006002828154811061099457610994611663565b90600052602060002090600c0201600a0160009054906101000a90046001600160a01b03169050806001600160a01b03166108fc600284815481106109db576109db611663565b90600052602060002090600c0201600901549081150290604051600060405180830381858888f19350505050158015610a18573d6000803e3d6000fd5b506001949350505050565b610a2e816001611602565b90506107c2565b600080610a4183610acb565b61012001519392505050565b3360009081526020819052604081205460ff16610aa85760405162461bcd60e51b81526020600482015260196024820152784f6e6c79206d616e61676572732063616e206578656375746560381b60448201526064016102b8565b506001600160a01b03811660009081526020819052604090205460ff165b919050565b610ad36110f5565b60005b600254811015610353578260028281548110610af457610af4611663565b90600052602060002090600c020160000154141561105f5760028181548110610b1f57610b1f611663565b90600052602060002090600c02016040518061016001604052908160008201548152602001600182018054610b5390611628565b80601f0160208091040260200160405190810160405280929190818152602001828054610b7f90611628565b8015610bcc5780601f10610ba157610100808354040283529160200191610bcc565b820191906000526020600020905b815481529060010190602001808311610baf57829003601f168201915b50505050508152602001600282018054610be590611628565b80601f0160208091040260200160405190810160405280929190818152602001828054610c1190611628565b8015610c5e5780601f10610c3357610100808354040283529160200191610c5e565b820191906000526020600020905b815481529060010190602001808311610c4157829003601f168201915b50505050508152602001600382016040518060c0016040529081600082018054610c8790611628565b80601f0160208091040260200160405190810160405280929190818152602001828054610cb390611628565b8015610d005780601f10610cd557610100808354040283529160200191610d00565b820191906000526020600020905b815481529060010190602001808311610ce357829003601f168201915b50505050508152602001600182018054610d1990611628565b80601f0160208091040260200160405190810160405280929190818152602001828054610d4590611628565b8015610d925780601f10610d6757610100808354040283529160200191610d92565b820191906000526020600020905b815481529060010190602001808311610d7557829003601f168201915b50505050508152602001600282018054610dab90611628565b80601f0160208091040260200160405190810160405280929190818152602001828054610dd790611628565b8015610e245780601f10610df957610100808354040283529160200191610e24565b820191906000526020600020905b815481529060010190602001808311610e0757829003601f168201915b50505050508152602001600382018054610e3d90611628565b80601f0160208091040260200160405190810160405280929190818152602001828054610e6990611628565b8015610eb65780601f10610e8b57610100808354040283529160200191610eb6565b820191906000526020600020905b815481529060010190602001808311610e9957829003601f168201915b50505050508152602001600482018054610ecf90611628565b80601f0160208091040260200160405190810160405280929190818152602001828054610efb90611628565b8015610f485780601f10610f1d57610100808354040283529160200191610f48565b820191906000526020600020905b815481529060010190602001808311610f2b57829003601f168201915b50505050508152602001600582018054610f6190611628565b80601f0160208091040260200160405190810160405280929190818152602001828054610f8d90611628565b8015610fda5780601f10610faf57610100808354040283529160200191610fda565b820191906000526020600020905b815481529060010190602001808311610fbd57829003601f168201915b50505091909252505050815260098201546020820152600a8201546001600160a01b039081166040830152600b90920154918216606082015260ff600160a01b8304811615156080830152600160a81b83048116151560a0830152600160b01b83048116151560c0830152600160b81b909204909116151560e0909101529392505050565b61106a816001611602565b9050610ad6565b82805461107d90611628565b90600052602060002090601f01602090048101928261109f57600085556110e5565b82601f106110b857805160ff19168380011785556110e5565b828001600101855582156110e5579182015b828111156110e55782518255916020019190600101906110ca565b506110f1929150611186565b5090565b60405180610160016040528060008152602001606081526020016060815260200161114f6040518060c001604052806060815260200160608152602001606081526020016060815260200160608152602001606081525090565b815260006020820181905260408201819052606082018190526080820181905260a0820181905260c0820181905260e09091015290565b5b808211156110f15760008155600101611187565b80356001600160a01b0381168114610ac657600080fd5b80358015158114610ac657600080fd5b600082601f8301126111d357600080fd5b813567ffffffffffffffff808211156111ee576111ee611679565b604051601f8301601f19908116603f0116810190828211818310171561121657611216611679565b8160405283815286602085880101111561122f57600080fd5b836020870160208301376000602085830101528094505050505092915050565b60006020828403121561126157600080fd5b6107328261119b565b6000806040838503121561127d57600080fd5b6112868361119b565b9150611294602084016111b2565b90509250929050565b60008060008060008060008060006101208a8c0312156112bc57600080fd5b893567ffffffffffffffff808211156112d457600080fd5b6112e08d838e016111c2565b9a5060208c01359150808211156112f657600080fd5b6113028d838e016111c2565b995060408c013591508082111561131857600080fd5b6113248d838e016111c2565b985060608c013591508082111561133a57600080fd5b6113468d838e016111c2565b975060808c013591508082111561135c57600080fd5b6113688d838e016111c2565b965060a08c013591508082111561137e57600080fd5b61138a8d838e016111c2565b955060c08c01359150808211156113a057600080fd5b6113ac8d838e016111c2565b945060e08c01359150808211156113c257600080fd5b506113cf8c828d016111c2565b9250506101008a013590509295985092959850929598565b6000602082840312156113f957600080fd5b5035919050565b6000806040838503121561141357600080fd5b82359150611294602084016111b2565b6000815180845260005b818110156114495760208185018101518683018201520161142d565b8181111561145b576000602083870101525b50601f01601f19169290920160200192915050565b6000815160c0845261148560c0850182611423565b90506020830151848203602086015261149e8282611423565b915050604083015184820360408601526114b88282611423565b915050606083015184820360608601526114d28282611423565b915050608083015184820360808601526114ec8282611423565b91505060a083015184820360a08601526115068282611423565b95945050505050565b602081528151602082015260006020830151610160806040850152611538610180850183611423565b91506040850151601f19808685030160608701526115568483611423565b93506060870151915080868503016080870152506115748382611470565b925050608085015160a085015260a085015161159b60c08601826001600160a01b03169052565b5060c08501516001600160a01b03811660e08601525060e08501516101006115c68187018315159052565b86015190506101206115db8682018315159052565b86015190506101406115f08682018315159052565b90950151151593019290925250919050565b6000821982111561162357634e487b7160e01b600052601160045260246000fd5b500190565b600181811c9082168061163c57607f821691505b6020821081141561165d57634e487b7160e01b600052602260045260246000fd5b50919050565b634e487b7160e01b600052603260045260246000fd5b634e487b7160e01b600052604160045260246000fdfea264697066735822122015e1f5143a42a250fc76a3a7256776f4e889b1cc2e1ca944a06ec07c6b94122164736f6c63430008050033",
          "opcodes": "PUSH1 0x80 PUSH1 0x40 MSTORE CALLVALUE DUP1 ISZERO PUSH2 0x10 JUMPI PUSH1 0x0 DUP1 REVERT JUMPDEST POP PUSH1 0x1 DUP1 SLOAD PUSH1 0x1 PUSH1 0x1 PUSH1 0xA0 SHL SUB NOT AND CALLER SWAP1 DUP2 OR DUP3 SSTORE PUSH1 0x0 SWAP1 DUP2 MSTORE PUSH1 0x20 DUP2 SWAP1 MSTORE PUSH1 0x40 SWAP1 KECCAK256 DUP1 SLOAD PUSH1 0xFF NOT AND DUP3 OR SWAP1 SSTORE PUSH1 0x3 SSTORE PUSH2 0x16C5 DUP1 PUSH2 0x4F PUSH1 0x0 CODECOPY PUSH1 0x0 RETURN INVALID PUSH1 0x80 PUSH1 0x40 MSTORE PUSH1 0x4 CALLDATASIZE LT PUSH2 0x9C JUMPI PUSH1 0x0 CALLDATALOAD PUSH1 0xE0 SHR DUP1 PUSH4 0x686C50E0 GT PUSH2 0x64 JUMPI DUP1 PUSH4 0x686C50E0 EQ PUSH2 0x159 JUMPI DUP1 PUSH4 0x91397585 EQ PUSH2 0x179 JUMPI DUP1 PUSH4 0xA5E90EEE EQ PUSH2 0x1A6 JUMPI DUP1 PUSH4 0xBADF707B EQ PUSH2 0x1C6 JUMPI DUP1 PUSH4 0xC1A82480 EQ PUSH2 0x1D9 JUMPI DUP1 PUSH4 0xF3AE2415 EQ PUSH2 0x1F9 JUMPI PUSH1 0x0 DUP1 REVERT JUMPDEST DUP1 PUSH4 0x789752C EQ PUSH2 0xA1 JUMPI DUP1 PUSH4 0x21977F6C EQ PUSH2 0xD4 JUMPI DUP1 PUSH4 0x305A67A8 EQ PUSH2 0x104 JUMPI DUP1 PUSH4 0x44C31FCD EQ PUSH2 0x124 JUMPI DUP1 PUSH4 0x55FCFF1B EQ PUSH2 0x139 JUMPI JUMPDEST PUSH1 0x0 DUP1 REVERT JUMPDEST CALLVALUE DUP1 ISZERO PUSH2 0xAD JUMPI PUSH1 0x0 DUP1 REVERT JUMPDEST POP PUSH2 0xC1 PUSH2 0xBC CALLDATASIZE PUSH1 0x4 PUSH2 0x13E7 JUMP JUMPDEST PUSH2 0x219 JUMP JUMPDEST PUSH1 0x40 MLOAD SWAP1 DUP2 MSTORE PUSH1 0x20 ADD JUMPDEST PUSH1 0x40 MLOAD DUP1 SWAP2 SUB SWAP1 RETURN JUMPDEST CALLVALUE DUP1 ISZERO PUSH2 0xE0 JUMPI PUSH1 0x0 DUP1 REVERT JUMPDEST POP PUSH2 0xF4 PUSH2 0xEF CALLDATASIZE PUSH1 0x4 PUSH2 0x13E7 JUMP JUMPDEST PUSH2 0x230 JUMP JUMPDEST PUSH1 0x40 MLOAD SWAP1 ISZERO ISZERO DUP2 MSTORE PUSH1 0x20 ADD PUSH2 0xCB JUMP JUMPDEST CALLVALUE DUP1 ISZERO PUSH2 0x110 JUMPI PUSH1 0x0 DUP1 REVERT JUMPDEST POP PUSH2 0xF4 PUSH2 0x11F CALLDATASIZE PUSH1 0x4 PUSH2 0x13E7 JUMP JUMPDEST PUSH2 0x247 JUMP JUMPDEST CALLVALUE DUP1 ISZERO PUSH2 0x130 JUMPI PUSH1 0x0 DUP1 REVERT JUMPDEST POP PUSH1 0x2 SLOAD PUSH2 0xC1 JUMP JUMPDEST CALLVALUE DUP1 ISZERO PUSH2 0x145 JUMPI PUSH1 0x0 DUP1 REVERT JUMPDEST POP PUSH2 0xC1 PUSH2 0x154 CALLDATASIZE PUSH1 0x4 PUSH2 0x129D JUMP JUMPDEST PUSH2 0x398 JUMP JUMPDEST CALLVALUE DUP1 ISZERO PUSH2 0x165 JUMPI PUSH1 0x0 DUP1 REVERT JUMPDEST POP PUSH2 0xF4 PUSH2 0x174 CALLDATASIZE PUSH1 0x4 PUSH2 0x1400 JUMP JUMPDEST PUSH2 0x62D JUMP JUMPDEST CALLVALUE DUP1 ISZERO PUSH2 0x185 JUMPI PUSH1 0x0 DUP1 REVERT JUMPDEST POP PUSH2 0x199 PUSH2 0x194 CALLDATASIZE PUSH1 0x4 PUSH2 0x13E7 JUMP JUMPDEST PUSH2 0x71F JUMP JUMPDEST PUSH1 0x40 MLOAD PUSH2 0xCB SWAP2 SWAP1 PUSH2 0x150F JUMP JUMPDEST CALLVALUE DUP1 ISZERO PUSH2 0x1B2 JUMPI PUSH1 0x0 DUP1 REVERT JUMPDEST POP PUSH2 0xF4 PUSH2 0x1C1 CALLDATASIZE PUSH1 0x4 PUSH2 0x126A JUMP JUMPDEST PUSH2 0x739 JUMP JUMPDEST PUSH2 0xF4 PUSH2 0x1D4 CALLDATASIZE PUSH1 0x4 PUSH2 0x13E7 JUMP JUMPDEST PUSH2 0x7BE JUMP JUMPDEST CALLVALUE DUP1 ISZERO PUSH2 0x1E5 JUMPI PUSH1 0x0 DUP1 REVERT JUMPDEST POP PUSH2 0xF4 PUSH2 0x1F4 CALLDATASIZE PUSH1 0x4 PUSH2 0x13E7 JUMP JUMPDEST PUSH2 0xA35 JUMP JUMPDEST CALLVALUE DUP1 ISZERO PUSH2 0x205 JUMPI PUSH1 0x0 DUP1 REVERT JUMPDEST POP PUSH2 0xF4 PUSH2 0x214 CALLDATASIZE PUSH1 0x4 PUSH2 0x124F JUMP JUMPDEST PUSH2 0xA4D JUMP JUMPDEST PUSH1 0x0 DUP1 PUSH2 0x225 DUP4 PUSH2 0xACB JUMP JUMPDEST PUSH1 0x80 ADD MLOAD SWAP4 SWAP3 POP POP POP JUMP JUMPDEST PUSH1 0x0 DUP1 PUSH2 0x23C DUP4 PUSH2 0xACB JUMP JUMPDEST PUSH1 0xE0 ADD MLOAD SWAP4 SWAP3 POP POP POP JUMP JUMPDEST PUSH1 0x0 DUP2 PUSH1 0x0 PUSH2 0x255 DUP3 PUSH2 0xACB JUMP JUMPDEST SWAP1 POP DUP1 PUSH1 0xA0 ADD MLOAD PUSH1 0x1 PUSH1 0x1 PUSH1 0xA0 SHL SUB AND CALLER PUSH1 0x1 PUSH1 0x1 PUSH1 0xA0 SHL SUB AND EQ PUSH2 0x2C1 JUMPI PUSH1 0x40 MLOAD PUSH3 0x461BCD PUSH1 0xE5 SHL DUP2 MSTORE PUSH1 0x20 PUSH1 0x4 DUP3 ADD MSTORE PUSH1 0x1F PUSH1 0x24 DUP3 ADD MSTORE PUSH32 0x4F6E6C792070726F7065727479206F776E65722063616E206578656375746500 PUSH1 0x44 DUP3 ADD MSTORE PUSH1 0x64 ADD JUMPDEST PUSH1 0x40 MLOAD DUP1 SWAP2 SUB SWAP1 REVERT JUMPDEST PUSH1 0x0 JUMPDEST PUSH1 0x2 SLOAD DUP2 LT ISZERO PUSH2 0x353 JUMPI DUP5 PUSH1 0x2 DUP3 DUP2 SLOAD DUP2 LT PUSH2 0x2E2 JUMPI PUSH2 0x2E2 PUSH2 0x1663 JUMP JUMPDEST SWAP1 PUSH1 0x0 MSTORE PUSH1 0x20 PUSH1 0x0 KECCAK256 SWAP1 PUSH1 0xC MUL ADD PUSH1 0x0 ADD SLOAD EQ ISZERO PUSH2 0x341 JUMPI PUSH1 0x0 PUSH1 0x2 DUP3 DUP2 SLOAD DUP2 LT PUSH2 0x30F JUMPI PUSH2 0x30F PUSH2 0x1663 JUMP JUMPDEST SWAP1 PUSH1 0x0 MSTORE PUSH1 0x20 PUSH1 0x0 KECCAK256 SWAP1 PUSH1 0xC MUL ADD PUSH1 0xB ADD PUSH1 0x16 PUSH2 0x100 EXP DUP2 SLOAD DUP2 PUSH1 0xFF MUL NOT AND SWAP1 DUP4 ISZERO ISZERO MUL OR SWAP1 SSTORE POP PUSH1 0x1 SWAP4 POP POP PUSH2 0x391 JUMP JUMPDEST PUSH2 0x34C DUP2 PUSH1 0x1 PUSH2 0x1602 JUMP JUMPDEST SWAP1 POP PUSH2 0x2C4 JUMP JUMPDEST POP PUSH1 0x40 MLOAD PUSH3 0x461BCD PUSH1 0xE5 SHL DUP2 MSTORE PUSH1 0x20 PUSH1 0x4 DUP3 ADD MSTORE PUSH1 0x12 PUSH1 0x24 DUP3 ADD MSTORE PUSH18 0x141C9BDC195C9D1E481B9BDD08199BDD5B99 PUSH1 0x72 SHL PUSH1 0x44 DUP3 ADD MSTORE PUSH1 0x64 ADD PUSH2 0x2B8 JUMP JUMPDEST POP POP SWAP2 SWAP1 POP JUMP JUMPDEST PUSH1 0x40 DUP1 MLOAD PUSH1 0xC0 DUP1 DUP3 ADD DUP4 MSTORE DUP12 DUP3 MSTORE PUSH1 0x20 DUP1 DUP4 ADD DUP13 SWAP1 MSTORE DUP3 DUP5 ADD DUP12 SWAP1 MSTORE PUSH1 0x60 DUP1 DUP5 ADD DUP12 SWAP1 MSTORE PUSH1 0x80 DUP1 DUP6 ADD DUP12 SWAP1 MSTORE PUSH1 0xA0 DUP1 DUP7 ADD DUP12 SWAP1 MSTORE DUP7 MLOAD PUSH2 0x160 DUP2 ADD DUP9 MSTORE PUSH1 0x3 SLOAD DUP2 MSTORE DUP1 DUP6 ADD DUP12 DUP2 MSTORE SWAP8 DUP2 ADD DUP11 SWAP1 MSTORE SWAP3 DUP4 ADD DUP7 SWAP1 MSTORE SWAP1 DUP3 ADD DUP8 SWAP1 MSTORE CALLER SWAP1 DUP3 ADD MSTORE PUSH1 0x0 SWAP3 DUP2 ADD DUP4 SWAP1 MSTORE PUSH1 0xE0 DUP2 ADD DUP4 SWAP1 MSTORE PUSH2 0x100 DUP2 ADD DUP4 SWAP1 MSTORE PUSH1 0x1 PUSH2 0x120 DUP3 ADD DUP2 SWAP1 MSTORE PUSH2 0x140 DUP3 ADD DUP5 SWAP1 MSTORE PUSH1 0x2 DUP1 SLOAD SWAP2 DUP3 ADD DUP2 SSTORE DUP5 MSTORE DUP2 MLOAD PUSH32 0x405787FA12A823E0F2B7631CC41B3BA8828B3321CA811111FA75CD3AA3BB5ACE PUSH1 0xC SWAP1 SWAP3 MUL SWAP2 DUP3 ADD SWAP1 DUP2 SSTORE SWAP6 MLOAD DUP1 MLOAD SWAP5 SWAP7 SWAP3 SWAP5 DUP6 SWAP5 PUSH2 0x491 SWAP4 PUSH32 0x405787FA12A823E0F2B7631CC41B3BA8828B3321CA811111FA75CD3AA3BB5ACF ADD SWAP3 ADD SWAP1 PUSH2 0x1071 JUMP JUMPDEST POP PUSH1 0x40 DUP3 ADD MLOAD DUP1 MLOAD PUSH2 0x4AD SWAP2 PUSH1 0x2 DUP5 ADD SWAP2 PUSH1 0x20 SWAP1 SWAP2 ADD SWAP1 PUSH2 0x1071 JUMP JUMPDEST POP PUSH1 0x60 DUP3 ADD MLOAD DUP1 MLOAD DUP1 MLOAD PUSH1 0x3 DUP5 ADD SWAP2 PUSH2 0x4CB SWAP2 DUP4 SWAP2 PUSH1 0x20 ADD SWAP1 PUSH2 0x1071 JUMP JUMPDEST POP PUSH1 0x20 DUP3 DUP2 ADD MLOAD DUP1 MLOAD PUSH2 0x4E4 SWAP3 PUSH1 0x1 DUP6 ADD SWAP3 ADD SWAP1 PUSH2 0x1071 JUMP JUMPDEST POP PUSH1 0x40 DUP3 ADD MLOAD DUP1 MLOAD PUSH2 0x500 SWAP2 PUSH1 0x2 DUP5 ADD SWAP2 PUSH1 0x20 SWAP1 SWAP2 ADD SWAP1 PUSH2 0x1071 JUMP JUMPDEST POP PUSH1 0x60 DUP3 ADD MLOAD DUP1 MLOAD PUSH2 0x51C SWAP2 PUSH1 0x3 DUP5 ADD SWAP2 PUSH1 0x20 SWAP1 SWAP2 ADD SWAP1 PUSH2 0x1071 JUMP JUMPDEST POP PUSH1 0x80 DUP3 ADD MLOAD DUP1 MLOAD PUSH2 0x538 SWAP2 PUSH1 0x4 DUP5 ADD SWAP2 PUSH1 0x20 SWAP1 SWAP2 ADD SWAP1 PUSH2 0x1071 JUMP JUMPDEST POP PUSH1 0xA0 DUP3 ADD MLOAD DUP1 MLOAD PUSH2 0x554 SWAP2 PUSH1 0x5 DUP5 ADD SWAP2 PUSH1 0x20 SWAP1 SWAP2 ADD SWAP1 PUSH2 0x1071 JUMP JUMPDEST POP POP POP PUSH1 0x80 DUP3 ADD MLOAD PUSH1 0x9 DUP3 ADD SSTORE PUSH1 0xA0 DUP3 ADD MLOAD PUSH1 0xA DUP3 ADD DUP1 SLOAD PUSH1 0x1 PUSH1 0x1 PUSH1 0xA0 SHL SUB SWAP3 DUP4 AND PUSH1 0x1 PUSH1 0x1 PUSH1 0xA0 SHL SUB NOT SWAP1 SWAP2 AND OR SWAP1 SSTORE PUSH1 0xC0 DUP4 ADD MLOAD PUSH1 0xB SWAP1 SWAP3 ADD DUP1 SLOAD PUSH1 0xE0 DUP6 ADD MLOAD PUSH2 0x100 DUP7 ADD MLOAD PUSH2 0x120 DUP8 ADD MLOAD PUSH2 0x140 SWAP1 SWAP8 ADD MLOAD ISZERO ISZERO PUSH1 0x1 PUSH1 0xB8 SHL MUL PUSH1 0xFF PUSH1 0xB8 SHL NOT SWAP8 ISZERO ISZERO PUSH1 0x1 PUSH1 0xB0 SHL MUL PUSH1 0xFF PUSH1 0xB0 SHL NOT SWAP3 ISZERO ISZERO PUSH1 0x1 PUSH1 0xA8 SHL MUL SWAP3 SWAP1 SWAP3 AND PUSH2 0xFFFF PUSH1 0xA8 SHL NOT SWAP4 ISZERO ISZERO PUSH1 0x1 PUSH1 0xA0 SHL MUL PUSH1 0x1 PUSH1 0x1 PUSH1 0xA8 SHL SUB NOT SWAP1 SWAP6 AND SWAP8 SWAP1 SWAP7 AND SWAP7 SWAP1 SWAP7 OR SWAP3 SWAP1 SWAP3 OR AND SWAP3 SWAP1 SWAP3 OR SWAP2 SWAP1 SWAP2 OR SWAP3 SWAP1 SWAP3 AND OR SWAP1 SSTORE PUSH1 0x3 SLOAD PUSH2 0x61A SWAP1 PUSH1 0x1 PUSH2 0x1602 JUMP JUMPDEST PUSH1 0x3 SSTORE MLOAD SWAP12 SWAP11 POP POP POP POP POP POP POP POP POP POP POP JUMP JUMPDEST CALLER PUSH1 0x0 SWAP1 DUP2 MSTORE PUSH1 0x20 DUP2 SWAP1 MSTORE PUSH1 0x40 DUP2 KECCAK256 SLOAD PUSH1 0xFF AND PUSH2 0x688 JUMPI PUSH1 0x40 MLOAD PUSH3 0x461BCD PUSH1 0xE5 SHL DUP2 MSTORE PUSH1 0x20 PUSH1 0x4 DUP3 ADD MSTORE PUSH1 0x19 PUSH1 0x24 DUP3 ADD MSTORE PUSH25 0x4F6E6C79206D616E61676572732063616E2065786563757465 PUSH1 0x38 SHL PUSH1 0x44 DUP3 ADD MSTORE PUSH1 0x64 ADD PUSH2 0x2B8 JUMP JUMPDEST PUSH1 0x0 JUMPDEST PUSH1 0x2 SLOAD DUP2 LT ISZERO PUSH2 0x353 JUMPI DUP4 PUSH1 0x2 DUP3 DUP2 SLOAD DUP2 LT PUSH2 0x6A9 JUMPI PUSH2 0x6A9 PUSH2 0x1663 JUMP JUMPDEST SWAP1 PUSH1 0x0 MSTORE PUSH1 0x20 PUSH1 0x0 KECCAK256 SWAP1 PUSH1 0xC MUL ADD PUSH1 0x0 ADD SLOAD EQ ISZERO PUSH2 0x707 JUMPI DUP3 PUSH1 0x2 DUP3 DUP2 SLOAD DUP2 LT PUSH2 0x6D5 JUMPI PUSH2 0x6D5 PUSH2 0x1663 JUMP JUMPDEST SWAP1 PUSH1 0x0 MSTORE PUSH1 0x20 PUSH1 0x0 KECCAK256 SWAP1 PUSH1 0xC MUL ADD PUSH1 0xB ADD PUSH1 0x17 PUSH2 0x100 EXP DUP2 SLOAD DUP2 PUSH1 0xFF MUL NOT AND SWAP1 DUP4 ISZERO ISZERO MUL OR SWAP1 SSTORE POP PUSH1 0x1 SWAP2 POP POP PUSH2 0x719 JUMP JUMPDEST PUSH2 0x712 DUP2 PUSH1 0x1 PUSH2 0x1602 JUMP JUMPDEST SWAP1 POP PUSH2 0x68B JUMP JUMPDEST SWAP3 SWAP2 POP POP JUMP JUMPDEST PUSH2 0x727 PUSH2 0x10F5 JUMP JUMPDEST PUSH1 0x0 PUSH2 0x732 DUP4 PUSH2 0xACB JUMP JUMPDEST SWAP4 SWAP3 POP POP POP JUMP JUMPDEST PUSH1 0x1 SLOAD PUSH1 0x0 SWAP1 PUSH1 0x1 PUSH1 0x1 PUSH1 0xA0 SHL SUB AND CALLER EQ PUSH2 0x78F JUMPI PUSH1 0x40 MLOAD PUSH3 0x461BCD PUSH1 0xE5 SHL DUP2 MSTORE PUSH1 0x20 PUSH1 0x4 DUP3 ADD MSTORE PUSH1 0x16 PUSH1 0x24 DUP3 ADD MSTORE PUSH22 0x4F6E6C79206F776E65722063616E2065786563757465 PUSH1 0x50 SHL PUSH1 0x44 DUP3 ADD MSTORE PUSH1 0x64 ADD PUSH2 0x2B8 JUMP JUMPDEST POP PUSH1 0x1 PUSH1 0x1 PUSH1 0xA0 SHL SUB DUP3 AND PUSH1 0x0 SWAP1 DUP2 MSTORE PUSH1 0x20 DUP2 SWAP1 MSTORE PUSH1 0x40 SWAP1 KECCAK256 DUP1 SLOAD DUP3 ISZERO ISZERO PUSH1 0xFF NOT SWAP1 SWAP2 AND OR SWAP1 SSTORE PUSH1 0x1 SWAP3 SWAP2 POP POP JUMP JUMPDEST PUSH1 0x0 DUP1 JUMPDEST PUSH1 0x2 SLOAD DUP2 LT ISZERO PUSH2 0x353 JUMPI DUP3 PUSH1 0x2 DUP3 DUP2 SLOAD DUP2 LT PUSH2 0x7E0 JUMPI PUSH2 0x7E0 PUSH2 0x1663 JUMP JUMPDEST SWAP1 PUSH1 0x0 MSTORE PUSH1 0x20 PUSH1 0x0 KECCAK256 SWAP1 PUSH1 0xC MUL ADD PUSH1 0x0 ADD SLOAD EQ ISZERO PUSH2 0xA23 JUMPI PUSH1 0x2 DUP2 DUP2 SLOAD DUP2 LT PUSH2 0x80B JUMPI PUSH2 0x80B PUSH2 0x1663 JUMP JUMPDEST PUSH1 0x0 SWAP2 DUP3 MSTORE PUSH1 0x20 SWAP1 SWAP2 KECCAK256 PUSH1 0xC SWAP1 SWAP2 MUL ADD PUSH1 0xA ADD SLOAD PUSH1 0x1 PUSH1 0x1 PUSH1 0xA0 SHL SUB AND CALLER EQ ISZERO PUSH2 0x877 JUMPI PUSH1 0x40 MLOAD PUSH3 0x461BCD PUSH1 0xE5 SHL DUP2 MSTORE PUSH1 0x20 PUSH1 0x4 DUP3 ADD MSTORE PUSH1 0x1C PUSH1 0x24 DUP3 ADD MSTORE PUSH32 0x43616E6E6F74207075726368617365206F776E2070726F706572747900000000 PUSH1 0x44 DUP3 ADD MSTORE PUSH1 0x64 ADD PUSH2 0x2B8 JUMP JUMPDEST PUSH1 0x2 DUP2 DUP2 SLOAD DUP2 LT PUSH2 0x88A JUMPI PUSH2 0x88A PUSH2 0x1663 JUMP JUMPDEST SWAP1 PUSH1 0x0 MSTORE PUSH1 0x20 PUSH1 0x0 KECCAK256 SWAP1 PUSH1 0xC MUL ADD PUSH1 0x9 ADD SLOAD CALLVALUE EQ PUSH2 0x905 JUMPI PUSH1 0x40 MLOAD PUSH3 0x461BCD PUSH1 0xE5 SHL DUP2 MSTORE PUSH1 0x20 PUSH1 0x4 DUP3 ADD MSTORE PUSH1 0x32 PUSH1 0x24 DUP3 ADD MSTORE PUSH32 0x5472616E73616374696F6E20616D6F756E7420646F6573206E6F742065717561 PUSH1 0x44 DUP3 ADD MSTORE PUSH18 0x1B081D1BC8185CDADA5B99C8185B5BDD5B9D PUSH1 0x72 SHL PUSH1 0x64 DUP3 ADD MSTORE PUSH1 0x84 ADD PUSH2 0x2B8 JUMP JUMPDEST PUSH1 0x1 PUSH1 0x2 DUP3 DUP2 SLOAD DUP2 LT PUSH2 0x91A JUMPI PUSH2 0x91A PUSH2 0x1663 JUMP JUMPDEST SWAP1 PUSH1 0x0 MSTORE PUSH1 0x20 PUSH1 0x0 KECCAK256 SWAP1 PUSH1 0xC MUL ADD PUSH1 0xB ADD PUSH1 0x14 PUSH2 0x100 EXP DUP2 SLOAD DUP2 PUSH1 0xFF MUL NOT AND SWAP1 DUP4 ISZERO ISZERO MUL OR SWAP1 SSTORE POP PUSH1 0x0 PUSH1 0x2 DUP3 DUP2 SLOAD DUP2 LT PUSH2 0x957 JUMPI PUSH2 0x957 PUSH2 0x1663 JUMP JUMPDEST SWAP1 PUSH1 0x0 MSTORE PUSH1 0x20 PUSH1 0x0 KECCAK256 SWAP1 PUSH1 0xC MUL ADD PUSH1 0xB ADD PUSH1 0x16 PUSH2 0x100 EXP DUP2 SLOAD DUP2 PUSH1 0xFF MUL NOT AND SWAP1 DUP4 ISZERO ISZERO MUL OR SWAP1 SSTORE POP PUSH1 0x0 PUSH1 0x2 DUP3 DUP2 SLOAD DUP2 LT PUSH2 0x994 JUMPI PUSH2 0x994 PUSH2 0x1663 JUMP JUMPDEST SWAP1 PUSH1 0x0 MSTORE PUSH1 0x20 PUSH1 0x0 KECCAK256 SWAP1 PUSH1 0xC MUL ADD PUSH1 0xA ADD PUSH1 0x0 SWAP1 SLOAD SWAP1 PUSH2 0x100 EXP SWAP1 DIV PUSH1 0x1 PUSH1 0x1 PUSH1 0xA0 SHL SUB AND SWAP1 POP DUP1 PUSH1 0x1 PUSH1 0x1 PUSH1 0xA0 SHL SUB AND PUSH2 0x8FC PUSH1 0x2 DUP5 DUP2 SLOAD DUP2 LT PUSH2 0x9DB JUMPI PUSH2 0x9DB PUSH2 0x1663 JUMP JUMPDEST SWAP1 PUSH1 0x0 MSTORE PUSH1 0x20 PUSH1 0x0 KECCAK256 SWAP1 PUSH1 0xC MUL ADD PUSH1 0x9 ADD SLOAD SWAP1 DUP2 ISZERO MUL SWAP1 PUSH1 0x40 MLOAD PUSH1 0x0 PUSH1 0x40 MLOAD DUP1 DUP4 SUB DUP2 DUP6 DUP9 DUP9 CALL SWAP4 POP POP POP POP ISZERO DUP1 ISZERO PUSH2 0xA18 JUMPI RETURNDATASIZE PUSH1 0x0 DUP1 RETURNDATACOPY RETURNDATASIZE PUSH1 0x0 REVERT JUMPDEST POP PUSH1 0x1 SWAP5 SWAP4 POP POP POP POP JUMP JUMPDEST PUSH2 0xA2E DUP2 PUSH1 0x1 PUSH2 0x1602 JUMP JUMPDEST SWAP1 POP PUSH2 0x7C2 JUMP JUMPDEST PUSH1 0x0 DUP1 PUSH2 0xA41 DUP4 PUSH2 0xACB JUMP JUMPDEST PUSH2 0x120 ADD MLOAD SWAP4 SWAP3 POP POP POP JUMP JUMPDEST CALLER PUSH1 0x0 SWAP1 DUP2 MSTORE PUSH1 0x20 DUP2 SWAP1 MSTORE PUSH1 0x40 DUP2 KECCAK256 SLOAD PUSH1 0xFF AND PUSH2 0xAA8 JUMPI PUSH1 0x40 MLOAD PUSH3 0x461BCD PUSH1 0xE5 SHL DUP2 MSTORE PUSH1 0x20 PUSH1 0x4 DUP3 ADD MSTORE PUSH1 0x19 PUSH1 0x24 DUP3 ADD MSTORE PUSH25 0x4F6E6C79206D616E61676572732063616E2065786563757465 PUSH1 0x38 SHL PUSH1 0x44 DUP3 ADD MSTORE PUSH1 0x64 ADD PUSH2 0x2B8 JUMP JUMPDEST POP PUSH1 0x1 PUSH1 0x1 PUSH1 0xA0 SHL SUB DUP2 AND PUSH1 0x0 SWAP1 DUP2 MSTORE PUSH1 0x20 DUP2 SWAP1 MSTORE PUSH1 0x40 SWAP1 KECCAK256 SLOAD PUSH1 0xFF AND JUMPDEST SWAP2 SWAP1 POP JUMP JUMPDEST PUSH2 0xAD3 PUSH2 0x10F5 JUMP JUMPDEST PUSH1 0x0 JUMPDEST PUSH1 0x2 SLOAD DUP2 LT ISZERO PUSH2 0x353 JUMPI DUP3 PUSH1 0x2 DUP3 DUP2 SLOAD DUP2 LT PUSH2 0xAF4 JUMPI PUSH2 0xAF4 PUSH2 0x1663 JUMP JUMPDEST SWAP1 PUSH1 0x0 MSTORE PUSH1 0x20 PUSH1 0x0 KECCAK256 SWAP1 PUSH1 0xC MUL ADD PUSH1 0x0 ADD SLOAD EQ ISZERO PUSH2 0x105F JUMPI PUSH1 0x2 DUP2 DUP2 SLOAD DUP2 LT PUSH2 0xB1F JUMPI PUSH2 0xB1F PUSH2 0x1663 JUMP JUMPDEST SWAP1 PUSH1 0x0 MSTORE PUSH1 0x20 PUSH1 0x0 KECCAK256 SWAP1 PUSH1 0xC MUL ADD PUSH1 0x40 MLOAD DUP1 PUSH2 0x160 ADD PUSH1 0x40 MSTORE SWAP1 DUP2 PUSH1 0x0 DUP3 ADD SLOAD DUP2 MSTORE PUSH1 0x20 ADD PUSH1 0x1 DUP3 ADD DUP1 SLOAD PUSH2 0xB53 SWAP1 PUSH2 0x1628 JUMP JUMPDEST DUP1 PUSH1 0x1F ADD PUSH1 0x20 DUP1 SWAP2 DIV MUL PUSH1 0x20 ADD PUSH1 0x40 MLOAD SWAP1 DUP2 ADD PUSH1 0x40 MSTORE DUP1 SWAP3 SWAP2 SWAP1 DUP2 DUP2 MSTORE PUSH1 0x20 ADD DUP3 DUP1 SLOAD PUSH2 0xB7F SWAP1 PUSH2 0x1628 JUMP JUMPDEST DUP1 ISZERO PUSH2 0xBCC JUMPI DUP1 PUSH1 0x1F LT PUSH2 0xBA1 JUMPI PUSH2 0x100 DUP1 DUP4 SLOAD DIV MUL DUP4 MSTORE SWAP2 PUSH1 0x20 ADD SWAP2 PUSH2 0xBCC JUMP JUMPDEST DUP3 ADD SWAP2 SWAP1 PUSH1 0x0 MSTORE PUSH1 0x20 PUSH1 0x0 KECCAK256 SWAP1 JUMPDEST DUP2 SLOAD DUP2 MSTORE SWAP1 PUSH1 0x1 ADD SWAP1 PUSH1 0x20 ADD DUP1 DUP4 GT PUSH2 0xBAF JUMPI DUP3 SWAP1 SUB PUSH1 0x1F AND DUP3 ADD SWAP2 JUMPDEST POP POP POP POP POP DUP2 MSTORE PUSH1 0x20 ADD PUSH1 0x2 DUP3 ADD DUP1 SLOAD PUSH2 0xBE5 SWAP1 PUSH2 0x1628 JUMP JUMPDEST DUP1 PUSH1 0x1F ADD PUSH1 0x20 DUP1 SWAP2 DIV MUL PUSH1 0x20 ADD PUSH1 0x40 MLOAD SWAP1 DUP2 ADD PUSH1 0x40 MSTORE DUP1 SWAP3 SWAP2 SWAP1 DUP2 DUP2 MSTORE PUSH1 0x20 ADD DUP3 DUP1 SLOAD PUSH2 0xC11 SWAP1 PUSH2 0x1628 JUMP JUMPDEST DUP1 ISZERO PUSH2 0xC5E JUMPI DUP1 PUSH1 0x1F LT PUSH2 0xC33 JUMPI PUSH2 0x100 DUP1 DUP4 SLOAD DIV MUL DUP4 MSTORE SWAP2 PUSH1 0x20 ADD SWAP2 PUSH2 0xC5E JUMP JUMPDEST DUP3 ADD SWAP2 SWAP1 PUSH1 0x0 MSTORE PUSH1 0x20 PUSH1 0x0 KECCAK256 SWAP1 JUMPDEST DUP2 SLOAD DUP2 MSTORE SWAP1 PUSH1 0x1 ADD SWAP1 PUSH1 0x20 ADD DUP1 DUP4 GT PUSH2 0xC41 JUMPI DUP3 SWAP1 SUB PUSH1 0x1F AND DUP3 ADD SWAP2 JUMPDEST POP POP POP POP POP DUP2 MSTORE PUSH1 0x20 ADD PUSH1 0x3 DUP3 ADD PUSH1 0x40 MLOAD DUP1 PUSH1 0xC0 ADD PUSH1 0x40 MSTORE SWAP1 DUP2 PUSH1 0x0 DUP3 ADD DUP1 SLOAD PUSH2 0xC87 SWAP1 PUSH2 0x1628 JUMP JUMPDEST DUP1 PUSH1 0x1F ADD PUSH1 0x20 DUP1 SWAP2 DIV MUL PUSH1 0x20 ADD PUSH1 0x40 MLOAD SWAP1 DUP2 ADD PUSH1 0x40 MSTORE DUP1 SWAP3 SWAP2 SWAP1 DUP2 DUP2 MSTORE PUSH1 0x20 ADD DUP3 DUP1 SLOAD PUSH2 0xCB3 SWAP1 PUSH2 0x1628 JUMP JUMPDEST DUP1 ISZERO PUSH2 0xD00 JUMPI DUP1 PUSH1 0x1F LT PUSH2 0xCD5 JUMPI PUSH2 0x100 DUP1 DUP4 SLOAD DIV MUL DUP4 MSTORE SWAP2 PUSH1 0x20 ADD SWAP2 PUSH2 0xD00 JUMP JUMPDEST DUP3 ADD SWAP2 SWAP1 PUSH1 0x0 MSTORE PUSH1 0x20 PUSH1 0x0 KECCAK256 SWAP1 JUMPDEST DUP2 SLOAD DUP2 MSTORE SWAP1 PUSH1 0x1 ADD SWAP1 PUSH1 0x20 ADD DUP1 DUP4 GT PUSH2 0xCE3 JUMPI DUP3 SWAP1 SUB PUSH1 0x1F AND DUP3 ADD SWAP2 JUMPDEST POP POP POP POP POP DUP2 MSTORE PUSH1 0x20 ADD PUSH1 0x1 DUP3 ADD DUP1 SLOAD PUSH2 0xD19 SWAP1 PUSH2 0x1628 JUMP JUMPDEST DUP1 PUSH1 0x1F ADD PUSH1 0x20 DUP1 SWAP2 DIV MUL PUSH1 0x20 ADD PUSH1 0x40 MLOAD SWAP1 DUP2 ADD PUSH1 0x40 MSTORE DUP1 SWAP3 SWAP2 SWAP1 DUP2 DUP2 MSTORE PUSH1 0x20 ADD DUP3 DUP1 SLOAD PUSH2 0xD45 SWAP1 PUSH2 0x1628 JUMP JUMPDEST DUP1 ISZERO PUSH2 0xD92 JUMPI DUP1 PUSH1 0x1F LT PUSH2 0xD67 JUMPI PUSH2 0x100 DUP1 DUP4 SLOAD DIV MUL DUP4 MSTORE SWAP2 PUSH1 0x20 ADD SWAP2 PUSH2 0xD92 JUMP JUMPDEST DUP3 ADD SWAP2 SWAP1 PUSH1 0x0 MSTORE PUSH1 0x20 PUSH1 0x0 KECCAK256 SWAP1 JUMPDEST DUP2 SLOAD DUP2 MSTORE SWAP1 PUSH1 0x1 ADD SWAP1 PUSH1 0x20 ADD DUP1 DUP4 GT PUSH2 0xD75 JUMPI DUP3 SWAP1 SUB PUSH1 0x1F AND DUP3 ADD SWAP2 JUMPDEST POP POP POP POP POP DUP2 MSTORE PUSH1 0x20 ADD PUSH1 0x2 DUP3 ADD DUP1 SLOAD PUSH2 0xDAB SWAP1 PUSH2 0x1628 JUMP JUMPDEST DUP1 PUSH1 0x1F ADD PUSH1 0x20 DUP1 SWAP2 DIV MUL PUSH1 0x20 ADD PUSH1 0x40 MLOAD SWAP1 DUP2 ADD PUSH1 0x40 MSTORE DUP1 SWAP3 SWAP2 SWAP1 DUP2 DUP2 MSTORE PUSH1 0x20 ADD DUP3 DUP1 SLOAD PUSH2 0xDD7 SWAP1 PUSH2 0x1628 JUMP JUMPDEST DUP1 ISZERO PUSH2 0xE24 JUMPI DUP1 PUSH1 0x1F LT PUSH2 0xDF9 JUMPI PUSH2 0x100 DUP1 DUP4 SLOAD DIV MUL DUP4 MSTORE SWAP2 PUSH1 0x20 ADD SWAP2 PUSH2 0xE24 JUMP JUMPDEST DUP3 ADD SWAP2 SWAP1 PUSH1 0x0 MSTORE PUSH1 0x20 PUSH1 0x0 KECCAK256 SWAP1 JUMPDEST DUP2 SLOAD DUP2 MSTORE SWAP1 PUSH1 0x1 ADD SWAP1 PUSH1 0x20 ADD DUP1 DUP4 GT PUSH2 0xE07 JUMPI DUP3 SWAP1 SUB PUSH1 0x1F AND DUP3 ADD SWAP2 JUMPDEST POP POP POP POP POP DUP2 MSTORE PUSH1 0x20 ADD PUSH1 0x3 DUP3 ADD DUP1 SLOAD PUSH2 0xE3D SWAP1 PUSH2 0x1628 JUMP JUMPDEST DUP1 PUSH1 0x1F ADD PUSH1 0x20 DUP1 SWAP2 DIV MUL PUSH1 0x20 ADD PUSH1 0x40 MLOAD SWAP1 DUP2 ADD PUSH1 0x40 MSTORE DUP1 SWAP3 SWAP2 SWAP1 DUP2 DUP2 MSTORE PUSH1 0x20 ADD DUP3 DUP1 SLOAD PUSH2 0xE69 SWAP1 PUSH2 0x1628 JUMP JUMPDEST DUP1 ISZERO PUSH2 0xEB6 JUMPI DUP1 PUSH1 0x1F LT PUSH2 0xE8B JUMPI PUSH2 0x100 DUP1 DUP4 SLOAD DIV MUL DUP4 MSTORE SWAP2 PUSH1 0x20 ADD SWAP2 PUSH2 0xEB6 JUMP JUMPDEST DUP3 ADD SWAP2 SWAP1 PUSH1 0x0 MSTORE PUSH1 0x20 PUSH1 0x0 KECCAK256 SWAP1 JUMPDEST DUP2 SLOAD DUP2 MSTORE SWAP1 PUSH1 0x1 ADD SWAP1 PUSH1 0x20 ADD DUP1 DUP4 GT PUSH2 0xE99 JUMPI DUP3 SWAP1 SUB PUSH1 0x1F AND DUP3 ADD SWAP2 JUMPDEST POP POP POP POP POP DUP2 MSTORE PUSH1 0x20 ADD PUSH1 0x4 DUP3 ADD DUP1 SLOAD PUSH2 0xECF SWAP1 PUSH2 0x1628 JUMP JUMPDEST DUP1 PUSH1 0x1F ADD PUSH1 0x20 DUP1 SWAP2 DIV MUL PUSH1 0x20 ADD PUSH1 0x40 MLOAD SWAP1 DUP2 ADD PUSH1 0x40 MSTORE DUP1 SWAP3 SWAP2 SWAP1 DUP2 DUP2 MSTORE PUSH1 0x20 ADD DUP3 DUP1 SLOAD PUSH2 0xEFB SWAP1 PUSH2 0x1628 JUMP JUMPDEST DUP1 ISZERO PUSH2 0xF48 JUMPI DUP1 PUSH1 0x1F LT PUSH2 0xF1D JUMPI PUSH2 0x100 DUP1 DUP4 SLOAD DIV MUL DUP4 MSTORE SWAP2 PUSH1 0x20 ADD SWAP2 PUSH2 0xF48 JUMP JUMPDEST DUP3 ADD SWAP2 SWAP1 PUSH1 0x0 MSTORE PUSH1 0x20 PUSH1 0x0 KECCAK256 SWAP1 JUMPDEST DUP2 SLOAD DUP2 MSTORE SWAP1 PUSH1 0x1 ADD SWAP1 PUSH1 0x20 ADD DUP1 DUP4 GT PUSH2 0xF2B JUMPI DUP3 SWAP1 SUB PUSH1 0x1F AND DUP3 ADD SWAP2 JUMPDEST POP POP POP POP POP DUP2 MSTORE PUSH1 0x20 ADD PUSH1 0x5 DUP3 ADD DUP1 SLOAD PUSH2 0xF61 SWAP1 PUSH2 0x1628 JUMP JUMPDEST DUP1 PUSH1 0x1F ADD PUSH1 0x20 DUP1 SWAP2 DIV MUL PUSH1 0x20 ADD PUSH1 0x40 MLOAD SWAP1 DUP2 ADD PUSH1 0x40 MSTORE DUP1 SWAP3 SWAP2 SWAP1 DUP2 DUP2 MSTORE PUSH1 0x20 ADD DUP3 DUP1 SLOAD PUSH2 0xF8D SWAP1 PUSH2 0x1628 JUMP JUMPDEST DUP1 ISZERO PUSH2 0xFDA JUMPI DUP1 PUSH1 0x1F LT PUSH2 0xFAF JUMPI PUSH2 0x100 DUP1 DUP4 SLOAD DIV MUL DUP4 MSTORE SWAP2 PUSH1 0x20 ADD SWAP2 PUSH2 0xFDA JUMP JUMPDEST DUP3 ADD SWAP2 SWAP1 PUSH1 0x0 MSTORE PUSH1 0x20 PUSH1 0x0 KECCAK256 SWAP1 JUMPDEST DUP2 SLOAD DUP2 MSTORE SWAP1 PUSH1 0x1 ADD SWAP1 PUSH1 0x20 ADD DUP1 DUP4 GT PUSH2 0xFBD JUMPI DUP3 SWAP1 SUB PUSH1 0x1F AND DUP3 ADD SWAP2 JUMPDEST POP POP POP SWAP2 SWAP1 SWAP3 MSTORE POP POP POP DUP2 MSTORE PUSH1 0x9 DUP3 ADD SLOAD PUSH1 0x20 DUP3 ADD MSTORE PUSH1 0xA DUP3 ADD SLOAD PUSH1 0x1 PUSH1 0x1 PUSH1 0xA0 SHL SUB SWAP1 DUP2 AND PUSH1 0x40 DUP4 ADD MSTORE PUSH1 0xB SWAP1 SWAP3 ADD SLOAD SWAP2 DUP3 AND PUSH1 0x60 DUP3 ADD MSTORE PUSH1 0xFF PUSH1 0x1 PUSH1 0xA0 SHL DUP4 DIV DUP2 AND ISZERO ISZERO PUSH1 0x80 DUP4 ADD MSTORE PUSH1 0x1 PUSH1 0xA8 SHL DUP4 DIV DUP2 AND ISZERO ISZERO PUSH1 0xA0 DUP4 ADD MSTORE PUSH1 0x1 PUSH1 0xB0 SHL DUP4 DIV DUP2 AND ISZERO ISZERO PUSH1 0xC0 DUP4 ADD MSTORE PUSH1 0x1 PUSH1 0xB8 SHL SWAP1 SWAP3 DIV SWAP1 SWAP2 AND ISZERO ISZERO PUSH1 0xE0 SWAP1 SWAP2 ADD MSTORE SWAP4 SWAP3 POP POP POP JUMP JUMPDEST PUSH2 0x106A DUP2 PUSH1 0x1 PUSH2 0x1602 JUMP JUMPDEST SWAP1 POP PUSH2 0xAD6 JUMP JUMPDEST DUP3 DUP1 SLOAD PUSH2 0x107D SWAP1 PUSH2 0x1628 JUMP JUMPDEST SWAP1 PUSH1 0x0 MSTORE PUSH1 0x20 PUSH1 0x0 KECCAK256 SWAP1 PUSH1 0x1F ADD PUSH1 0x20 SWAP1 DIV DUP2 ADD SWAP3 DUP3 PUSH2 0x109F JUMPI PUSH1 0x0 DUP6 SSTORE PUSH2 0x10E5 JUMP JUMPDEST DUP3 PUSH1 0x1F LT PUSH2 0x10B8 JUMPI DUP1 MLOAD PUSH1 0xFF NOT AND DUP4 DUP1 ADD OR DUP6 SSTORE PUSH2 0x10E5 JUMP JUMPDEST DUP3 DUP1 ADD PUSH1 0x1 ADD DUP6 SSTORE DUP3 ISZERO PUSH2 0x10E5 JUMPI SWAP2 DUP3 ADD JUMPDEST DUP3 DUP2 GT ISZERO PUSH2 0x10E5 JUMPI DUP3 MLOAD DUP3 SSTORE SWAP2 PUSH1 0x20 ADD SWAP2 SWAP1 PUSH1 0x1 ADD SWAP1 PUSH2 0x10CA JUMP JUMPDEST POP PUSH2 0x10F1 SWAP3 SWAP2 POP PUSH2 0x1186 JUMP JUMPDEST POP SWAP1 JUMP JUMPDEST PUSH1 0x40 MLOAD DUP1 PUSH2 0x160 ADD PUSH1 0x40 MSTORE DUP1 PUSH1 0x0 DUP2 MSTORE PUSH1 0x20 ADD PUSH1 0x60 DUP2 MSTORE PUSH1 0x20 ADD PUSH1 0x60 DUP2 MSTORE PUSH1 0x20 ADD PUSH2 0x114F PUSH1 0x40 MLOAD DUP1 PUSH1 0xC0 ADD PUSH1 0x40 MSTORE DUP1 PUSH1 0x60 DUP2 MSTORE PUSH1 0x20 ADD PUSH1 0x60 DUP2 MSTORE PUSH1 0x20 ADD PUSH1 0x60 DUP2 MSTORE PUSH1 0x20 ADD PUSH1 0x60 DUP2 MSTORE PUSH1 0x20 ADD PUSH1 0x60 DUP2 MSTORE PUSH1 0x20 ADD PUSH1 0x60 DUP2 MSTORE POP SWAP1 JUMP JUMPDEST DUP2 MSTORE PUSH1 0x0 PUSH1 0x20 DUP3 ADD DUP2 SWAP1 MSTORE PUSH1 0x40 DUP3 ADD DUP2 SWAP1 MSTORE PUSH1 0x60 DUP3 ADD DUP2 SWAP1 MSTORE PUSH1 0x80 DUP3 ADD DUP2 SWAP1 MSTORE PUSH1 0xA0 DUP3 ADD DUP2 SWAP1 MSTORE PUSH1 0xC0 DUP3 ADD DUP2 SWAP1 MSTORE PUSH1 0xE0 SWAP1 SWAP2 ADD MSTORE SWAP1 JUMP JUMPDEST JUMPDEST DUP1 DUP3 GT ISZERO PUSH2 0x10F1 JUMPI PUSH1 0x0 DUP2 SSTORE PUSH1 0x1 ADD PUSH2 0x1187 JUMP JUMPDEST DUP1 CALLDATALOAD PUSH1 0x1 PUSH1 0x1 PUSH1 0xA0 SHL SUB DUP2 AND DUP2 EQ PUSH2 0xAC6 JUMPI PUSH1 0x0 DUP1 REVERT JUMPDEST DUP1 CALLDATALOAD DUP1 ISZERO ISZERO DUP2 EQ PUSH2 0xAC6 JUMPI PUSH1 0x0 DUP1 REVERT JUMPDEST PUSH1 0x0 DUP3 PUSH1 0x1F DUP4 ADD SLT PUSH2 0x11D3 JUMPI PUSH1 0x0 DUP1 REVERT JUMPDEST DUP2 CALLDATALOAD PUSH8 0xFFFFFFFFFFFFFFFF DUP1 DUP3 GT ISZERO PUSH2 0x11EE JUMPI PUSH2 0x11EE PUSH2 0x1679 JUMP JUMPDEST PUSH1 0x40 MLOAD PUSH1 0x1F DUP4 ADD PUSH1 0x1F NOT SWAP1 DUP2 AND PUSH1 0x3F ADD AND DUP2 ADD SWAP1 DUP3 DUP3 GT DUP2 DUP4 LT OR ISZERO PUSH2 0x1216 JUMPI PUSH2 0x1216 PUSH2 0x1679 JUMP JUMPDEST DUP2 PUSH1 0x40 MSTORE DUP4 DUP2 MSTORE DUP7 PUSH1 0x20 DUP6 DUP9 ADD ADD GT ISZERO PUSH2 0x122F JUMPI PUSH1 0x0 DUP1 REVERT JUMPDEST DUP4 PUSH1 0x20 DUP8 ADD PUSH1 0x20 DUP4 ADD CALLDATACOPY PUSH1 0x0 PUSH1 0x20 DUP6 DUP4 ADD ADD MSTORE DUP1 SWAP5 POP POP POP POP POP SWAP3 SWAP2 POP POP JUMP JUMPDEST PUSH1 0x0 PUSH1 0x20 DUP3 DUP5 SUB SLT ISZERO PUSH2 0x1261 JUMPI PUSH1 0x0 DUP1 REVERT JUMPDEST PUSH2 0x732 DUP3 PUSH2 0x119B JUMP JUMPDEST PUSH1 0x0 DUP1 PUSH1 0x40 DUP4 DUP6 SUB SLT ISZERO PUSH2 0x127D JUMPI PUSH1 0x0 DUP1 REVERT JUMPDEST PUSH2 0x1286 DUP4 PUSH2 0x119B JUMP JUMPDEST SWAP2 POP PUSH2 0x1294 PUSH1 0x20 DUP5 ADD PUSH2 0x11B2 JUMP JUMPDEST SWAP1 POP SWAP3 POP SWAP3 SWAP1 POP JUMP JUMPDEST PUSH1 0x0 DUP1 PUSH1 0x0 DUP1 PUSH1 0x0 DUP1 PUSH1 0x0 DUP1 PUSH1 0x0 PUSH2 0x120 DUP11 DUP13 SUB SLT ISZERO PUSH2 0x12BC JUMPI PUSH1 0x0 DUP1 REVERT JUMPDEST DUP10 CALLDATALOAD PUSH8 0xFFFFFFFFFFFFFFFF DUP1 DUP3 GT ISZERO PUSH2 0x12D4 JUMPI PUSH1 0x0 DUP1 REVERT JUMPDEST PUSH2 0x12E0 DUP14 DUP4 DUP15 ADD PUSH2 0x11C2 JUMP JUMPDEST SWAP11 POP PUSH1 0x20 DUP13 ADD CALLDATALOAD SWAP2 POP DUP1 DUP3 GT ISZERO PUSH2 0x12F6 JUMPI PUSH1 0x0 DUP1 REVERT JUMPDEST PUSH2 0x1302 DUP14 DUP4 DUP15 ADD PUSH2 0x11C2 JUMP JUMPDEST SWAP10 POP PUSH1 0x40 DUP13 ADD CALLDATALOAD SWAP2 POP DUP1 DUP3 GT ISZERO PUSH2 0x1318 JUMPI PUSH1 0x0 DUP1 REVERT JUMPDEST PUSH2 0x1324 DUP14 DUP4 DUP15 ADD PUSH2 0x11C2 JUMP JUMPDEST SWAP9 POP PUSH1 0x60 DUP13 ADD CALLDATALOAD SWAP2 POP DUP1 DUP3 GT ISZERO PUSH2 0x133A JUMPI PUSH1 0x0 DUP1 REVERT JUMPDEST PUSH2 0x1346 DUP14 DUP4 DUP15 ADD PUSH2 0x11C2 JUMP JUMPDEST SWAP8 POP PUSH1 0x80 DUP13 ADD CALLDATALOAD SWAP2 POP DUP1 DUP3 GT ISZERO PUSH2 0x135C JUMPI PUSH1 0x0 DUP1 REVERT JUMPDEST PUSH2 0x1368 DUP14 DUP4 DUP15 ADD PUSH2 0x11C2 JUMP JUMPDEST SWAP7 POP PUSH1 0xA0 DUP13 ADD CALLDATALOAD SWAP2 POP DUP1 DUP3 GT ISZERO PUSH2 0x137E JUMPI PUSH1 0x0 DUP1 REVERT JUMPDEST PUSH2 0x138A DUP14 DUP4 DUP15 ADD PUSH2 0x11C2 JUMP JUMPDEST SWAP6 POP PUSH1 0xC0 DUP13 ADD CALLDATALOAD SWAP2 POP DUP1 DUP3 GT ISZERO PUSH2 0x13A0 JUMPI PUSH1 0x0 DUP1 REVERT JUMPDEST PUSH2 0x13AC DUP14 DUP4 DUP15 ADD PUSH2 0x11C2 JUMP JUMPDEST SWAP5 POP PUSH1 0xE0 DUP13 ADD CALLDATALOAD SWAP2 POP DUP1 DUP3 GT ISZERO PUSH2 0x13C2 JUMPI PUSH1 0x0 DUP1 REVERT JUMPDEST POP PUSH2 0x13CF DUP13 DUP3 DUP14 ADD PUSH2 0x11C2 JUMP JUMPDEST SWAP3 POP POP PUSH2 0x100 DUP11 ADD CALLDATALOAD SWAP1 POP SWAP3 SWAP6 SWAP9 POP SWAP3 SWAP6 SWAP9 POP SWAP3 SWAP6 SWAP9 JUMP JUMPDEST PUSH1 0x0 PUSH1 0x20 DUP3 DUP5 SUB SLT ISZERO PUSH2 0x13F9 JUMPI PUSH1 0x0 DUP1 REVERT JUMPDEST POP CALLDATALOAD SWAP2 SWAP1 POP JUMP JUMPDEST PUSH1 0x0 DUP1 PUSH1 0x40 DUP4 DUP6 SUB SLT ISZERO PUSH2 0x1413 JUMPI PUSH1 0x0 DUP1 REVERT JUMPDEST DUP3 CALLDATALOAD SWAP2 POP PUSH2 0x1294 PUSH1 0x20 DUP5 ADD PUSH2 0x11B2 JUMP JUMPDEST PUSH1 0x0 DUP2 MLOAD DUP1 DUP5 MSTORE PUSH1 0x0 JUMPDEST DUP2 DUP2 LT ISZERO PUSH2 0x1449 JUMPI PUSH1 0x20 DUP2 DUP6 ADD DUP2 ADD MLOAD DUP7 DUP4 ADD DUP3 ADD MSTORE ADD PUSH2 0x142D JUMP JUMPDEST DUP2 DUP2 GT ISZERO PUSH2 0x145B JUMPI PUSH1 0x0 PUSH1 0x20 DUP4 DUP8 ADD ADD MSTORE JUMPDEST POP PUSH1 0x1F ADD PUSH1 0x1F NOT AND SWAP3 SWAP1 SWAP3 ADD PUSH1 0x20 ADD SWAP3 SWAP2 POP POP JUMP JUMPDEST PUSH1 0x0 DUP2 MLOAD PUSH1 0xC0 DUP5 MSTORE PUSH2 0x1485 PUSH1 0xC0 DUP6 ADD DUP3 PUSH2 0x1423 JUMP JUMPDEST SWAP1 POP PUSH1 0x20 DUP4 ADD MLOAD DUP5 DUP3 SUB PUSH1 0x20 DUP7 ADD MSTORE PUSH2 0x149E DUP3 DUP3 PUSH2 0x1423 JUMP JUMPDEST SWAP2 POP POP PUSH1 0x40 DUP4 ADD MLOAD DUP5 DUP3 SUB PUSH1 0x40 DUP7 ADD MSTORE PUSH2 0x14B8 DUP3 DUP3 PUSH2 0x1423 JUMP JUMPDEST SWAP2 POP POP PUSH1 0x60 DUP4 ADD MLOAD DUP5 DUP3 SUB PUSH1 0x60 DUP7 ADD MSTORE PUSH2 0x14D2 DUP3 DUP3 PUSH2 0x1423 JUMP JUMPDEST SWAP2 POP POP PUSH1 0x80 DUP4 ADD MLOAD DUP5 DUP3 SUB PUSH1 0x80 DUP7 ADD MSTORE PUSH2 0x14EC DUP3 DUP3 PUSH2 0x1423 JUMP JUMPDEST SWAP2 POP POP PUSH1 0xA0 DUP4 ADD MLOAD DUP5 DUP3 SUB PUSH1 0xA0 DUP7 ADD MSTORE PUSH2 0x1506 DUP3 DUP3 PUSH2 0x1423 JUMP JUMPDEST SWAP6 SWAP5 POP POP POP POP POP JUMP JUMPDEST PUSH1 0x20 DUP2 MSTORE DUP2 MLOAD PUSH1 0x20 DUP3 ADD MSTORE PUSH1 0x0 PUSH1 0x20 DUP4 ADD MLOAD PUSH2 0x160 DUP1 PUSH1 0x40 DUP6 ADD MSTORE PUSH2 0x1538 PUSH2 0x180 DUP6 ADD DUP4 PUSH2 0x1423 JUMP JUMPDEST SWAP2 POP PUSH1 0x40 DUP6 ADD MLOAD PUSH1 0x1F NOT DUP1 DUP7 DUP6 SUB ADD PUSH1 0x60 DUP8 ADD MSTORE PUSH2 0x1556 DUP5 DUP4 PUSH2 0x1423 JUMP JUMPDEST SWAP4 POP PUSH1 0x60 DUP8 ADD MLOAD SWAP2 POP DUP1 DUP7 DUP6 SUB ADD PUSH1 0x80 DUP8 ADD MSTORE POP PUSH2 0x1574 DUP4 DUP3 PUSH2 0x1470 JUMP JUMPDEST SWAP3 POP POP PUSH1 0x80 DUP6 ADD MLOAD PUSH1 0xA0 DUP6 ADD MSTORE PUSH1 0xA0 DUP6 ADD MLOAD PUSH2 0x159B PUSH1 0xC0 DUP7 ADD DUP3 PUSH1 0x1 PUSH1 0x1 PUSH1 0xA0 SHL SUB AND SWAP1 MSTORE JUMP JUMPDEST POP PUSH1 0xC0 DUP6 ADD MLOAD PUSH1 0x1 PUSH1 0x1 PUSH1 0xA0 SHL SUB DUP2 AND PUSH1 0xE0 DUP7 ADD MSTORE POP PUSH1 0xE0 DUP6 ADD MLOAD PUSH2 0x100 PUSH2 0x15C6 DUP2 DUP8 ADD DUP4 ISZERO ISZERO SWAP1 MSTORE JUMP JUMPDEST DUP7 ADD MLOAD SWAP1 POP PUSH2 0x120 PUSH2 0x15DB DUP7 DUP3 ADD DUP4 ISZERO ISZERO SWAP1 MSTORE JUMP JUMPDEST DUP7 ADD MLOAD SWAP1 POP PUSH2 0x140 PUSH2 0x15F0 DUP7 DUP3 ADD DUP4 ISZERO ISZERO SWAP1 MSTORE JUMP JUMPDEST SWAP1 SWAP6 ADD MLOAD ISZERO ISZERO SWAP4 ADD SWAP3 SWAP1 SWAP3 MSTORE POP SWAP2 SWAP1 POP JUMP JUMPDEST PUSH1 0x0 DUP3 NOT DUP3 GT ISZERO PUSH2 0x1623 JUMPI PUSH4 0x4E487B71 PUSH1 0xE0 SHL PUSH1 0x0 MSTORE PUSH1 0x11 PUSH1 0x4 MSTORE PUSH1 0x24 PUSH1 0x0 REVERT JUMPDEST POP ADD SWAP1 JUMP JUMPDEST PUSH1 0x1 DUP2 DUP2 SHR SWAP1 DUP3 AND DUP1 PUSH2 0x163C JUMPI PUSH1 0x7F DUP3 AND SWAP2 POP JUMPDEST PUSH1 0x20 DUP3 LT DUP2 EQ ISZERO PUSH2 0x165D JUMPI PUSH4 0x4E487B71 PUSH1 0xE0 SHL PUSH1 0x0 MSTORE PUSH1 0x22 PUSH1 0x4 MSTORE PUSH1 0x24 PUSH1 0x0 REVERT JUMPDEST POP SWAP2 SWAP1 POP JUMP JUMPDEST PUSH4 0x4E487B71 PUSH1 0xE0 SHL PUSH1 0x0 MSTORE PUSH1 0x32 PUSH1 0x4 MSTORE PUSH1 0x24 PUSH1 0x0 REVERT JUMPDEST PUSH4 0x4E487B71 PUSH1 0xE0 SHL PUSH1 0x0 MSTORE PUSH1 0x41 PUSH1 0x4 MSTORE PUSH1 0x24 PUSH1 0x0 REVERT INVALID LOG2 PUSH5 0x6970667358 0x22 SLT KECCAK256 ISZERO 0xE1 CREATE2 EQ GASPRICE TIMESTAMP LOG2 POP 0xFC PUSH23 0xA3A7256776F4E889B1CC2E1CA944A06EC07C6B94122164 PUSH20 0x6F6C634300080500330000000000000000000000 "
        },
        "methodIdentifiers": {
          "cancelListing(uint256)": "305a67a8",
          "createListing(string,string,string,string,string,string,string,string,uint256)": "55fcff1b",
          "getPropertyDetail(uint256)": "91397585",
          "getPropertyIsActive(uint256)": "c1a82480",
          "getPropertyIsSold(uint256)": "21977f6c",
          "getPropertyLength()": "44c31fcd",
          "getPropertyPrice(uint256)": "0789752c",
          "isManager(address)": "f3ae2415",
          "payProperty(uint256)": "badf707b",
          "setManager(address,bool)": "a5e90eee",
          "setPropertyIsVerified(uint256,bool)": "686c50e0"
        }
      }
    }
  }
}