{
  "_format": "hh-sol-artifact-1",
  "contractName": "PropertyEscrow",
  "sourceName": "contracts/PropertyEscrow.sol",
  "abi": [
    {
      "inputs": [],
      "stateMutability": "nonpayable",
      "type": "constructor"
    },
    {
      "inputs": [
        {
          "internalType": "uint256",
          "name": "_id",
          "type": "uint256"
        }
      ],
      "name": "cancelListing",
      "outputs": [
        {
          "internalType": "bool",
          "name": "",
          "type": "bool"
        }
      ],
      "stateMutability": "nonpayable",
      "type": "function"
    },
    {
      "inputs": [
        {
          "internalType": "string",
          "name": "address1",
          "type": "string"
        },
        {
          "internalType": "string",
          "name": "address2",
          "type": "string"
        },
        {
          "internalType": "string",
          "name": "city",
          "type": "string"
        },
        {
          "internalType": "string",
          "name": "province",
          "type": "string"
        },
        {
          "internalType": "string",
          "name": "postcode",
          "type": "string"
        },
        {
          "internalType": "string",
          "name": "country",
          "type": "string"
        },
        {
          "internalType": "string",
          "name": "name",
          "type": "string"
        },
        {
          "internalType": "string",
          "name": "description",
          "type": "string"
        },
        {
          "internalType": "uint256",
          "name": "price",
          "type": "uint256"
        }
      ],
      "name": "createListing",
      "outputs": [
        {
          "internalType": "uint256",
          "name": "",
          "type": "uint256"
        }
      ],
      "stateMutability": "nonpayable",
      "type": "function"
    },
    {
      "inputs": [
        {
          "internalType": "uint256",
          "name": "_id",
          "type": "uint256"
        },
        {
          "internalType": "string",
          "name": "name",
          "type": "string"
        },
        {
          "internalType": "string",
          "name": "description",
          "type": "string"
        },
        {
          "internalType": "uint256",
          "name": "price",
          "type": "uint256"
        }
      ],
      "name": "editProperty",
      "outputs": [
        {
          "internalType": "bool",
          "name": "",
          "type": "bool"
        }
      ],
      "stateMutability": "nonpayable",
      "type": "function"
    },
    {
      "inputs": [
        {
          "internalType": "uint256",
          "name": "_id",
          "type": "uint256"
        }
      ],
      "name": "getPropertyDetail",
      "outputs": [
        {
          "components": [
            {
              "internalType": "uint256",
              "name": "id",
              "type": "uint256"
            },
            {
              "internalType": "string",
              "name": "name",
              "type": "string"
            },
            {
              "internalType": "string",
              "name": "description",
              "type": "string"
            },
            {
              "components": [
                {
                  "internalType": "string",
                  "name": "address1",
                  "type": "string"
                },
                {
                  "internalType": "string",
                  "name": "address2",
                  "type": "string"
                },
                {
                  "internalType": "string",
                  "name": "city",
                  "type": "string"
                },
                {
                  "internalType": "string",
                  "name": "province",
                  "type": "string"
                },
                {
                  "internalType": "string",
                  "name": "postcode",
                  "type": "string"
                },
                {
                  "internalType": "string",
                  "name": "country",
                  "type": "string"
                }
              ],
              "internalType": "struct PropertyEscrow.PropertyAddress",
              "name": "propertyAddress",
              "type": "tuple"
            },
            {
              "internalType": "uint256",
              "name": "price",
              "type": "uint256"
            },
            {
              "internalType": "address",
              "name": "owner",
              "type": "address"
            },
            {
              "internalType": "address",
              "name": "buyer",
              "type": "address"
            },
            {
              "internalType": "bool",
              "name": "isSold",
              "type": "bool"
            },
            {
              "internalType": "bool",
              "name": "onHold",
              "type": "bool"
            },
            {
              "internalType": "bool",
              "name": "isActive",
              "type": "bool"
            },
            {
              "internalType": "bool",
              "name": "isVerified",
              "type": "bool"
            }
          ],
          "internalType": "struct PropertyEscrow.Property",
          "name": "",
          "type": "tuple"
        }
      ],
      "stateMutability": "view",
      "type": "function"
    },
    {
      "inputs": [
        {
          "internalType": "uint256",
          "name": "_id",
          "type": "uint256"
        }
      ],
      "name": "getPropertyIsActive",
      "outputs": [
        {
          "internalType": "bool",
          "name": "",
          "type": "bool"
        }
      ],
      "stateMutability": "view",
      "type": "function"
    },
    {
      "inputs": [
        {
          "internalType": "uint256",
          "name": "_id",
          "type": "uint256"
        }
      ],
      "name": "getPropertyIsSold",
      "outputs": [
        {
          "internalType": "bool",
          "name": "",
          "type": "bool"
        }
      ],
      "stateMutability": "view",
      "type": "function"
    },
    {
      "inputs": [],
      "name": "getPropertyLength",
      "outputs": [
        {
          "internalType": "uint256",
          "name": "",
          "type": "uint256"
        }
      ],
      "stateMutability": "view",
      "type": "function"
    },
    {
      "inputs": [],
      "name": "getPropertyList",
      "outputs": [
        {
          "components": [
            {
              "internalType": "uint256",
              "name": "id",
              "type": "uint256"
            },
            {
              "internalType": "string",
              "name": "name",
              "type": "string"
            },
            {
              "internalType": "string",
              "name": "description",
              "type": "string"
            },
            {
              "components": [
                {
                  "internalType": "string",
                  "name": "address1",
                  "type": "string"
                },
                {
                  "internalType": "string",
                  "name": "address2",
                  "type": "string"
                },
                {
                  "internalType": "string",
                  "name": "city",
                  "type": "string"
                },
                {
                  "internalType": "string",
                  "name": "province",
                  "type": "string"
                },
                {
                  "internalType": "string",
                  "name": "postcode",
                  "type": "string"
                },
                {
                  "internalType": "string",
                  "name": "country",
                  "type": "string"
                }
              ],
              "internalType": "struct PropertyEscrow.PropertyAddress",
              "name": "propertyAddress",
              "type": "tuple"
            },
            {
              "internalType": "uint256",
              "name": "price",
              "type": "uint256"
            },
            {
              "internalType": "address",
              "name": "owner",
              "type": "address"
            },
            {
              "internalType": "address",
              "name": "buyer",
              "type": "address"
            },
            {
              "internalType": "bool",
              "name": "isSold",
              "type": "bool"
            },
            {
              "internalType": "bool",
              "name": "onHold",
              "type": "bool"
            },
            {
              "internalType": "bool",
              "name": "isActive",
              "type": "bool"
            },
            {
              "internalType": "bool",
              "name": "isVerified",
              "type": "bool"
            }
          ],
          "internalType": "struct PropertyEscrow.Property[]",
          "name": "",
          "type": "tuple[]"
        }
      ],
      "stateMutability": "view",
      "type": "function"
    },
    {
      "inputs": [
        {
          "internalType": "address",
          "name": "_address",
          "type": "address"
        }
      ],
      "name": "getPropertyListByAddressIsBuyer",
      "outputs": [
        {
          "components": [
            {
              "internalType": "uint256",
              "name": "id",
              "type": "uint256"
            },
            {
              "internalType": "string",
              "name": "name",
              "type": "string"
            },
            {
              "internalType": "string",
              "name": "description",
              "type": "string"
            },
            {
              "components": [
                {
                  "internalType": "string",
                  "name": "address1",
                  "type": "string"
                },
                {
                  "internalType": "string",
                  "name": "address2",
                  "type": "string"
                },
                {
                  "internalType": "string",
                  "name": "city",
                  "type": "string"
                },
                {
                  "internalType": "string",
                  "name": "province",
                  "type": "string"
                },
                {
                  "internalType": "string",
                  "name": "postcode",
                  "type": "string"
                },
                {
                  "internalType": "string",
                  "name": "country",
                  "type": "string"
                }
              ],
              "internalType": "struct PropertyEscrow.PropertyAddress",
              "name": "propertyAddress",
              "type": "tuple"
            },
            {
              "internalType": "uint256",
              "name": "price",
              "type": "uint256"
            },
            {
              "internalType": "address",
              "name": "owner",
              "type": "address"
            },
            {
              "internalType": "address",
              "name": "buyer",
              "type": "address"
            },
            {
              "internalType": "bool",
              "name": "isSold",
              "type": "bool"
            },
            {
              "internalType": "bool",
              "name": "onHold",
              "type": "bool"
            },
            {
              "internalType": "bool",
              "name": "isActive",
              "type": "bool"
            },
            {
              "internalType": "bool",
              "name": "isVerified",
              "type": "bool"
            }
          ],
          "internalType": "struct PropertyEscrow.Property[]",
          "name": "",
          "type": "tuple[]"
        }
      ],
      "stateMutability": "view",
      "type": "function"
    },
    {
      "inputs": [
        {
          "internalType": "address",
          "name": "_address",
          "type": "address"
        }
      ],
      "name": "getPropertyListByAddressIsOwner",
      "outputs": [
        {
          "components": [
            {
              "internalType": "uint256",
              "name": "id",
              "type": "uint256"
            },
            {
              "internalType": "string",
              "name": "name",
              "type": "string"
            },
            {
              "internalType": "string",
              "name": "description",
              "type": "string"
            },
            {
              "components": [
                {
                  "internalType": "string",
                  "name": "address1",
                  "type": "string"
                },
                {
                  "internalType": "string",
                  "name": "address2",
                  "type": "string"
                },
                {
                  "internalType": "string",
                  "name": "city",
                  "type": "string"
                },
                {
                  "internalType": "string",
                  "name": "province",
                  "type": "string"
                },
                {
                  "internalType": "string",
                  "name": "postcode",
                  "type": "string"
                },
                {
                  "internalType": "string",
                  "name": "country",
                  "type": "string"
                }
              ],
              "internalType": "struct PropertyEscrow.PropertyAddress",
              "name": "propertyAddress",
              "type": "tuple"
            },
            {
              "internalType": "uint256",
              "name": "price",
              "type": "uint256"
            },
            {
              "internalType": "address",
              "name": "owner",
              "type": "address"
            },
            {
              "internalType": "address",
              "name": "buyer",
              "type": "address"
            },
            {
              "internalType": "bool",
              "name": "isSold",
              "type": "bool"
            },
            {
              "internalType": "bool",
              "name": "onHold",
              "type": "bool"
            },
            {
              "internalType": "bool",
              "name": "isActive",
              "type": "bool"
            },
            {
              "internalType": "bool",
              "name": "isVerified",
              "type": "bool"
            }
          ],
          "internalType": "struct PropertyEscrow.Property[]",
          "name": "",
          "type": "tuple[]"
        }
      ],
      "stateMutability": "view",
      "type": "function"
    },
    {
      "inputs": [
        {
          "internalType": "uint256",
          "name": "_id",
          "type": "uint256"
        }
      ],
      "name": "getPropertyPrice",
      "outputs": [
        {
          "internalType": "uint256",
          "name": "",
          "type": "uint256"
        }
      ],
      "stateMutability": "view",
      "type": "function"
    },
    {
      "inputs": [],
      "name": "getTotalAmountTransacted",
      "outputs": [
        {
          "internalType": "uint256",
          "name": "",
          "type": "uint256"
        }
      ],
      "stateMutability": "view",
      "type": "function"
    },
    {
      "inputs": [],
      "name": "getTotalListingsSold",
      "outputs": [
        {
          "internalType": "uint256",
          "name": "",
          "type": "uint256"
        }
      ],
      "stateMutability": "view",
      "type": "function"
    },
    {
      "inputs": [
        {
          "internalType": "address",
          "name": "manager",
          "type": "address"
        }
      ],
      "name": "isManager",
      "outputs": [
        {
          "internalType": "bool",
          "name": "",
          "type": "bool"
        }
      ],
      "stateMutability": "view",
      "type": "function"
    },
    {
      "inputs": [
        {
          "internalType": "uint256",
          "name": "_id",
          "type": "uint256"
        }
      ],
      "name": "payProperty",
      "outputs": [
        {
          "internalType": "bool",
          "name": "",
          "type": "bool"
        }
      ],
      "stateMutability": "payable",
      "type": "function"
    },
    {
      "inputs": [
        {
          "internalType": "address",
          "name": "manager",
          "type": "address"
        },
        {
          "internalType": "bool",
          "name": "state",
          "type": "bool"
        }
      ],
      "name": "setManager",
      "outputs": [
        {
          "internalType": "bool",
          "name": "",
          "type": "bool"
        }
      ],
      "stateMutability": "nonpayable",
      "type": "function"
    },
    {
      "inputs": [
        {
          "internalType": "uint256",
          "name": "_id",
          "type": "uint256"
        },
        {
          "internalType": "bool",
          "name": "_isVerified",
          "type": "bool"
        }
      ],
      "name": "setPropertyIsVerified",
      "outputs": [
        {
          "internalType": "bool",
          "name": "",
          "type": "bool"
        }
      ],
      "stateMutability": "nonpayable",
      "type": "function"
    }
  ],
  "bytecode": "0x608060405234801561001057600080fd5b50600180546001600160a01b0319163390811782556000908152602081905260409020805460ff191682179055600355612f148061004f6000396000f3fe6080604052600436106100fe5760003560e01c8063686c50e011610095578063badf707b11610064578063badf707b1461029f578063c1a82480146102b2578063cb6341ce146102d2578063f3ae2415146102f2578063f600f3081461031257600080fd5b8063686c50e0146102055780636d2f69fa146102255780639139758514610252578063a5e90eee1461027f57600080fd5b8063305a67a8116100d1578063305a67a81461019b5780633c5e258c146101bb57806344c31fcd146101d057806355fcff1b146101e557600080fd5b80630789752c146101035780630b4a348c1461013657806321977f6c1461014b57806325db3afa1461017b575b600080fd5b34801561010f57600080fd5b5061012361011e366004612b6b565b610327565b6040519081526020015b60405180910390f35b34801561014257600080fd5b5061012361033e565b34801561015757600080fd5b5061016b610166366004612b6b565b6103d6565b604051901515815260200161012d565b34801561018757600080fd5b5061016b610196366004612ba7565b6103ed565b3480156101a757600080fd5b5061016b6101b6366004612b6b565b61068e565b3480156101c757600080fd5b5061012361079c565b3480156101dc57600080fd5b50600254610123565b3480156101f157600080fd5b50610123610200366004612a21565b610809565b34801561021157600080fd5b5061016b610220366004612b84565b610a9e565b34801561023157600080fd5b506102456102403660046129d3565b610b90565b60405161012d9190612de2565b34801561025e57600080fd5b5061027261026d366004612b6b565b611237565b60405161012d9190612e44565b34801561028b57600080fd5b5061016b61029a3660046129ee565b611251565b61016b6102ad366004612b6b565b6112d6565b3480156102be57600080fd5b5061016b6102cd366004612b6b565b611596565b3480156102de57600080fd5b506102456102ed3660046129d3565b6115ae565b3480156102fe57600080fd5b5061016b61030d3660046129d3565b611c4d565b34801561031e57600080fd5b50610245611ccb565b6000806103338361224f565b608001519392505050565b600080805b6002548110156103d0576002818154811061036057610360612eb2565b90600052602060002090600c0201600b0160149054906101000a900460ff1615156001151514156103be576002818154811061039e5761039e612eb2565b90600052602060002090600c020160090154826103bb9190612e57565b91505b6103c9816001612e57565b9050610343565b50919050565b6000806103e28361224f565b60e001519392505050565b60008460006103fb8261224f565b90508060a001516001600160a01b0316336001600160a01b0316146104675760405162461bcd60e51b815260206004820152601f60248201527f4f6e6c792070726f7065727479206f776e65722063616e20657865637574650060448201526064015b60405180910390fd5b60005b60025481101561064657876002828154811061048857610488612eb2565b90600052602060002090600c020160000154141561063457600281815481106104b3576104b3612eb2565b90600052602060002090600c0201600b0160169054906101000a900460ff161515600115151461051e5760405162461bcd60e51b815260206004820152601660248201527550726f7065727479206973206e6f742061637469766560501b604482015260640161045e565b6002818154811061053157610531612eb2565b60009182526020909120600c90910201600b0154600160a01b900460ff161561058f5760405162461bcd60e51b815260206004820152601060248201526f141c9bdc195c9d1e481a5cc81cdbdb1960821b604482015260640161045e565b86600282815481106105a3576105a3612eb2565b90600052602060002090600c020160010190805190602001906105c79291906127f5565b5085600282815481106105dc576105dc612eb2565b90600052602060002090600c020160020190805190602001906106009291906127f5565b50846002828154811061061557610615612eb2565b90600052602060002090600c0201600901819055506001935050610684565b61063f816001612e57565b905061046a565b5060405162461bcd60e51b8152602060048201526012602482015271141c9bdc195c9d1e481b9bdd08199bdd5b9960721b604482015260640161045e565b5050949350505050565b600081600061069c8261224f565b90508060a001516001600160a01b0316336001600160a01b0316146107035760405162461bcd60e51b815260206004820152601f60248201527f4f6e6c792070726f7065727479206f776e65722063616e206578656375746500604482015260640161045e565b60005b60025481101561064657846002828154811061072457610724612eb2565b90600052602060002090600c02016000015414156107835760006002828154811061075157610751612eb2565b90600052602060002090600c0201600b0160166101000a81548160ff0219169083151502179055506001935050610795565b61078e816001612e57565b9050610706565b5050919050565b600080805b6002548110156103d057600281815481106107be576107be612eb2565b90600052602060002090600c0201600b0160149054906101000a900460ff1615156001151514156107f7576107f4826001612e57565b91505b610802816001612e57565b90506107a1565b6040805160c080820183528b825260208083018c90528284018b905260608084018b905260808085018b905260a08086018b905286516101608101885260035481528085018b81529781018a90529283018690529082018790523390820152600092810183905260e081018390526101008101839052600161012082018190526101408201849052600280549182018155845281517f405787fa12a823e0f2b7631cc41b3ba8828b3321ca811111fa75cd3aa3bb5ace600c90920291820190815595518051949692948594610902937f405787fa12a823e0f2b7631cc41b3ba8828b3321ca811111fa75cd3aa3bb5acf019201906127f5565b506040820151805161091e9160028401916020909101906127f5565b50606082015180518051600384019161093c918391602001906127f5565b50602082810151805161095592600185019201906127f5565b50604082015180516109719160028401916020909101906127f5565b506060820151805161098d9160038401916020909101906127f5565b50608082015180516109a99160048401916020909101906127f5565b5060a082015180516109c59160058401916020909101906127f5565b5050506080820151600982015560a0820151600a820180546001600160a01b039283166001600160a01b031990911617905560c0830151600b909201805460e0850151610100860151610120870151610140909701511515600160b81b0260ff60b81b19971515600160b01b0260ff60b01b19921515600160a81b029290921661ffff60a81b19931515600160a01b026001600160a81b031990951697909616969096179290921716929092179190911792909216179055600354610a8b906001612e57565b600355519b9a5050505050505050505050565b3360009081526020819052604081205460ff16610af95760405162461bcd60e51b81526020600482015260196024820152784f6e6c79206d616e61676572732063616e206578656375746560381b604482015260640161045e565b60005b600254811015610646578360028281548110610b1a57610b1a612eb2565b90600052602060002090600c0201600001541415610b78578260028281548110610b4657610b46612eb2565b90600052602060002090600c0201600b0160176101000a81548160ff0219169083151502179055506001915050610b8a565b610b83816001612e57565b9050610afc565b92915050565b60606000805b600254811015610c0057836001600160a01b031660028281548110610bbd57610bbd612eb2565b60009182526020909120600a600c9092020101546001600160a01b03161415610bee57610beb826001612e57565b91505b610bf9816001612e57565b9050610b96565b5060008167ffffffffffffffff811115610c1c57610c1c612ec8565b604051908082528060200260200182016040528015610c5557816020015b610c42612879565b815260200190600190039081610c3a5790505b50905081610c64579392505050565b60005b60025481101561122f57846001600160a01b031660028281548110610c8e57610c8e612eb2565b60009182526020909120600a600c9092020101546001600160a01b0316141561121d5760028181548110610cc457610cc4612eb2565b90600052602060002090600c02016040518061016001604052908160008201548152602001600182018054610cf890612e7d565b80601f0160208091040260200160405190810160405280929190818152602001828054610d2490612e7d565b8015610d715780601f10610d4657610100808354040283529160200191610d71565b820191906000526020600020905b815481529060010190602001808311610d5457829003601f168201915b50505050508152602001600282018054610d8a90612e7d565b80601f0160208091040260200160405190810160405280929190818152602001828054610db690612e7d565b8015610e035780601f10610dd857610100808354040283529160200191610e03565b820191906000526020600020905b815481529060010190602001808311610de657829003601f168201915b50505050508152602001600382016040518060c0016040529081600082018054610e2c90612e7d565b80601f0160208091040260200160405190810160405280929190818152602001828054610e5890612e7d565b8015610ea55780601f10610e7a57610100808354040283529160200191610ea5565b820191906000526020600020905b815481529060010190602001808311610e8857829003601f168201915b50505050508152602001600182018054610ebe90612e7d565b80601f0160208091040260200160405190810160405280929190818152602001828054610eea90612e7d565b8015610f375780601f10610f0c57610100808354040283529160200191610f37565b820191906000526020600020905b815481529060010190602001808311610f1a57829003601f168201915b50505050508152602001600282018054610f5090612e7d565b80601f0160208091040260200160405190810160405280929190818152602001828054610f7c90612e7d565b8015610fc95780601f10610f9e57610100808354040283529160200191610fc9565b820191906000526020600020905b815481529060010190602001808311610fac57829003601f168201915b50505050508152602001600382018054610fe290612e7d565b80601f016020809104026020016040519081016040528092919081815260200182805461100e90612e7d565b801561105b5780601f106110305761010080835404028352916020019161105b565b820191906000526020600020905b81548152906001019060200180831161103e57829003601f168201915b5050505050815260200160048201805461107490612e7d565b80601f01602080910402602001604051908101604052809291908181526020018280546110a090612e7d565b80156110ed5780601f106110c2576101008083540402835291602001916110ed565b820191906000526020600020905b8154815290600101906020018083116110d057829003601f168201915b5050505050815260200160058201805461110690612e7d565b80601f016020809104026020016040519081016040528092919081815260200182805461113290612e7d565b801561117f5780601f106111545761010080835404028352916020019161117f565b820191906000526020600020905b81548152906001019060200180831161116257829003601f168201915b50505091909252505050815260098201546020820152600a8201546001600160a01b039081166040830152600b90920154918216606082015260ff600160a01b8304811615156080830152600160a81b83048116151560a0830152600160b01b83048116151560c0830152600160b81b909204909116151560e090910152825183908390811061121157611211612eb2565b60200260200101819052505b611228816001612e57565b9050610c67565b509392505050565b61123f612879565b600061124a8361224f565b9392505050565b6001546000906001600160a01b031633146112a75760405162461bcd60e51b81526020600482015260166024820152754f6e6c79206f776e65722063616e206578656375746560501b604482015260640161045e565b506001600160a01b0382166000908152602081905260409020805482151560ff19909116179055600192915050565b6000805b6002548110156106465782600282815481106112f8576112f8612eb2565b90600052602060002090600c0201600001541415611584576002818154811061132357611323612eb2565b60009182526020909120600c90910201600a01546001600160a01b031633141561138f5760405162461bcd60e51b815260206004820152601c60248201527f43616e6e6f74207075726368617365206f776e2070726f706572747900000000604482015260640161045e565b600281815481106113a2576113a2612eb2565b90600052602060002090600c020160090154341461141d5760405162461bcd60e51b815260206004820152603260248201527f5472616e73616374696f6e20616d6f756e7420646f6573206e6f7420657175616044820152711b081d1bc8185cdada5b99c8185b5bdd5b9d60721b606482015260840161045e565b60016002828154811061143257611432612eb2565b90600052602060002090600c0201600b0160146101000a81548160ff02191690831515021790555060006002828154811061146f5761146f612eb2565b90600052602060002090600c0201600b0160166101000a81548160ff02191690831515021790555033600282815481106114ab576114ab612eb2565b90600052602060002090600c0201600b0160006101000a8154816001600160a01b0302191690836001600160a01b031602179055506000600282815481106114f5576114f5612eb2565b90600052602060002090600c0201600a0160009054906101000a90046001600160a01b03169050806001600160a01b03166108fc6002848154811061153c5761153c612eb2565b90600052602060002090600c0201600901549081150290604051600060405180830381858888f19350505050158015611579573d6000803e3d6000fd5b506001949350505050565b61158f816001612e57565b90506112da565b6000806115a28361224f565b61012001519392505050565b60606000805b60025481101561161e57836001600160a01b0316600282815481106115db576115db612eb2565b60009182526020909120600b600c9092020101546001600160a01b0316141561160c57611609826001612e57565b91505b611617816001612e57565b90506115b4565b5060008167ffffffffffffffff81111561163a5761163a612ec8565b60405190808252806020026020018201604052801561167357816020015b611660612879565b8152602001906001900390816116585790505b50905081611682579392505050565b60005b60025481101561122f57846001600160a01b0316600282815481106116ac576116ac612eb2565b60009182526020909120600b600c9092020101546001600160a01b03161415611c3b57600281815481106116e2576116e2612eb2565b90600052602060002090600c0201604051806101600160405290816000820154815260200160018201805461171690612e7d565b80601f016020809104026020016040519081016040528092919081815260200182805461174290612e7d565b801561178f5780601f106117645761010080835404028352916020019161178f565b820191906000526020600020905b81548152906001019060200180831161177257829003601f168201915b505050505081526020016002820180546117a890612e7d565b80601f01602080910402602001604051908101604052809291908181526020018280546117d490612e7d565b80156118215780601f106117f657610100808354040283529160200191611821565b820191906000526020600020905b81548152906001019060200180831161180457829003601f168201915b50505050508152602001600382016040518060c001604052908160008201805461184a90612e7d565b80601f016020809104026020016040519081016040528092919081815260200182805461187690612e7d565b80156118c35780601f10611898576101008083540402835291602001916118c3565b820191906000526020600020905b8154815290600101906020018083116118a657829003601f168201915b505050505081526020016001820180546118dc90612e7d565b80601f016020809104026020016040519081016040528092919081815260200182805461190890612e7d565b80156119555780601f1061192a57610100808354040283529160200191611955565b820191906000526020600020905b81548152906001019060200180831161193857829003601f168201915b5050505050815260200160028201805461196e90612e7d565b80601f016020809104026020016040519081016040528092919081815260200182805461199a90612e7d565b80156119e75780601f106119bc576101008083540402835291602001916119e7565b820191906000526020600020905b8154815290600101906020018083116119ca57829003601f168201915b50505050508152602001600382018054611a0090612e7d565b80601f0160208091040260200160405190810160405280929190818152602001828054611a2c90612e7d565b8015611a795780601f10611a4e57610100808354040283529160200191611a79565b820191906000526020600020905b815481529060010190602001808311611a5c57829003601f168201915b50505050508152602001600482018054611a9290612e7d565b80601f0160208091040260200160405190810160405280929190818152602001828054611abe90612e7d565b8015611b0b5780601f10611ae057610100808354040283529160200191611b0b565b820191906000526020600020905b815481529060010190602001808311611aee57829003601f168201915b50505050508152602001600582018054611b2490612e7d565b80601f0160208091040260200160405190810160405280929190818152602001828054611b5090612e7d565b8015611b9d5780601f10611b7257610100808354040283529160200191611b9d565b820191906000526020600020905b815481529060010190602001808311611b8057829003601f168201915b50505091909252505050815260098201546020820152600a8201546001600160a01b039081166040830152600b90920154918216606082015260ff600160a01b8304811615156080830152600160a81b83048116151560a0830152600160b01b83048116151560c0830152600160b81b909204909116151560e0909101528251839083908110611c2f57611c2f612eb2565b60200260200101819052505b611c46816001612e57565b9050611685565b3360009081526020819052604081205460ff16611ca85760405162461bcd60e51b81526020600482015260196024820152784f6e6c79206d616e61676572732063616e206578656375746560381b604482015260640161045e565b506001600160a01b03811660009081526020819052604090205460ff165b919050565b60606002805480602002602001604051908101604052809291908181526020016000905b8282101561224657838290600052602060002090600c02016040518061016001604052908160008201548152602001600182018054611d2d90612e7d565b80601f0160208091040260200160405190810160405280929190818152602001828054611d5990612e7d565b8015611da65780601f10611d7b57610100808354040283529160200191611da6565b820191906000526020600020905b815481529060010190602001808311611d8957829003601f168201915b50505050508152602001600282018054611dbf90612e7d565b80601f0160208091040260200160405190810160405280929190818152602001828054611deb90612e7d565b8015611e385780601f10611e0d57610100808354040283529160200191611e38565b820191906000526020600020905b815481529060010190602001808311611e1b57829003601f168201915b50505050508152602001600382016040518060c0016040529081600082018054611e6190612e7d565b80601f0160208091040260200160405190810160405280929190818152602001828054611e8d90612e7d565b8015611eda5780601f10611eaf57610100808354040283529160200191611eda565b820191906000526020600020905b815481529060010190602001808311611ebd57829003601f168201915b50505050508152602001600182018054611ef390612e7d565b80601f0160208091040260200160405190810160405280929190818152602001828054611f1f90612e7d565b8015611f6c5780601f10611f4157610100808354040283529160200191611f6c565b820191906000526020600020905b815481529060010190602001808311611f4f57829003601f168201915b50505050508152602001600282018054611f8590612e7d565b80601f0160208091040260200160405190810160405280929190818152602001828054611fb190612e7d565b8015611ffe5780601f10611fd357610100808354040283529160200191611ffe565b820191906000526020600020905b815481529060010190602001808311611fe157829003601f168201915b5050505050815260200160038201805461201790612e7d565b80601f016020809104026020016040519081016040528092919081815260200182805461204390612e7d565b80156120905780601f1061206557610100808354040283529160200191612090565b820191906000526020600020905b81548152906001019060200180831161207357829003601f168201915b505050505081526020016004820180546120a990612e7d565b80601f01602080910402602001604051908101604052809291908181526020018280546120d590612e7d565b80156121225780601f106120f757610100808354040283529160200191612122565b820191906000526020600020905b81548152906001019060200180831161210557829003601f168201915b5050505050815260200160058201805461213b90612e7d565b80601f016020809104026020016040519081016040528092919081815260200182805461216790612e7d565b80156121b45780601f10612189576101008083540402835291602001916121b4565b820191906000526020600020905b81548152906001019060200180831161219757829003601f168201915b5050509190925250505081526009820154602080830191909152600a8301546001600160a01b039081166040840152600b90930154928316606083015260ff600160a01b8404811615156080840152600160a81b84048116151560a0840152600160b01b84048116151560c0840152600160b81b909304909216151560e0909101529082526001929092019101611cef565b50505050905090565b612257612879565b60005b60025481101561064657826002828154811061227857612278612eb2565b90600052602060002090600c02016000015414156127e357600281815481106122a3576122a3612eb2565b90600052602060002090600c020160405180610160016040529081600082015481526020016001820180546122d790612e7d565b80601f016020809104026020016040519081016040528092919081815260200182805461230390612e7d565b80156123505780601f1061232557610100808354040283529160200191612350565b820191906000526020600020905b81548152906001019060200180831161233357829003601f168201915b5050505050815260200160028201805461236990612e7d565b80601f016020809104026020016040519081016040528092919081815260200182805461239590612e7d565b80156123e25780601f106123b7576101008083540402835291602001916123e2565b820191906000526020600020905b8154815290600101906020018083116123c557829003601f168201915b50505050508152602001600382016040518060c001604052908160008201805461240b90612e7d565b80601f016020809104026020016040519081016040528092919081815260200182805461243790612e7d565b80156124845780601f1061245957610100808354040283529160200191612484565b820191906000526020600020905b81548152906001019060200180831161246757829003601f168201915b5050505050815260200160018201805461249d90612e7d565b80601f01602080910402602001604051908101604052809291908181526020018280546124c990612e7d565b80156125165780601f106124eb57610100808354040283529160200191612516565b820191906000526020600020905b8154815290600101906020018083116124f957829003601f168201915b5050505050815260200160028201805461252f90612e7d565b80601f016020809104026020016040519081016040528092919081815260200182805461255b90612e7d565b80156125a85780601f1061257d576101008083540402835291602001916125a8565b820191906000526020600020905b81548152906001019060200180831161258b57829003601f168201915b505050505081526020016003820180546125c190612e7d565b80601f01602080910402602001604051908101604052809291908181526020018280546125ed90612e7d565b801561263a5780601f1061260f5761010080835404028352916020019161263a565b820191906000526020600020905b81548152906001019060200180831161261d57829003601f168201915b5050505050815260200160048201805461265390612e7d565b80601f016020809104026020016040519081016040528092919081815260200182805461267f90612e7d565b80156126cc5780601f106126a1576101008083540402835291602001916126cc565b820191906000526020600020905b8154815290600101906020018083116126af57829003601f168201915b505050505081526020016005820180546126e590612e7d565b80601f016020809104026020016040519081016040528092919081815260200182805461271190612e7d565b801561275e5780601f106127335761010080835404028352916020019161275e565b820191906000526020600020905b81548152906001019060200180831161274157829003601f168201915b50505091909252505050815260098201546020820152600a8201546001600160a01b039081166040830152600b90920154918216606082015260ff600160a01b8304811615156080830152600160a81b83048116151560a0830152600160b01b83048116151560c0830152600160b81b909204909116151560e0909101529392505050565b6127ee816001612e57565b905061225a565b82805461280190612e7d565b90600052602060002090601f0160209004810192826128235760008555612869565b82601f1061283c57805160ff1916838001178555612869565b82800160010185558215612869579182015b8281111561286957825182559160200191906001019061284e565b5061287592915061290a565b5090565b6040518061016001604052806000815260200160608152602001606081526020016128d36040518060c001604052806060815260200160608152602001606081526020016060815260200160608152602001606081525090565b815260006020820181905260408201819052606082018190526080820181905260a0820181905260c0820181905260e09091015290565b5b80821115612875576000815560010161290b565b80356001600160a01b0381168114611cc657600080fd5b80358015158114611cc657600080fd5b600082601f83011261295757600080fd5b813567ffffffffffffffff8082111561297257612972612ec8565b604051601f8301601f19908116603f0116810190828211818310171561299a5761299a612ec8565b816040528381528660208588010111156129b357600080fd5b836020870160208301376000602085830101528094505050505092915050565b6000602082840312156129e557600080fd5b61124a8261291f565b60008060408385031215612a0157600080fd5b612a0a8361291f565b9150612a1860208401612936565b90509250929050565b60008060008060008060008060006101208a8c031215612a4057600080fd5b893567ffffffffffffffff80821115612a5857600080fd5b612a648d838e01612946565b9a5060208c0135915080821115612a7a57600080fd5b612a868d838e01612946565b995060408c0135915080821115612a9c57600080fd5b612aa88d838e01612946565b985060608c0135915080821115612abe57600080fd5b612aca8d838e01612946565b975060808c0135915080821115612ae057600080fd5b612aec8d838e01612946565b965060a08c0135915080821115612b0257600080fd5b612b0e8d838e01612946565b955060c08c0135915080821115612b2457600080fd5b612b308d838e01612946565b945060e08c0135915080821115612b4657600080fd5b50612b538c828d01612946565b9250506101008a013590509295985092959850929598565b600060208284031215612b7d57600080fd5b5035919050565b60008060408385031215612b9757600080fd5b82359150612a1860208401612936565b60008060008060808587031215612bbd57600080fd5b84359350602085013567ffffffffffffffff80821115612bdc57600080fd5b612be888838901612946565b94506040870135915080821115612bfe57600080fd5b50612c0b87828801612946565b949793965093946060013593505050565b6000815180845260005b81811015612c4257602081850181015186830182015201612c26565b81811115612c54576000602083870101525b50601f01601f19169290920160200192915050565b6000815160c08452612c7e60c0850182612c1c565b905060208301518482036020860152612c978282612c1c565b91505060408301518482036040860152612cb18282612c1c565b91505060608301518482036060860152612ccb8282612c1c565b91505060808301518482036080860152612ce58282612c1c565b91505060a083015184820360a0860152612cff8282612c1c565b95945050505050565b6000610160825184526020830151816020860152612d2882860182612c1c565b91505060408301518482036040860152612d428282612c1c565b91505060608301518482036060860152612d5c8282612c69565b9150506080830151608085015260a0830151612d8360a08601826001600160a01b03169052565b5060c0830151612d9e60c08601826001600160a01b03169052565b5060e0830151612db260e086018215159052565b50610100838101511515908501526101208084015115159085015261014092830151151592909301919091525090565b6000602080830181845280855180835260408601915060408160051b870101925083870160005b82811015612e3757603f19888603018452612e25858351612d08565b94509285019290850190600101612e09565b5092979650505050505050565b60208152600061124a6020830184612d08565b60008219821115612e7857634e487b7160e01b600052601160045260246000fd5b500190565b600181811c90821680612e9157607f821691505b602082108114156103d057634e487b7160e01b600052602260045260246000fd5b634e487b7160e01b600052603260045260246000fd5b634e487b7160e01b600052604160045260246000fdfea264697066735822122059ea6a05cfbf6b5b7f846aa21797cab4793ddd907a1bbc5e0beb78d4bd58dde064736f6c63430008050033",
  "linkReferences": {},
  "deployedLinkReferences": {}
}