{
  "_format": "hh-sol-artifact-1",
  "contractName": "PropertyEscrow",
  "sourceName": "contracts/PropertyEscrow.sol",
  "abi": [
    {
      "inputs": [],
      "stateMutability": "nonpayable",
      "type": "constructor"
    },
    {
      "inputs": [
        {
          "internalType": "uint256",
          "name": "_id",
          "type": "uint256"
        }
      ],
      "name": "cancelListing",
      "outputs": [
        {
          "internalType": "bool",
          "name": "",
          "type": "bool"
        }
      ],
      "stateMutability": "nonpayable",
      "type": "function"
    },
    {
      "inputs": [
        {
          "internalType": "string",
          "name": "address1",
          "type": "string"
        },
        {
          "internalType": "string",
          "name": "address2",
          "type": "string"
        },
        {
          "internalType": "string",
          "name": "city",
          "type": "string"
        },
        {
          "internalType": "string",
          "name": "province",
          "type": "string"
        },
        {
          "internalType": "string",
          "name": "postcode",
          "type": "string"
        },
        {
          "internalType": "string",
          "name": "country",
          "type": "string"
        },
        {
          "internalType": "string",
          "name": "name",
          "type": "string"
        },
        {
          "internalType": "string",
          "name": "description",
          "type": "string"
        },
        {
          "internalType": "uint256",
          "name": "price",
          "type": "uint256"
        }
      ],
      "name": "createListing",
      "outputs": [
        {
          "internalType": "uint256",
          "name": "",
          "type": "uint256"
        }
      ],
      "stateMutability": "nonpayable",
      "type": "function"
    },
    {
      "inputs": [
        {
          "internalType": "uint256",
          "name": "_id",
          "type": "uint256"
        }
      ],
      "name": "getPropertyDetail",
      "outputs": [
        {
          "components": [
            {
              "internalType": "uint256",
              "name": "id",
              "type": "uint256"
            },
            {
              "internalType": "string",
              "name": "name",
              "type": "string"
            },
            {
              "internalType": "string",
              "name": "description",
              "type": "string"
            },
            {
              "components": [
                {
                  "internalType": "string",
                  "name": "address1",
                  "type": "string"
                },
                {
                  "internalType": "string",
                  "name": "address2",
                  "type": "string"
                },
                {
                  "internalType": "string",
                  "name": "city",
                  "type": "string"
                },
                {
                  "internalType": "string",
                  "name": "province",
                  "type": "string"
                },
                {
                  "internalType": "string",
                  "name": "postcode",
                  "type": "string"
                },
                {
                  "internalType": "string",
                  "name": "country",
                  "type": "string"
                }
              ],
              "internalType": "struct PropertyEscrow.PropertyAddress",
              "name": "propertyAddress",
              "type": "tuple"
            },
            {
              "internalType": "uint256",
              "name": "price",
              "type": "uint256"
            },
            {
              "internalType": "address",
              "name": "owner",
              "type": "address"
            },
            {
              "internalType": "address",
              "name": "buyer",
              "type": "address"
            },
            {
              "internalType": "bool",
              "name": "isSold",
              "type": "bool"
            },
            {
              "internalType": "bool",
              "name": "onHold",
              "type": "bool"
            },
            {
              "internalType": "bool",
              "name": "isActive",
              "type": "bool"
            },
            {
              "internalType": "bool",
              "name": "isVerified",
              "type": "bool"
            }
          ],
          "internalType": "struct PropertyEscrow.Property",
          "name": "",
          "type": "tuple"
        }
      ],
      "stateMutability": "view",
      "type": "function"
    },
    {
      "inputs": [
        {
          "internalType": "uint256",
          "name": "_id",
          "type": "uint256"
        }
      ],
      "name": "getPropertyIsActive",
      "outputs": [
        {
          "internalType": "bool",
          "name": "",
          "type": "bool"
        }
      ],
      "stateMutability": "view",
      "type": "function"
    },
    {
      "inputs": [
        {
          "internalType": "uint256",
          "name": "_id",
          "type": "uint256"
        }
      ],
      "name": "getPropertyIsSold",
      "outputs": [
        {
          "internalType": "bool",
          "name": "",
          "type": "bool"
        }
      ],
      "stateMutability": "view",
      "type": "function"
    },
    {
      "inputs": [],
      "name": "getPropertyLength",
      "outputs": [
        {
          "internalType": "uint256",
          "name": "",
          "type": "uint256"
        }
      ],
      "stateMutability": "view",
      "type": "function"
    },
    {
      "inputs": [
        {
          "internalType": "uint256",
          "name": "_id",
          "type": "uint256"
        }
      ],
      "name": "getPropertyPrice",
      "outputs": [
        {
          "internalType": "uint256",
          "name": "",
          "type": "uint256"
        }
      ],
      "stateMutability": "view",
      "type": "function"
    },
    {
      "inputs": [
        {
          "internalType": "address",
          "name": "manager",
          "type": "address"
        }
      ],
      "name": "isManager",
      "outputs": [
        {
          "internalType": "bool",
          "name": "",
          "type": "bool"
        }
      ],
      "stateMutability": "view",
      "type": "function"
    },
    {
      "inputs": [
        {
          "internalType": "uint256",
          "name": "_id",
          "type": "uint256"
        }
      ],
      "name": "payProperty",
      "outputs": [
        {
          "internalType": "bool",
          "name": "",
          "type": "bool"
        }
      ],
      "stateMutability": "payable",
      "type": "function"
    },
    {
      "inputs": [
        {
          "internalType": "address",
          "name": "manager",
          "type": "address"
        },
        {
          "internalType": "bool",
          "name": "state",
          "type": "bool"
        }
      ],
      "name": "setManager",
      "outputs": [
        {
          "internalType": "bool",
          "name": "",
          "type": "bool"
        }
      ],
      "stateMutability": "nonpayable",
      "type": "function"
    },
    {
      "inputs": [
        {
          "internalType": "uint256",
          "name": "_id",
          "type": "uint256"
        },
        {
          "internalType": "bool",
          "name": "_isVerified",
          "type": "bool"
        }
      ],
      "name": "setPropertyIsVerified",
      "outputs": [
        {
          "internalType": "bool",
          "name": "",
          "type": "bool"
        }
      ],
      "stateMutability": "nonpayable",
      "type": "function"
    }
  ],
  "bytecode": "0x608060405234801561001057600080fd5b50600180546001600160a01b0319163390811782556000908152602081905260409020805460ff1916821790556003556116c58061004f6000396000f3fe60806040526004361061009c5760003560e01c8063686c50e011610064578063686c50e0146101595780639139758514610179578063a5e90eee146101a6578063badf707b146101c6578063c1a82480146101d9578063f3ae2415146101f957600080fd5b80630789752c146100a157806321977f6c146100d4578063305a67a81461010457806344c31fcd1461012457806355fcff1b14610139575b600080fd5b3480156100ad57600080fd5b506100c16100bc3660046113e7565b610219565b6040519081526020015b60405180910390f35b3480156100e057600080fd5b506100f46100ef3660046113e7565b610230565b60405190151581526020016100cb565b34801561011057600080fd5b506100f461011f3660046113e7565b610247565b34801561013057600080fd5b506002546100c1565b34801561014557600080fd5b506100c161015436600461129d565b610398565b34801561016557600080fd5b506100f4610174366004611400565b61062d565b34801561018557600080fd5b506101996101943660046113e7565b61071f565b6040516100cb919061150f565b3480156101b257600080fd5b506100f46101c136600461126a565b610739565b6100f46101d43660046113e7565b6107be565b3480156101e557600080fd5b506100f46101f43660046113e7565b610a35565b34801561020557600080fd5b506100f461021436600461124f565b610a4d565b60008061022583610acb565b608001519392505050565b60008061023c83610acb565b60e001519392505050565b600081600061025582610acb565b90508060a001516001600160a01b0316336001600160a01b0316146102c15760405162461bcd60e51b815260206004820152601f60248201527f4f6e6c792070726f7065727479206f776e65722063616e20657865637574650060448201526064015b60405180910390fd5b60005b6002548110156103535784600282815481106102e2576102e2611663565b90600052602060002090600c02016000015414156103415760006002828154811061030f5761030f611663565b90600052602060002090600c0201600b0160166101000a81548160ff0219169083151502179055506001935050610391565b61034c816001611602565b90506102c4565b5060405162461bcd60e51b8152602060048201526012602482015271141c9bdc195c9d1e481b9bdd08199bdd5b9960721b60448201526064016102b8565b5050919050565b6040805160c080820183528b825260208083018c90528284018b905260608084018b905260808085018b905260a08086018b905286516101608101885260035481528085018b81529781018a90529283018690529082018790523390820152600092810183905260e081018390526101008101839052600161012082018190526101408201849052600280549182018155845281517f405787fa12a823e0f2b7631cc41b3ba8828b3321ca811111fa75cd3aa3bb5ace600c90920291820190815595518051949692948594610491937f405787fa12a823e0f2b7631cc41b3ba8828b3321ca811111fa75cd3aa3bb5acf01920190611071565b50604082015180516104ad916002840191602090910190611071565b5060608201518051805160038401916104cb91839160200190611071565b5060208281015180516104e49260018501920190611071565b5060408201518051610500916002840191602090910190611071565b506060820151805161051c916003840191602090910190611071565b5060808201518051610538916004840191602090910190611071565b5060a08201518051610554916005840191602090910190611071565b5050506080820151600982015560a0820151600a820180546001600160a01b039283166001600160a01b031990911617905560c0830151600b909201805460e0850151610100860151610120870151610140909701511515600160b81b0260ff60b81b19971515600160b01b0260ff60b01b19921515600160a81b029290921661ffff60a81b19931515600160a01b026001600160a81b03199095169790961696909617929092171692909217919091179290921617905560035461061a906001611602565b600355519b9a5050505050505050505050565b3360009081526020819052604081205460ff166106885760405162461bcd60e51b81526020600482015260196024820152784f6e6c79206d616e61676572732063616e206578656375746560381b60448201526064016102b8565b60005b6002548110156103535783600282815481106106a9576106a9611663565b90600052602060002090600c02016000015414156107075782600282815481106106d5576106d5611663565b90600052602060002090600c0201600b0160176101000a81548160ff0219169083151502179055506001915050610719565b610712816001611602565b905061068b565b92915050565b6107276110f5565b600061073283610acb565b9392505050565b6001546000906001600160a01b0316331461078f5760405162461bcd60e51b81526020600482015260166024820152754f6e6c79206f776e65722063616e206578656375746560501b60448201526064016102b8565b506001600160a01b0382166000908152602081905260409020805482151560ff19909116179055600192915050565b6000805b6002548110156103535782600282815481106107e0576107e0611663565b90600052602060002090600c0201600001541415610a23576002818154811061080b5761080b611663565b60009182526020909120600c90910201600a01546001600160a01b03163314156108775760405162461bcd60e51b815260206004820152601c60248201527f43616e6e6f74207075726368617365206f776e2070726f70657274790000000060448201526064016102b8565b6002818154811061088a5761088a611663565b90600052602060002090600c02016009015434146109055760405162461bcd60e51b815260206004820152603260248201527f5472616e73616374696f6e20616d6f756e7420646f6573206e6f7420657175616044820152711b081d1bc8185cdada5b99c8185b5bdd5b9d60721b60648201526084016102b8565b60016002828154811061091a5761091a611663565b90600052602060002090600c0201600b0160146101000a81548160ff02191690831515021790555060006002828154811061095757610957611663565b90600052602060002090600c0201600b0160166101000a81548160ff02191690831515021790555060006002828154811061099457610994611663565b90600052602060002090600c0201600a0160009054906101000a90046001600160a01b03169050806001600160a01b03166108fc600284815481106109db576109db611663565b90600052602060002090600c0201600901549081150290604051600060405180830381858888f19350505050158015610a18573d6000803e3d6000fd5b506001949350505050565b610a2e816001611602565b90506107c2565b600080610a4183610acb565b61012001519392505050565b3360009081526020819052604081205460ff16610aa85760405162461bcd60e51b81526020600482015260196024820152784f6e6c79206d616e61676572732063616e206578656375746560381b60448201526064016102b8565b506001600160a01b03811660009081526020819052604090205460ff165b919050565b610ad36110f5565b60005b600254811015610353578260028281548110610af457610af4611663565b90600052602060002090600c020160000154141561105f5760028181548110610b1f57610b1f611663565b90600052602060002090600c02016040518061016001604052908160008201548152602001600182018054610b5390611628565b80601f0160208091040260200160405190810160405280929190818152602001828054610b7f90611628565b8015610bcc5780601f10610ba157610100808354040283529160200191610bcc565b820191906000526020600020905b815481529060010190602001808311610baf57829003601f168201915b50505050508152602001600282018054610be590611628565b80601f0160208091040260200160405190810160405280929190818152602001828054610c1190611628565b8015610c5e5780601f10610c3357610100808354040283529160200191610c5e565b820191906000526020600020905b815481529060010190602001808311610c4157829003601f168201915b50505050508152602001600382016040518060c0016040529081600082018054610c8790611628565b80601f0160208091040260200160405190810160405280929190818152602001828054610cb390611628565b8015610d005780601f10610cd557610100808354040283529160200191610d00565b820191906000526020600020905b815481529060010190602001808311610ce357829003601f168201915b50505050508152602001600182018054610d1990611628565b80601f0160208091040260200160405190810160405280929190818152602001828054610d4590611628565b8015610d925780601f10610d6757610100808354040283529160200191610d92565b820191906000526020600020905b815481529060010190602001808311610d7557829003601f168201915b50505050508152602001600282018054610dab90611628565b80601f0160208091040260200160405190810160405280929190818152602001828054610dd790611628565b8015610e245780601f10610df957610100808354040283529160200191610e24565b820191906000526020600020905b815481529060010190602001808311610e0757829003601f168201915b50505050508152602001600382018054610e3d90611628565b80601f0160208091040260200160405190810160405280929190818152602001828054610e6990611628565b8015610eb65780601f10610e8b57610100808354040283529160200191610eb6565b820191906000526020600020905b815481529060010190602001808311610e9957829003601f168201915b50505050508152602001600482018054610ecf90611628565b80601f0160208091040260200160405190810160405280929190818152602001828054610efb90611628565b8015610f485780601f10610f1d57610100808354040283529160200191610f48565b820191906000526020600020905b815481529060010190602001808311610f2b57829003601f168201915b50505050508152602001600582018054610f6190611628565b80601f0160208091040260200160405190810160405280929190818152602001828054610f8d90611628565b8015610fda5780601f10610faf57610100808354040283529160200191610fda565b820191906000526020600020905b815481529060010190602001808311610fbd57829003601f168201915b50505091909252505050815260098201546020820152600a8201546001600160a01b039081166040830152600b90920154918216606082015260ff600160a01b8304811615156080830152600160a81b83048116151560a0830152600160b01b83048116151560c0830152600160b81b909204909116151560e0909101529392505050565b61106a816001611602565b9050610ad6565b82805461107d90611628565b90600052602060002090601f01602090048101928261109f57600085556110e5565b82601f106110b857805160ff19168380011785556110e5565b828001600101855582156110e5579182015b828111156110e55782518255916020019190600101906110ca565b506110f1929150611186565b5090565b60405180610160016040528060008152602001606081526020016060815260200161114f6040518060c001604052806060815260200160608152602001606081526020016060815260200160608152602001606081525090565b815260006020820181905260408201819052606082018190526080820181905260a0820181905260c0820181905260e09091015290565b5b808211156110f15760008155600101611187565b80356001600160a01b0381168114610ac657600080fd5b80358015158114610ac657600080fd5b600082601f8301126111d357600080fd5b813567ffffffffffffffff808211156111ee576111ee611679565b604051601f8301601f19908116603f0116810190828211818310171561121657611216611679565b8160405283815286602085880101111561122f57600080fd5b836020870160208301376000602085830101528094505050505092915050565b60006020828403121561126157600080fd5b6107328261119b565b6000806040838503121561127d57600080fd5b6112868361119b565b9150611294602084016111b2565b90509250929050565b60008060008060008060008060006101208a8c0312156112bc57600080fd5b893567ffffffffffffffff808211156112d457600080fd5b6112e08d838e016111c2565b9a5060208c01359150808211156112f657600080fd5b6113028d838e016111c2565b995060408c013591508082111561131857600080fd5b6113248d838e016111c2565b985060608c013591508082111561133a57600080fd5b6113468d838e016111c2565b975060808c013591508082111561135c57600080fd5b6113688d838e016111c2565b965060a08c013591508082111561137e57600080fd5b61138a8d838e016111c2565b955060c08c01359150808211156113a057600080fd5b6113ac8d838e016111c2565b945060e08c01359150808211156113c257600080fd5b506113cf8c828d016111c2565b9250506101008a013590509295985092959850929598565b6000602082840312156113f957600080fd5b5035919050565b6000806040838503121561141357600080fd5b82359150611294602084016111b2565b6000815180845260005b818110156114495760208185018101518683018201520161142d565b8181111561145b576000602083870101525b50601f01601f19169290920160200192915050565b6000815160c0845261148560c0850182611423565b90506020830151848203602086015261149e8282611423565b915050604083015184820360408601526114b88282611423565b915050606083015184820360608601526114d28282611423565b915050608083015184820360808601526114ec8282611423565b91505060a083015184820360a08601526115068282611423565b95945050505050565b602081528151602082015260006020830151610160806040850152611538610180850183611423565b91506040850151601f19808685030160608701526115568483611423565b93506060870151915080868503016080870152506115748382611470565b925050608085015160a085015260a085015161159b60c08601826001600160a01b03169052565b5060c08501516001600160a01b03811660e08601525060e08501516101006115c68187018315159052565b86015190506101206115db8682018315159052565b86015190506101406115f08682018315159052565b90950151151593019290925250919050565b6000821982111561162357634e487b7160e01b600052601160045260246000fd5b500190565b600181811c9082168061163c57607f821691505b6020821081141561165d57634e487b7160e01b600052602260045260246000fd5b50919050565b634e487b7160e01b600052603260045260246000fd5b634e487b7160e01b600052604160045260246000fdfea264697066735822122025d7cdb88bca13620fa8f10c35b6c298ba4d5a97955b6ea522d043cdd727e1d264736f6c63430008050033",
  "linkReferences": {},
  "deployedLinkReferences": {}
}