{
  "_format": "hh-sol-artifact-1",
  "contractName": "PropertyEscrow",
  "sourceName": "contracts/PropertyEscrow.sol",
  "abi": [
    {
      "inputs": [],
      "stateMutability": "nonpayable",
      "type": "constructor"
    },
    {
      "inputs": [
        {
          "internalType": "uint256",
          "name": "_id",
          "type": "uint256"
        }
      ],
      "name": "cancelListing",
      "outputs": [
        {
          "internalType": "bool",
          "name": "",
          "type": "bool"
        }
      ],
      "stateMutability": "nonpayable",
      "type": "function"
    },
    {
      "inputs": [
        {
          "internalType": "string",
          "name": "address1",
          "type": "string"
        },
        {
          "internalType": "string",
          "name": "address2",
          "type": "string"
        },
        {
          "internalType": "string",
          "name": "city",
          "type": "string"
        },
        {
          "internalType": "string",
          "name": "province",
          "type": "string"
        },
        {
          "internalType": "string",
          "name": "postcode",
          "type": "string"
        },
        {
          "internalType": "string",
          "name": "country",
          "type": "string"
        },
        {
          "internalType": "string",
          "name": "name",
          "type": "string"
        },
        {
          "internalType": "string",
          "name": "description",
          "type": "string"
        },
        {
          "internalType": "uint256",
          "name": "price",
          "type": "uint256"
        }
      ],
      "name": "createListing",
      "outputs": [
        {
          "internalType": "uint256",
          "name": "",
          "type": "uint256"
        }
      ],
      "stateMutability": "nonpayable",
      "type": "function"
    },
    {
      "inputs": [
        {
          "internalType": "uint256",
          "name": "_id",
          "type": "uint256"
        },
        {
          "internalType": "string",
          "name": "name",
          "type": "string"
        },
        {
          "internalType": "string",
          "name": "description",
          "type": "string"
        },
        {
          "internalType": "uint256",
          "name": "price",
          "type": "uint256"
        }
      ],
      "name": "editProperty",
      "outputs": [
        {
          "internalType": "bool",
          "name": "",
          "type": "bool"
        }
      ],
      "stateMutability": "nonpayable",
      "type": "function"
    },
    {
      "inputs": [
        {
          "internalType": "uint256",
          "name": "_id",
          "type": "uint256"
        }
      ],
      "name": "getPropertyDetail",
      "outputs": [
        {
          "components": [
            {
              "internalType": "uint256",
              "name": "id",
              "type": "uint256"
            },
            {
              "internalType": "string",
              "name": "name",
              "type": "string"
            },
            {
              "internalType": "string",
              "name": "description",
              "type": "string"
            },
            {
              "components": [
                {
                  "internalType": "string",
                  "name": "address1",
                  "type": "string"
                },
                {
                  "internalType": "string",
                  "name": "address2",
                  "type": "string"
                },
                {
                  "internalType": "string",
                  "name": "city",
                  "type": "string"
                },
                {
                  "internalType": "string",
                  "name": "province",
                  "type": "string"
                },
                {
                  "internalType": "string",
                  "name": "postcode",
                  "type": "string"
                },
                {
                  "internalType": "string",
                  "name": "country",
                  "type": "string"
                }
              ],
              "internalType": "struct PropertyEscrow.PropertyAddress",
              "name": "propertyAddress",
              "type": "tuple"
            },
            {
              "internalType": "uint256",
              "name": "price",
              "type": "uint256"
            },
            {
              "internalType": "address",
              "name": "owner",
              "type": "address"
            },
            {
              "internalType": "address",
              "name": "buyer",
              "type": "address"
            },
            {
              "internalType": "bool",
              "name": "isSold",
              "type": "bool"
            },
            {
              "internalType": "bool",
              "name": "onHold",
              "type": "bool"
            },
            {
              "internalType": "bool",
              "name": "isActive",
              "type": "bool"
            },
            {
              "internalType": "bool",
              "name": "isVerified",
              "type": "bool"
            }
          ],
          "internalType": "struct PropertyEscrow.Property",
          "name": "",
          "type": "tuple"
        }
      ],
      "stateMutability": "view",
      "type": "function"
    },
    {
      "inputs": [
        {
          "internalType": "uint256",
          "name": "_id",
          "type": "uint256"
        }
      ],
      "name": "getPropertyIsActive",
      "outputs": [
        {
          "internalType": "bool",
          "name": "",
          "type": "bool"
        }
      ],
      "stateMutability": "view",
      "type": "function"
    },
    {
      "inputs": [
        {
          "internalType": "uint256",
          "name": "_id",
          "type": "uint256"
        }
      ],
      "name": "getPropertyIsSold",
      "outputs": [
        {
          "internalType": "bool",
          "name": "",
          "type": "bool"
        }
      ],
      "stateMutability": "view",
      "type": "function"
    },
    {
      "inputs": [],
      "name": "getPropertyLength",
      "outputs": [
        {
          "internalType": "uint256",
          "name": "",
          "type": "uint256"
        }
      ],
      "stateMutability": "view",
      "type": "function"
    },
    {
      "inputs": [],
      "name": "getPropertyList",
      "outputs": [
        {
          "components": [
            {
              "internalType": "uint256",
              "name": "id",
              "type": "uint256"
            },
            {
              "internalType": "string",
              "name": "name",
              "type": "string"
            },
            {
              "internalType": "string",
              "name": "description",
              "type": "string"
            },
            {
              "components": [
                {
                  "internalType": "string",
                  "name": "address1",
                  "type": "string"
                },
                {
                  "internalType": "string",
                  "name": "address2",
                  "type": "string"
                },
                {
                  "internalType": "string",
                  "name": "city",
                  "type": "string"
                },
                {
                  "internalType": "string",
                  "name": "province",
                  "type": "string"
                },
                {
                  "internalType": "string",
                  "name": "postcode",
                  "type": "string"
                },
                {
                  "internalType": "string",
                  "name": "country",
                  "type": "string"
                }
              ],
              "internalType": "struct PropertyEscrow.PropertyAddress",
              "name": "propertyAddress",
              "type": "tuple"
            },
            {
              "internalType": "uint256",
              "name": "price",
              "type": "uint256"
            },
            {
              "internalType": "address",
              "name": "owner",
              "type": "address"
            },
            {
              "internalType": "address",
              "name": "buyer",
              "type": "address"
            },
            {
              "internalType": "bool",
              "name": "isSold",
              "type": "bool"
            },
            {
              "internalType": "bool",
              "name": "onHold",
              "type": "bool"
            },
            {
              "internalType": "bool",
              "name": "isActive",
              "type": "bool"
            },
            {
              "internalType": "bool",
              "name": "isVerified",
              "type": "bool"
            }
          ],
          "internalType": "struct PropertyEscrow.Property[]",
          "name": "",
          "type": "tuple[]"
        }
      ],
      "stateMutability": "view",
      "type": "function"
    },
    {
      "inputs": [
        {
          "internalType": "address",
          "name": "_address",
          "type": "address"
        }
      ],
      "name": "getPropertyListByAddressIsBuyer",
      "outputs": [
        {
          "components": [
            {
              "internalType": "uint256",
              "name": "id",
              "type": "uint256"
            },
            {
              "internalType": "string",
              "name": "name",
              "type": "string"
            },
            {
              "internalType": "string",
              "name": "description",
              "type": "string"
            },
            {
              "components": [
                {
                  "internalType": "string",
                  "name": "address1",
                  "type": "string"
                },
                {
                  "internalType": "string",
                  "name": "address2",
                  "type": "string"
                },
                {
                  "internalType": "string",
                  "name": "city",
                  "type": "string"
                },
                {
                  "internalType": "string",
                  "name": "province",
                  "type": "string"
                },
                {
                  "internalType": "string",
                  "name": "postcode",
                  "type": "string"
                },
                {
                  "internalType": "string",
                  "name": "country",
                  "type": "string"
                }
              ],
              "internalType": "struct PropertyEscrow.PropertyAddress",
              "name": "propertyAddress",
              "type": "tuple"
            },
            {
              "internalType": "uint256",
              "name": "price",
              "type": "uint256"
            },
            {
              "internalType": "address",
              "name": "owner",
              "type": "address"
            },
            {
              "internalType": "address",
              "name": "buyer",
              "type": "address"
            },
            {
              "internalType": "bool",
              "name": "isSold",
              "type": "bool"
            },
            {
              "internalType": "bool",
              "name": "onHold",
              "type": "bool"
            },
            {
              "internalType": "bool",
              "name": "isActive",
              "type": "bool"
            },
            {
              "internalType": "bool",
              "name": "isVerified",
              "type": "bool"
            }
          ],
          "internalType": "struct PropertyEscrow.Property[]",
          "name": "",
          "type": "tuple[]"
        }
      ],
      "stateMutability": "view",
      "type": "function"
    },
    {
      "inputs": [
        {
          "internalType": "address",
          "name": "_address",
          "type": "address"
        }
      ],
      "name": "getPropertyListByAddressIsOwner",
      "outputs": [
        {
          "components": [
            {
              "internalType": "uint256",
              "name": "id",
              "type": "uint256"
            },
            {
              "internalType": "string",
              "name": "name",
              "type": "string"
            },
            {
              "internalType": "string",
              "name": "description",
              "type": "string"
            },
            {
              "components": [
                {
                  "internalType": "string",
                  "name": "address1",
                  "type": "string"
                },
                {
                  "internalType": "string",
                  "name": "address2",
                  "type": "string"
                },
                {
                  "internalType": "string",
                  "name": "city",
                  "type": "string"
                },
                {
                  "internalType": "string",
                  "name": "province",
                  "type": "string"
                },
                {
                  "internalType": "string",
                  "name": "postcode",
                  "type": "string"
                },
                {
                  "internalType": "string",
                  "name": "country",
                  "type": "string"
                }
              ],
              "internalType": "struct PropertyEscrow.PropertyAddress",
              "name": "propertyAddress",
              "type": "tuple"
            },
            {
              "internalType": "uint256",
              "name": "price",
              "type": "uint256"
            },
            {
              "internalType": "address",
              "name": "owner",
              "type": "address"
            },
            {
              "internalType": "address",
              "name": "buyer",
              "type": "address"
            },
            {
              "internalType": "bool",
              "name": "isSold",
              "type": "bool"
            },
            {
              "internalType": "bool",
              "name": "onHold",
              "type": "bool"
            },
            {
              "internalType": "bool",
              "name": "isActive",
              "type": "bool"
            },
            {
              "internalType": "bool",
              "name": "isVerified",
              "type": "bool"
            }
          ],
          "internalType": "struct PropertyEscrow.Property[]",
          "name": "",
          "type": "tuple[]"
        }
      ],
      "stateMutability": "view",
      "type": "function"
    },
    {
      "inputs": [
        {
          "internalType": "uint256",
          "name": "_id",
          "type": "uint256"
        }
      ],
      "name": "getPropertyPrice",
      "outputs": [
        {
          "internalType": "uint256",
          "name": "",
          "type": "uint256"
        }
      ],
      "stateMutability": "view",
      "type": "function"
    },
    {
      "inputs": [],
      "name": "getTotalAmountTransacted",
      "outputs": [
        {
          "internalType": "uint256",
          "name": "",
          "type": "uint256"
        }
      ],
      "stateMutability": "view",
      "type": "function"
    },
    {
      "inputs": [
        {
          "internalType": "address",
          "name": "manager",
          "type": "address"
        }
      ],
      "name": "isManager",
      "outputs": [
        {
          "internalType": "bool",
          "name": "",
          "type": "bool"
        }
      ],
      "stateMutability": "view",
      "type": "function"
    },
    {
      "inputs": [
        {
          "internalType": "uint256",
          "name": "_id",
          "type": "uint256"
        }
      ],
      "name": "payProperty",
      "outputs": [
        {
          "internalType": "bool",
          "name": "",
          "type": "bool"
        }
      ],
      "stateMutability": "payable",
      "type": "function"
    },
    {
      "inputs": [
        {
          "internalType": "address",
          "name": "manager",
          "type": "address"
        },
        {
          "internalType": "bool",
          "name": "state",
          "type": "bool"
        }
      ],
      "name": "setManager",
      "outputs": [
        {
          "internalType": "bool",
          "name": "",
          "type": "bool"
        }
      ],
      "stateMutability": "nonpayable",
      "type": "function"
    },
    {
      "inputs": [
        {
          "internalType": "uint256",
          "name": "_id",
          "type": "uint256"
        },
        {
          "internalType": "bool",
          "name": "_isVerified",
          "type": "bool"
        }
      ],
      "name": "setPropertyIsVerified",
      "outputs": [
        {
          "internalType": "bool",
          "name": "",
          "type": "bool"
        }
      ],
      "stateMutability": "nonpayable",
      "type": "function"
    }
  ],
  "bytecode": "0x608060405234801561001057600080fd5b50600180546001600160a01b0319163390811782556000908152602081905260409020805460ff191682179055600355612e878061004f6000396000f3fe6080604052600436106100f35760003560e01c80636d2f69fa1161008a578063c1a8248011610059578063c1a8248014610292578063cb6341ce146102b2578063f3ae2415146102d2578063f600f308146102f257600080fd5b80636d2f69fa146102055780639139758514610232578063a5e90eee1461025f578063badf707b1461027f57600080fd5b8063305a67a8116100c6578063305a67a81461019057806344c31fcd146101b057806355fcff1b146101c5578063686c50e0146101e557600080fd5b80630789752c146100f85780630b4a348c1461012b57806321977f6c1461014057806325db3afa14610170575b600080fd5b34801561010457600080fd5b50610118610113366004612ade565b610307565b6040519081526020015b60405180910390f35b34801561013757600080fd5b5061011861031e565b34801561014c57600080fd5b5061016061015b366004612ade565b6103b6565b6040519015158152602001610122565b34801561017c57600080fd5b5061016061018b366004612b1a565b6103cd565b34801561019c57600080fd5b506101606101ab366004612ade565b61066e565b3480156101bc57600080fd5b50600254610118565b3480156101d157600080fd5b506101186101e0366004612994565b61077c565b3480156101f157600080fd5b50610160610200366004612af7565b610a11565b34801561021157600080fd5b50610225610220366004612946565b610b03565b6040516101229190612d55565b34801561023e57600080fd5b5061025261024d366004612ade565b6111aa565b6040516101229190612db7565b34801561026b57600080fd5b5061016061027a366004612961565b6111c4565b61016061028d366004612ade565b611249565b34801561029e57600080fd5b506101606102ad366004612ade565b611509565b3480156102be57600080fd5b506102256102cd366004612946565b611521565b3480156102de57600080fd5b506101606102ed366004612946565b611bc0565b3480156102fe57600080fd5b50610225611c3e565b600080610313836121c2565b608001519392505050565b600080805b6002548110156103b0576002818154811061034057610340612e25565b90600052602060002090600c0201600b0160149054906101000a900460ff16151560011515141561039e576002818154811061037e5761037e612e25565b90600052602060002090600c0201600901548261039b9190612dca565b91505b6103a9816001612dca565b9050610323565b50919050565b6000806103c2836121c2565b60e001519392505050565b60008460006103db826121c2565b90508060a001516001600160a01b0316336001600160a01b0316146104475760405162461bcd60e51b815260206004820152601f60248201527f4f6e6c792070726f7065727479206f776e65722063616e20657865637574650060448201526064015b60405180910390fd5b60005b60025481101561062657876002828154811061046857610468612e25565b90600052602060002090600c0201600001541415610614576002818154811061049357610493612e25565b90600052602060002090600c0201600b0160169054906101000a900460ff16151560011515146104fe5760405162461bcd60e51b815260206004820152601660248201527550726f7065727479206973206e6f742061637469766560501b604482015260640161043e565b6002818154811061051157610511612e25565b60009182526020909120600c90910201600b0154600160a01b900460ff161561056f5760405162461bcd60e51b815260206004820152601060248201526f141c9bdc195c9d1e481a5cc81cdbdb1960821b604482015260640161043e565b866002828154811061058357610583612e25565b90600052602060002090600c020160010190805190602001906105a7929190612768565b5085600282815481106105bc576105bc612e25565b90600052602060002090600c020160020190805190602001906105e0929190612768565b5084600282815481106105f5576105f5612e25565b90600052602060002090600c0201600901819055506001935050610664565b61061f816001612dca565b905061044a565b5060405162461bcd60e51b8152602060048201526012602482015271141c9bdc195c9d1e481b9bdd08199bdd5b9960721b604482015260640161043e565b5050949350505050565b600081600061067c826121c2565b90508060a001516001600160a01b0316336001600160a01b0316146106e35760405162461bcd60e51b815260206004820152601f60248201527f4f6e6c792070726f7065727479206f776e65722063616e206578656375746500604482015260640161043e565b60005b60025481101561062657846002828154811061070457610704612e25565b90600052602060002090600c02016000015414156107635760006002828154811061073157610731612e25565b90600052602060002090600c0201600b0160166101000a81548160ff0219169083151502179055506001935050610775565b61076e816001612dca565b90506106e6565b5050919050565b6040805160c080820183528b825260208083018c90528284018b905260608084018b905260808085018b905260a08086018b905286516101608101885260035481528085018b81529781018a90529283018690529082018790523390820152600092810183905260e081018390526101008101839052600161012082018190526101408201849052600280549182018155845281517f405787fa12a823e0f2b7631cc41b3ba8828b3321ca811111fa75cd3aa3bb5ace600c90920291820190815595518051949692948594610875937f405787fa12a823e0f2b7631cc41b3ba8828b3321ca811111fa75cd3aa3bb5acf01920190612768565b5060408201518051610891916002840191602090910190612768565b5060608201518051805160038401916108af91839160200190612768565b5060208281015180516108c89260018501920190612768565b50604082015180516108e4916002840191602090910190612768565b5060608201518051610900916003840191602090910190612768565b506080820151805161091c916004840191602090910190612768565b5060a08201518051610938916005840191602090910190612768565b5050506080820151600982015560a0820151600a820180546001600160a01b039283166001600160a01b031990911617905560c0830151600b909201805460e0850151610100860151610120870151610140909701511515600160b81b0260ff60b81b19971515600160b01b0260ff60b01b19921515600160a81b029290921661ffff60a81b19931515600160a01b026001600160a81b0319909516979096169690961792909217169290921791909117929092161790556003546109fe906001612dca565b600355519b9a5050505050505050505050565b3360009081526020819052604081205460ff16610a6c5760405162461bcd60e51b81526020600482015260196024820152784f6e6c79206d616e61676572732063616e206578656375746560381b604482015260640161043e565b60005b600254811015610626578360028281548110610a8d57610a8d612e25565b90600052602060002090600c0201600001541415610aeb578260028281548110610ab957610ab9612e25565b90600052602060002090600c0201600b0160176101000a81548160ff0219169083151502179055506001915050610afd565b610af6816001612dca565b9050610a6f565b92915050565b60606000805b600254811015610b7357836001600160a01b031660028281548110610b3057610b30612e25565b60009182526020909120600a600c9092020101546001600160a01b03161415610b6157610b5e826001612dca565b91505b610b6c816001612dca565b9050610b09565b5060008167ffffffffffffffff811115610b8f57610b8f612e3b565b604051908082528060200260200182016040528015610bc857816020015b610bb56127ec565b815260200190600190039081610bad5790505b50905081610bd7579392505050565b60005b6002548110156111a257846001600160a01b031660028281548110610c0157610c01612e25565b60009182526020909120600a600c9092020101546001600160a01b031614156111905760028181548110610c3757610c37612e25565b90600052602060002090600c02016040518061016001604052908160008201548152602001600182018054610c6b90612df0565b80601f0160208091040260200160405190810160405280929190818152602001828054610c9790612df0565b8015610ce45780601f10610cb957610100808354040283529160200191610ce4565b820191906000526020600020905b815481529060010190602001808311610cc757829003601f168201915b50505050508152602001600282018054610cfd90612df0565b80601f0160208091040260200160405190810160405280929190818152602001828054610d2990612df0565b8015610d765780601f10610d4b57610100808354040283529160200191610d76565b820191906000526020600020905b815481529060010190602001808311610d5957829003601f168201915b50505050508152602001600382016040518060c0016040529081600082018054610d9f90612df0565b80601f0160208091040260200160405190810160405280929190818152602001828054610dcb90612df0565b8015610e185780601f10610ded57610100808354040283529160200191610e18565b820191906000526020600020905b815481529060010190602001808311610dfb57829003601f168201915b50505050508152602001600182018054610e3190612df0565b80601f0160208091040260200160405190810160405280929190818152602001828054610e5d90612df0565b8015610eaa5780601f10610e7f57610100808354040283529160200191610eaa565b820191906000526020600020905b815481529060010190602001808311610e8d57829003601f168201915b50505050508152602001600282018054610ec390612df0565b80601f0160208091040260200160405190810160405280929190818152602001828054610eef90612df0565b8015610f3c5780601f10610f1157610100808354040283529160200191610f3c565b820191906000526020600020905b815481529060010190602001808311610f1f57829003601f168201915b50505050508152602001600382018054610f5590612df0565b80601f0160208091040260200160405190810160405280929190818152602001828054610f8190612df0565b8015610fce5780601f10610fa357610100808354040283529160200191610fce565b820191906000526020600020905b815481529060010190602001808311610fb157829003601f168201915b50505050508152602001600482018054610fe790612df0565b80601f016020809104026020016040519081016040528092919081815260200182805461101390612df0565b80156110605780601f1061103557610100808354040283529160200191611060565b820191906000526020600020905b81548152906001019060200180831161104357829003601f168201915b5050505050815260200160058201805461107990612df0565b80601f01602080910402602001604051908101604052809291908181526020018280546110a590612df0565b80156110f25780601f106110c7576101008083540402835291602001916110f2565b820191906000526020600020905b8154815290600101906020018083116110d557829003601f168201915b50505091909252505050815260098201546020820152600a8201546001600160a01b039081166040830152600b90920154918216606082015260ff600160a01b8304811615156080830152600160a81b83048116151560a0830152600160b01b83048116151560c0830152600160b81b909204909116151560e090910152825183908390811061118457611184612e25565b60200260200101819052505b61119b816001612dca565b9050610bda565b509392505050565b6111b26127ec565b60006111bd836121c2565b9392505050565b6001546000906001600160a01b0316331461121a5760405162461bcd60e51b81526020600482015260166024820152754f6e6c79206f776e65722063616e206578656375746560501b604482015260640161043e565b506001600160a01b0382166000908152602081905260409020805482151560ff19909116179055600192915050565b6000805b60025481101561062657826002828154811061126b5761126b612e25565b90600052602060002090600c02016000015414156114f7576002818154811061129657611296612e25565b60009182526020909120600c90910201600a01546001600160a01b03163314156113025760405162461bcd60e51b815260206004820152601c60248201527f43616e6e6f74207075726368617365206f776e2070726f706572747900000000604482015260640161043e565b6002818154811061131557611315612e25565b90600052602060002090600c02016009015434146113905760405162461bcd60e51b815260206004820152603260248201527f5472616e73616374696f6e20616d6f756e7420646f6573206e6f7420657175616044820152711b081d1bc8185cdada5b99c8185b5bdd5b9d60721b606482015260840161043e565b6001600282815481106113a5576113a5612e25565b90600052602060002090600c0201600b0160146101000a81548160ff0219169083151502179055506000600282815481106113e2576113e2612e25565b90600052602060002090600c0201600b0160166101000a81548160ff021916908315150217905550336002828154811061141e5761141e612e25565b90600052602060002090600c0201600b0160006101000a8154816001600160a01b0302191690836001600160a01b0316021790555060006002828154811061146857611468612e25565b90600052602060002090600c0201600a0160009054906101000a90046001600160a01b03169050806001600160a01b03166108fc600284815481106114af576114af612e25565b90600052602060002090600c0201600901549081150290604051600060405180830381858888f193505050501580156114ec573d6000803e3d6000fd5b506001949350505050565b611502816001612dca565b905061124d565b600080611515836121c2565b61012001519392505050565b60606000805b60025481101561159157836001600160a01b03166002828154811061154e5761154e612e25565b60009182526020909120600b600c9092020101546001600160a01b0316141561157f5761157c826001612dca565b91505b61158a816001612dca565b9050611527565b5060008167ffffffffffffffff8111156115ad576115ad612e3b565b6040519080825280602002602001820160405280156115e657816020015b6115d36127ec565b8152602001906001900390816115cb5790505b509050816115f5579392505050565b60005b6002548110156111a257846001600160a01b03166002828154811061161f5761161f612e25565b60009182526020909120600b600c9092020101546001600160a01b03161415611bae576002818154811061165557611655612e25565b90600052602060002090600c0201604051806101600160405290816000820154815260200160018201805461168990612df0565b80601f01602080910402602001604051908101604052809291908181526020018280546116b590612df0565b80156117025780601f106116d757610100808354040283529160200191611702565b820191906000526020600020905b8154815290600101906020018083116116e557829003601f168201915b5050505050815260200160028201805461171b90612df0565b80601f016020809104026020016040519081016040528092919081815260200182805461174790612df0565b80156117945780601f1061176957610100808354040283529160200191611794565b820191906000526020600020905b81548152906001019060200180831161177757829003601f168201915b50505050508152602001600382016040518060c00160405290816000820180546117bd90612df0565b80601f01602080910402602001604051908101604052809291908181526020018280546117e990612df0565b80156118365780601f1061180b57610100808354040283529160200191611836565b820191906000526020600020905b81548152906001019060200180831161181957829003601f168201915b5050505050815260200160018201805461184f90612df0565b80601f016020809104026020016040519081016040528092919081815260200182805461187b90612df0565b80156118c85780601f1061189d576101008083540402835291602001916118c8565b820191906000526020600020905b8154815290600101906020018083116118ab57829003601f168201915b505050505081526020016002820180546118e190612df0565b80601f016020809104026020016040519081016040528092919081815260200182805461190d90612df0565b801561195a5780601f1061192f5761010080835404028352916020019161195a565b820191906000526020600020905b81548152906001019060200180831161193d57829003601f168201915b5050505050815260200160038201805461197390612df0565b80601f016020809104026020016040519081016040528092919081815260200182805461199f90612df0565b80156119ec5780601f106119c1576101008083540402835291602001916119ec565b820191906000526020600020905b8154815290600101906020018083116119cf57829003601f168201915b50505050508152602001600482018054611a0590612df0565b80601f0160208091040260200160405190810160405280929190818152602001828054611a3190612df0565b8015611a7e5780601f10611a5357610100808354040283529160200191611a7e565b820191906000526020600020905b815481529060010190602001808311611a6157829003601f168201915b50505050508152602001600582018054611a9790612df0565b80601f0160208091040260200160405190810160405280929190818152602001828054611ac390612df0565b8015611b105780601f10611ae557610100808354040283529160200191611b10565b820191906000526020600020905b815481529060010190602001808311611af357829003601f168201915b50505091909252505050815260098201546020820152600a8201546001600160a01b039081166040830152600b90920154918216606082015260ff600160a01b8304811615156080830152600160a81b83048116151560a0830152600160b01b83048116151560c0830152600160b81b909204909116151560e0909101528251839083908110611ba257611ba2612e25565b60200260200101819052505b611bb9816001612dca565b90506115f8565b3360009081526020819052604081205460ff16611c1b5760405162461bcd60e51b81526020600482015260196024820152784f6e6c79206d616e61676572732063616e206578656375746560381b604482015260640161043e565b506001600160a01b03811660009081526020819052604090205460ff165b919050565b60606002805480602002602001604051908101604052809291908181526020016000905b828210156121b957838290600052602060002090600c02016040518061016001604052908160008201548152602001600182018054611ca090612df0565b80601f0160208091040260200160405190810160405280929190818152602001828054611ccc90612df0565b8015611d195780601f10611cee57610100808354040283529160200191611d19565b820191906000526020600020905b815481529060010190602001808311611cfc57829003601f168201915b50505050508152602001600282018054611d3290612df0565b80601f0160208091040260200160405190810160405280929190818152602001828054611d5e90612df0565b8015611dab5780601f10611d8057610100808354040283529160200191611dab565b820191906000526020600020905b815481529060010190602001808311611d8e57829003601f168201915b50505050508152602001600382016040518060c0016040529081600082018054611dd490612df0565b80601f0160208091040260200160405190810160405280929190818152602001828054611e0090612df0565b8015611e4d5780601f10611e2257610100808354040283529160200191611e4d565b820191906000526020600020905b815481529060010190602001808311611e3057829003601f168201915b50505050508152602001600182018054611e6690612df0565b80601f0160208091040260200160405190810160405280929190818152602001828054611e9290612df0565b8015611edf5780601f10611eb457610100808354040283529160200191611edf565b820191906000526020600020905b815481529060010190602001808311611ec257829003601f168201915b50505050508152602001600282018054611ef890612df0565b80601f0160208091040260200160405190810160405280929190818152602001828054611f2490612df0565b8015611f715780601f10611f4657610100808354040283529160200191611f71565b820191906000526020600020905b815481529060010190602001808311611f5457829003601f168201915b50505050508152602001600382018054611f8a90612df0565b80601f0160208091040260200160405190810160405280929190818152602001828054611fb690612df0565b80156120035780601f10611fd857610100808354040283529160200191612003565b820191906000526020600020905b815481529060010190602001808311611fe657829003601f168201915b5050505050815260200160048201805461201c90612df0565b80601f016020809104026020016040519081016040528092919081815260200182805461204890612df0565b80156120955780601f1061206a57610100808354040283529160200191612095565b820191906000526020600020905b81548152906001019060200180831161207857829003601f168201915b505050505081526020016005820180546120ae90612df0565b80601f01602080910402602001604051908101604052809291908181526020018280546120da90612df0565b80156121275780601f106120fc57610100808354040283529160200191612127565b820191906000526020600020905b81548152906001019060200180831161210a57829003601f168201915b5050509190925250505081526009820154602080830191909152600a8301546001600160a01b039081166040840152600b90930154928316606083015260ff600160a01b8404811615156080840152600160a81b84048116151560a0840152600160b01b84048116151560c0840152600160b81b909304909216151560e0909101529082526001929092019101611c62565b50505050905090565b6121ca6127ec565b60005b6002548110156106265782600282815481106121eb576121eb612e25565b90600052602060002090600c0201600001541415612756576002818154811061221657612216612e25565b90600052602060002090600c0201604051806101600160405290816000820154815260200160018201805461224a90612df0565b80601f016020809104026020016040519081016040528092919081815260200182805461227690612df0565b80156122c35780601f10612298576101008083540402835291602001916122c3565b820191906000526020600020905b8154815290600101906020018083116122a657829003601f168201915b505050505081526020016002820180546122dc90612df0565b80601f016020809104026020016040519081016040528092919081815260200182805461230890612df0565b80156123555780601f1061232a57610100808354040283529160200191612355565b820191906000526020600020905b81548152906001019060200180831161233857829003601f168201915b50505050508152602001600382016040518060c001604052908160008201805461237e90612df0565b80601f01602080910402602001604051908101604052809291908181526020018280546123aa90612df0565b80156123f75780601f106123cc576101008083540402835291602001916123f7565b820191906000526020600020905b8154815290600101906020018083116123da57829003601f168201915b5050505050815260200160018201805461241090612df0565b80601f016020809104026020016040519081016040528092919081815260200182805461243c90612df0565b80156124895780601f1061245e57610100808354040283529160200191612489565b820191906000526020600020905b81548152906001019060200180831161246c57829003601f168201915b505050505081526020016002820180546124a290612df0565b80601f01602080910402602001604051908101604052809291908181526020018280546124ce90612df0565b801561251b5780601f106124f05761010080835404028352916020019161251b565b820191906000526020600020905b8154815290600101906020018083116124fe57829003601f168201915b5050505050815260200160038201805461253490612df0565b80601f016020809104026020016040519081016040528092919081815260200182805461256090612df0565b80156125ad5780601f10612582576101008083540402835291602001916125ad565b820191906000526020600020905b81548152906001019060200180831161259057829003601f168201915b505050505081526020016004820180546125c690612df0565b80601f01602080910402602001604051908101604052809291908181526020018280546125f290612df0565b801561263f5780601f106126145761010080835404028352916020019161263f565b820191906000526020600020905b81548152906001019060200180831161262257829003601f168201915b5050505050815260200160058201805461265890612df0565b80601f016020809104026020016040519081016040528092919081815260200182805461268490612df0565b80156126d15780601f106126a6576101008083540402835291602001916126d1565b820191906000526020600020905b8154815290600101906020018083116126b457829003601f168201915b50505091909252505050815260098201546020820152600a8201546001600160a01b039081166040830152600b90920154918216606082015260ff600160a01b8304811615156080830152600160a81b83048116151560a0830152600160b01b83048116151560c0830152600160b81b909204909116151560e0909101529392505050565b612761816001612dca565b90506121cd565b82805461277490612df0565b90600052602060002090601f01602090048101928261279657600085556127dc565b82601f106127af57805160ff19168380011785556127dc565b828001600101855582156127dc579182015b828111156127dc5782518255916020019190600101906127c1565b506127e892915061287d565b5090565b6040518061016001604052806000815260200160608152602001606081526020016128466040518060c001604052806060815260200160608152602001606081526020016060815260200160608152602001606081525090565b815260006020820181905260408201819052606082018190526080820181905260a0820181905260c0820181905260e09091015290565b5b808211156127e8576000815560010161287e565b80356001600160a01b0381168114611c3957600080fd5b80358015158114611c3957600080fd5b600082601f8301126128ca57600080fd5b813567ffffffffffffffff808211156128e5576128e5612e3b565b604051601f8301601f19908116603f0116810190828211818310171561290d5761290d612e3b565b8160405283815286602085880101111561292657600080fd5b836020870160208301376000602085830101528094505050505092915050565b60006020828403121561295857600080fd5b6111bd82612892565b6000806040838503121561297457600080fd5b61297d83612892565b915061298b602084016128a9565b90509250929050565b60008060008060008060008060006101208a8c0312156129b357600080fd5b893567ffffffffffffffff808211156129cb57600080fd5b6129d78d838e016128b9565b9a5060208c01359150808211156129ed57600080fd5b6129f98d838e016128b9565b995060408c0135915080821115612a0f57600080fd5b612a1b8d838e016128b9565b985060608c0135915080821115612a3157600080fd5b612a3d8d838e016128b9565b975060808c0135915080821115612a5357600080fd5b612a5f8d838e016128b9565b965060a08c0135915080821115612a7557600080fd5b612a818d838e016128b9565b955060c08c0135915080821115612a9757600080fd5b612aa38d838e016128b9565b945060e08c0135915080821115612ab957600080fd5b50612ac68c828d016128b9565b9250506101008a013590509295985092959850929598565b600060208284031215612af057600080fd5b5035919050565b60008060408385031215612b0a57600080fd5b8235915061298b602084016128a9565b60008060008060808587031215612b3057600080fd5b84359350602085013567ffffffffffffffff80821115612b4f57600080fd5b612b5b888389016128b9565b94506040870135915080821115612b7157600080fd5b50612b7e878288016128b9565b949793965093946060013593505050565b6000815180845260005b81811015612bb557602081850181015186830182015201612b99565b81811115612bc7576000602083870101525b50601f01601f19169290920160200192915050565b6000815160c08452612bf160c0850182612b8f565b905060208301518482036020860152612c0a8282612b8f565b91505060408301518482036040860152612c248282612b8f565b91505060608301518482036060860152612c3e8282612b8f565b91505060808301518482036080860152612c588282612b8f565b91505060a083015184820360a0860152612c728282612b8f565b95945050505050565b6000610160825184526020830151816020860152612c9b82860182612b8f565b91505060408301518482036040860152612cb58282612b8f565b91505060608301518482036060860152612ccf8282612bdc565b9150506080830151608085015260a0830151612cf660a08601826001600160a01b03169052565b5060c0830151612d1160c08601826001600160a01b03169052565b5060e0830151612d2560e086018215159052565b50610100838101511515908501526101208084015115159085015261014092830151151592909301919091525090565b6000602080830181845280855180835260408601915060408160051b870101925083870160005b82811015612daa57603f19888603018452612d98858351612c7b565b94509285019290850190600101612d7c565b5092979650505050505050565b6020815260006111bd6020830184612c7b565b60008219821115612deb57634e487b7160e01b600052601160045260246000fd5b500190565b600181811c90821680612e0457607f821691505b602082108114156103b057634e487b7160e01b600052602260045260246000fd5b634e487b7160e01b600052603260045260246000fd5b634e487b7160e01b600052604160045260246000fdfea264697066735822122055706a7e21a928b0d4351f2e4821b1e3d71d0fd437103662508981c40d68836e64736f6c63430008050033",
  "linkReferences": {},
  "deployedLinkReferences": {}
}